:100000006F10503C00000000A4130000A613000075
:1000100000000000000000000000000000000000E0
:1000200000000000000000000000000000000000D0
:10003000B613000000000000C21B0000000000001A
:10004000C21B0000C21B0000C21B0000C21B00003C
:10005000C21B0000C21B0000C21B0000C21B00002C
:10006000C21B0000C21B0000C21B0000C21B00001C
:10007000C21B0000C21B0000C21B0000C21B00000C
:10008000C21B0000C21B0000C21B0000CC130000FA
:10009000C21B0000C21B0000C21B000000000000C9
:1000A000511126C022C206C4828282441244A24058
:1000B000310182802A86014593F6150091C232955E
:1000C00085810606F5F9828000000000634E050276
:1000D00063C305042E86AA857D5515C285466378BF
:1000E000B6006356C00006068606E36CB6FE014500
:1000F00063E4C500918D558D85820582F5FA828075
:100100008682C93F2E8582823305A04063D70500D1
:10011000B305B040C1B7B305B0408682653F330533
:10012000A0408282868263C70500634905005D376F
:100130002E858282B305B040E35B05FE3305A04007
:10014000513F3305B040828200003D432A876373EC
:10015000C3029377F700BDEFADE5937606FF3D8AC6
:10016000BA960CC34CC30CC74CC74107E36BD7FE10
:1001700011E28280B306C3408A0697020000969679
:100180006780A6002307B700A306B7002306B700C1
:10019000A305B7002305B700A304B7002304B700E5
:1001A000A303B7002303B700A302B7002302B700DD
:1001B000A301B7002301B700A300B7002300B700D5
:1001C000828093F5F50F93968500D58D9396050162
:1001D000D58D61B793962700970200009696868288
:1001E000E78086FA9680C1171D8F3E96E374C3F8A8
:1001F000A5B7EFF2FFEA370500201306003081456E
:1002000013058501993755B56357C00C6355D00C5C
:100210002A8363530500014342032A96930700088B
:100220001353034163D4C7001306000842064186F6
:100230006353C30AAE8763D305008147C207B695EF
:1002400013070003C1876354B70093050003939617
:100250000501C18663D1D70851119382F6FFB30619
:10026000D0409305F00F26C29D8A93D437409D8BD2
:10027000B397F500B7030020B3D5D5403EC022C4E4
:1002800093D2324093F5F50FA6879383830163D60B
:10029000F20022449244310182809306F00F63936E
:1002A000F400824693F6F60F6393F200ED8E1397F7
:1002B00077001A971E971A8593C6F6FF0023050547
:1002C0004205758C00A341850507E319A6FE850745
:1002D000C207C1876DBF8280EFF29FDC1301C1FDB1
:1002E0008312010303144103638B0218630904188A
:1002F00063070618638506181303F0076341E318C4
:10030000634FA3161303F002634BF3166349B3164E
:10031000BA846353A700AA84C2043303C500B3039D
:100320005700C1846359730C7D152A9642063385A4
:10033000D5003383870041866353650C1385F5FF31
:10034000AA96C2061303F007C18632856354C30020
:100350001305F00713160501418632C26341961258
:100360003E8363D3B7002E8313160301418632C048
:100370001306F002B6856354D6009305F0029396F7
:100380000501C18636C482461396050116C641860C
:100390006347D60E3ED092470546B306D640058E3B
:1003A0003E96AE968245C2064206C18641862685A5
:1003B0007D143ACE913D9357F4419D8B3E949357D3
:1003C00034403ECAB242B7070020938787010144F8
:1003D0003ECCD24763C5870A0257931734009685EF
:1003E000BA9793F7F70F228516C83EC6E1318146CA
:1003F0002143C2421DA01306F7FF169605BF938640
:10040000F7FFA2963DBFF247B385F60093F5F50FCF
:1004100063DB9500850693F6F60FE3C656FE0504EA
:100420001374F40F7DB79247E3C6B7FE6257B387E4
:10043000A6000146BA973EC8B2470247B29793F763
:10044000F70F63CAE70222476347F70242471823C0
:100450003357C740058B05C3E24313D737001E0748
:100460001E972E9785439D8BB397F3008343070018
:10047000B3E777001CA30506E31066FC61BF130118
:10048000410225B1EFF2DFC11301C1FD0344410375
:100490002AC82ECA22C60304010336CC3ACE13035F
:1004A00004FE1374F30FA2821304E005636854047E
:1004B000B2403ED0A143B284BA82368463937004C2
:1004C000931313009A939390130032438963938399
:1004D0008369869399401EC41AC206C01ECCED3BA8
:1004E000E243F242214799473EC0D24582574245F6
:1004F0003AC21EC41687A2862686F93B1301410222
:100500006DB6014781478143C5B7EFF27FB913014B
:1005100081FD834381033A832AC62EC832CA36CC72
:100520002147BE84D25299476383E30081473EC48A
:10053000938723001A843ECE8387020081E713014C
:100540008102A5B629476399E700F24785021A841C
:10055000BE94C204C184CDB7E3C007FEE246524652
:10056000C24532451EC23EC02287A68716DA1AD27D
:100570001ED0093FA247D25212533E9442044184F6
:100580008502825355BFEFF2BFB18945371501404F
:10059000EF10300E914537150140EF10900D894551
:1005A00037150140EF10300D914537150140EF1020
:1005B000900CE5BCEFF2DFAEAA842144939784014E
:1005C000E18789453715014063D00704EF10700AB1
:1005D000914537150140EF10D0097D14914537152D
:1005E000014086041374F40FEF10F00893F4F40F35
:1005F00071F4914537150140EF10B007914537155B
:100600000140EF10500755B4EF10F006D1B7EFF2EC
:100610003FA9894537150140EF10F0059145371581
:100620000140EF101005894537150140EF107004A7
:10063000ADBCEFF2FFA62A84B937130580079D3FB2
:1006400001458D3F2285BD37D93785B4EFF25FA5CF
:10065000AE842A840D3F13058007A93F13050004CB
:10066000913FB707002083C70700A29485C3631496
:100670009400713F1DBC082005042D3FCDBF08200C
:1006800005041345F5FF1375F50F2D37E31994FE97
:10069000CDB7EFF2FFA0B70400209384840101449A
:1006A00005041374F40F1365040B61374945513782
:1006B00021454137268593058005493F9947938415
:1006C0000408E31FF4FCD5B2EFF29F9D511185455C
:1006D000414502C002C202C4EF10E07C99477C8011
:1006E000D1473EC48A858D47371501403EC2EF1081
:1006F000406F914537150140EF10A07789453715B8
:100700000140EF1000771305E00A25371305500D5F
:100710000D3713050008313F1305800A193F1305F3
:10072000F003013F1305300D293701451937130533
:10073000000401371305100AED3D1305800CD53D6B
:100740001305A00DFD354945ED3513051008D535C8
:100750001305F00CF93D1305900DE13D1305100F45
:10076000C93D1305B00DF13513050003D935130547
:10077000400AC1351305600A6D3D1305D008553D8B
:100780005145453DBD3431371305F00A5D35310122
:1007900029BA938741B023A0070023A2070023842E
:1007A000070023950700238C070023A0070223A23C
:1007B00007028280EFF2DF8EEF00F01AEF00102CBC
:1007C00003A501B509CD814601468145EF00705F63
:1007D00003A501B5814601468145EF00B0629387CC
:1007E00041B023A007002384070023950700238C32
:1007F0000700A3800702238307026FF01F8BEFF22D
:100800003F8A83A701B5ADC3EF00B014EF00B02558
:10081000138441B085471CC0930700093EA483A7F9
:1008200041B503A501B585465CCC0146B147994564
:100830001CD023220400230C0400231204022303EF
:100840000402EF0010582E2403A501B5814601468D
:10085000EF00505B9307E0071CC803A781B558C49D
:1008600003A781B523A0E1B06FF03F84EFF25F836F
:10087000EF00700FEF00902003A501B509CD814670
:1008800001468145EF00F05303A501B581460146BD
:100890008145EF003057938741B00D4798C3054716
:1008A000A383E70223840700239507006FF0EFFF7F
:1008B000EFF20FFF03A501B5511151C9938741B064
:1008C000DC43138441B0139747008D679387478DAE
:1008D000BA9703A30700D8439C479A853A86BE86F9
:1008E0003EC43AC21AC0EF00D04D0243994681453A
:1008F0001247A2476313D3002E249946014663137F
:10090000D7003224194781466393E700362403A5B4
:1009100001B5EF00304F1C24230C04002311040206
:10092000139547001D8D231204022303040293052F
:1009300040061A05EFF00FFA420541819307F5FFD3
:10094000C207C1831307E0086376F7002AA43101C8
:100950006FF0AFF5930700093EA4D5BFEFF24FF457
:10096000138441B089471CC085475CC0A3000402C2
:1009700023030402230C0400253F03A781B558C4B8
:100980001307E00718C803A781B523A0E1B06FF0F3
:10099000CFF1EFF2EFF0EF00701D59E90144EF00E5
:1009A000101E71C5EF00701F938741B0982745C98D
:1009B0005DCF7D1798A703A741B08947138441B045
:1009C0006318F70A1C2493054006139547001D8DF4
:1009D0001A05EFF02FF0420541819307F5FFC2079A
:1009E000C1831307E0086377F7082AA458408D678E
:1009F0009386478D1207BA96904299469387478D02
:100A000081456313D6002E24B386E700C842994679
:100A100001466313D5003224BA9798479947814617
:100A20006313F700362403A501B5EF00B03D89A09C
:100A3000EF001016938741B0982709C99306300636
:100A4000E3EEE6F4050798A7054491BF9306A005D9
:100A500063E4E6002907C5BF13074006EDB7A546C6
:100A600063F4E6005917B9B723840700A9B721F446
:100A70006FF0AFE3930700093EA48DBF83A641B09A
:100A80000947639BE614EFF2AFE1938741B0D4438B
:100A90000D641307448D939746003E974C27B72467
:100AA0000140511199460546138504403EC2EF109E
:100AB0000026854513850440EF10E0239307448DFD
:100AC0003EC41384044089452285EF10603065DD03
:100AD00013850440EF10402F2AC089451385044038
:100AE000EF10A02F13850440994605468545EF1069
:100AF000002213850440854537240140EF10A01FD4
:100B00009304044089452685EF10802C65DD13058C
:100B10000440EF10602BAA84894513050440EF10B0
:100B2000C02B938741B083C66702ADE60247A2049B
:100B3000C6B3131487000547A2B32383E70283C516
:100B400067020D476375B70203C717020DE3BA3397
:100B5000D6332183A1823306D740635406003386FF
:100B6000E6404D476355C7000547A380E702982F2D
:100B700019EF0D47637DB70022469245B633DA334D
:100B80002E965036A182218321C263F1E604310101
:100B90006FF0AFD1B233960413173600118F0246AF
:100BA0000D87131456003A94DA33A2B313153700A5
:100BB000198D0D852695CAB31307F00FE381E6F86A
:100BC00085062383D702A5BFE363D7FC054798AF0B
:100BD00003A781B5D8CB65BF8280EFF26FCC938439
:100BE00041B09C4005477111638DE70099C70947E3
:100BF0006389E70411016FF04FCB9C24E5DF0131DD
:100C0000D5BF03A741B59C2499E36D36E5B7D44C15
:100C1000158F93063006E3FFE6FC139547001D8D04
:100C200091671A059387F78363F9A7009305400638
:100C3000EFF04FCAAAA41D3375BF93070009BEA4E5
:100C4000DDBF138441B0182469D3138701B010436A
:100C500083A681B5918E0D466362D602182C83A7B8
:100C600081B5144815E75844034604023387E7402A
:100C70002DC29306D00763EBE602ADBF83A681B514
:100C80003EC014C3E53B18408247E315F7F6F9B7B9
:100C90000347140269DB0D4709466374D70013D676
:100CA000160058483387E740E366C7F45844484085
:100CB0005CC43387E74018C899450505EFF04FC479
:100CC0008347040248C081C7FD172300F402CD36D4
:100CD00015B703461402E30F06F013961600B296FA
:100CE000E36AD7F0E1B7EFF2AFBB37240140130559
:100CF0000440994605468945EF10600113050440FC
:100D00008545B7240140EF00107F138404408945D6
:100D10002285EF10E00B65DD13850440EF10C00A5B
:100D200089452A8413850440EF10200B1385044065
:100D3000994605468D45EF00907D13850440854515
:100D4000EF00707BB7240140938704403E858945BE
:100D5000EF100008B72701409387074065D9138536
:100D60000440EF10600689452A9413850440EF1073
:100D7000C00613850440994605469145EF00307939
:100D8000138504408545EF001077B7240140938711
:100D900004403E858945EF10A003B72701409387A3
:100DA000074065D913850440EF1000022A94894555
:100DB00013850440EF1060028D452285EFF08FB15E
:100DC00089659385D592EFF0EFAE9305803EEFF005
:100DD0006FB0420541816FF04FAD828038216313BF
:100DE000B7081C21894663E0F604850793F7F70FDF
:100DF0001CA18D46639BD7061C318546639ED70098
:100E00002DE73CB1A300050083A741B523040500ED
:100E1000232605005CC18280A9EB6318D70418B1B2
:100E20002304050082801C31A9E3938741B5544116
:100E30009843158F9306301F63F9E602182519E7CA
:100E40009C43054718A55CC538B18280544598433A
:100E5000158F9306300663FAE6009C435CC5854710
:100E60003CB18280230005002CA18280EFF24FA3C9
:100E700051112AC42E8437150140A14532C036C213
:100E80008144EF00507F639084028247B3848700DF
:100E90009247636DF404A14537150140EF00707D62
:100EA00031016FF08FA0894537350140EF10C00642
:100EB0007DD9A24737350140A6978C23EF10400516
:100EC000854537350140EF1020057DD93735014084
:100ED000EF104004824789CB124793F7F40F63F574
:100EE000E7008247A69788A3850471BF89453735F7
:100EF0000140EF1060027DD9814537350140EF1088
:100F00002001854537350140EF1000017DD982472A
:100F100091C737350140EF00F07F88A005041374B6
:100F2000F40F8504B5B7EFF2AF9741118545114530
:100F30003714014002C202C402C6EF00D0769947BE
:100F40004C00130504807C8202C6EF009069854541
:100F50004145EF0050758547930480044C003715D8
:100F600001407C823EC026C6EF00B06721478D4617
:100F700078824C0041473715014036C43AC6EF002D
:100F80005066A14537150140EF00B06E41474C0057
:100F900037150140788202C6EF00B064854513051D
:100FA0000002EF00507082474C00130504407C8221
:100FB00026C6EF0010639307C0074C0013050440DA
:100FC0007C8202C6EF00F061930700087C824C002F
:100FD0009147130504403EC6EF00B06041016FF039
:100FE000CF8CEFF2EF8B511185451305000202C043
:100FF00002C202C4EF00306B8947371401407C8085
:10100000C1473EC48A858947130504403EC2EF00AC
:10101000505D894513050440EF00B06531016FF064
:10102000CF88EFF2EF87371501408945130505405A
:10103000EF0070646FF06F87EFF28F863715014015
:10104000894513050540EF00D0626FF00F86EFF27F
:101050002F8537140140894513050440EF00D06007
:10106000894519C513050440EF00F0606FF0EF8368
:1010700013050440EF00F05FD5BFEFF26F82056506
:1010800001118545410502C002C202C402C602C860
:1010900002CA02CC231E0100EF00F0609307000299
:1010A0007C80E1473EC48A858D47371501403EC2AA
:1010B000EF003053930700048A85371501407C8088
:1010C000EF003052930700087C808A8591473715DE
:1010D00001403EC4EF00F050B70704013EC6B70719
:1010E000000285073ECAC1473ECC6C009D4737359C
:1010F0000140FC8602C8EF00F05C854537350140B1
:10110000EF00705F05616FE05FFAEFE27FF91301B6
:1011100081FD714681454800EFF02F8385473EC031
:101120003EC83ECA230DF100B71700009387C7E6FB
:101130003ED0B71700001307003C9387A7DD8A85D0
:10114000138501B5F8843ED2952E130181026FE01C
:10115000DFF503A501B519C5EFE29FF48545BD296B
:101160006FE0BFF4828003A501B519C5EFE25FF31C
:101170008145AD216FE07FF38280EFE27FF22111A4
:10118000614681450A85EFE05FFC85451305002037
:10119000EF0070513165EF00D04F37240140B707A1
:1011A0000E003EC68A85854713050440230AF100D8
:1011B00002C002C202C402C8EF00D02B9946054605
:1011C000814513050440EF00903485451305044024
:1011D000EF00302F13050440EF00B02F93040440BC
:1011E0002685EF00B02F6DFD130504403724014024
:1011F000EF00502F130404402285EF00502F6DFDA7
:1012000061016FE09FEAEFE2BFE905655111854595
:101210001305058002C002C223140100EF00B0488C
:10122000373401409307F0023EC08A859307E003FC
:10123000130504C03EC223040100EF00904E1305C5
:1012400004C093050002EF0050550546854513057F
:1012500004C0EF007053B7E700E0214723A2E71076
:1012600031016FE09FE4EFE2BFE337350140854590
:10127000130505C0EF00D04F6FE03FE3EFE25FE200
:10128000373501408145130505C0EF00704E6FE012
:10129000DFE1EFE2FFE03724014013050440994607
:1012A00005468145EF00B026130504408545B72467
:1012B0000140EF0050241384044089452285EF004B
:1012C000303165DD13850440EF0010302A848945F4
:1012D00013850440EF0070301387E1B21423938725
:1012E000C1B299E6220482A385471CA36FE0FFDB0D
:1012F0009A231A04131517003A95098522958AA393
:10130000F5B783C7E1B29DC3EFE29FD903D5C1B260
:10131000930540062181931765003385A740120588
:10132000EFE05FDB420541816FE03FD801458280FD
:10133000EFE21FD737150140854513050540EF0043
:101340001032AA84854537150140EF0050312A84B8
:10135000B3359000138501B4EFF05FA8B33580007A
:10136000138501B3EFF09FA76FE03FD4938701B4DB
:10137000B833014501C7A3810700054582809387E3
:1013800001B3B833014501C7A38107000545828039
:1013900003C581B43335A000828003C581B33335E2
:1013A000A000828001A0B707EFBE37E700E0938777
:1013B00007083CC701A0B7F700E023A2070083A7F6
:1013C00041B5850723AAF1B473002030711122C002
:1013D000373401408545130504C0EF00903D19C91D
:1013E0008545130504C0EF00503E83A781B58507EE
:1013F00023ACF1B40244110173002030EFE25FCA64
:101400005C254E06D18EFE05BD8BEE07CD8EDD8EA2
:1014100051114546814713030002B3D5C6008589A3
:1014200099C193C717000506E31966FEC207DD8E52
:10143000054681474143B3D5C600858999C193C705
:1014400017000506E31966FED58F93D687015482EF
:1014500093D60701D48293968700C207C183A183E4
:10146000D58F7C831C493000480002C491469145C9
:101470003AC0829702479C841CA31C851CB39C85A0
:101480003CA331016FE07FC2EFE29FC171110A8777
:10149000B2862E8681459D3711016FE01FC1EFE2B4
:1014A0003FC071110A872E8681468545813F9C8009
:1014B0000881A2075D8D11016FE03FBFEFE25FBEC3
:1014C00094491387C1B514C7B43D7111AE8454A7B4
:1014D000D42D54B7945114CBD45154CB18C1130507
:1014E000401FEF00B033B717014093050008138584
:1014F0000740EF00D016054769C10D669305F0035C
:101500001385C1B551370546DD451385C1B5AD3FDE
:101510001545EF00B030B71701409305000813855B
:101520000740EF00D013094749C99840D44093873A
:10153000C1B598C313F676000D8B16062207518F9E
:101540009D453A866399B6009444D0449D8A8A06A4
:101550000D8A558F598E1376F63FF5451385C1B523
:101560002537B71701409305000813850740EF00A2
:10157000100F0D4739C1922C1387C1B552A35206E3
:101580005182E1451385C1B50137B7170140930575
:10159000000813850740EF00900C114719CDB42CBB
:1015A000014781CED048930530021385C1B50D8A1D
:1015B000136686003AC0C93D02473A8511016FE0C3
:1015C000DFAEEFE2FFAD1D8A9D8912069D8AA2065D
:1015D0004D8E558EF1454D3D6FE03FADEFE25FAC76
:1015E0002E84F545AA8433348000553D1375F5BF2C
:1015F0002A04498C131604014182F5452685693574
:101600006FE0BFAAEFE2DFA905675111AA87328315
:10161000AE8463E4E5008564FD1485621387F2FF00
:10162000F98C139604013E854182E54536C41AC201
:101630003EC0993D1243056785621A8482477D1733
:10164000A246636353003A84337687007D74658CC9
:10165000518C1316040141823E85E94536C23EC0D5
:101660002535924605638247368663E56600056741
:101670007D173A867D775206798C5182418E4206DB
:101680004182ED453E85093531016FE01FA2EFE251
:101690003FA131356FE07FA1EFE29FA0130181FDF3
:1016A0005D29EF0070140545EF00207DEFF0BF8746
:1016B000EFF0BF9CEFF07FACEFF0FFB4EFF0CF8026
:1016C000EFE03FB3EFE0FFFCEFF03FA42AC429C1F5
:1016D000EFE03FB222460008B735000093854593FE
:1016E0002285EF00F077A1473EC20147D147A146CE
:1016F00013060008D145014522C0EFE01FE1EFE0ED
:101700005FF9EFF0DF9413054006EF003011D5BF0D
:1017100003A501B5814521449D3FEFF09FA3EFE074
:101720005FADB7370000938707943EC00147A947D4
:10173000A14613060008A945014522C2EFE0FFDCDF
:10174000B73700009387C794A146130600080147E6
:10175000F94501453EC022C2F947EFE01FDBEFE04B
:101760005FF31305803EEF00700B13054006EF009A
:10177000F00AEFF01F87EFF0DF8A1305800CEF000F
:10178000F009EFF07F8B1305800CEF003009B707ED
:10179000002003A54701B7157A0093850520EFE0E7
:1017A0007F9393175500898F8A07AA9737F700E030
:1017B0008E071CCB232407009D471CC3EFE07FFD51
:1017C000EFF03FAD239A01B6938741B73EC403A41F
:1017D00041B5938741B89843A5463307E44063F782
:1017E000E60080C3EFF0DFB4EFF0AF9A9387C1B8A3
:1017F0009843930610033307E44063FFE60437156C
:101800000140930500081305054080C3892D138707
:1018100041B9631B05181C23850793F7F70F1CA319
:1018200009476379F70003A741B08D476304F700C8
:10183000EFF0CF83EFF0FFAC7D1542058567418166
:10184000938767BB63EAA70083A741B091C70D47A1
:101850006384E700EFF08F81938701B89843930684
:10186000301F3307E44063F5E60080C3EFF07FA24A
:1018700003A741B089476310F702938781B8984363
:101880009306700C3307E44063F6E61280C3EFF072
:101890008FC5A2478AA303A741B08D47631CF710E9
:1018A00083A641B5938781B79843130630063387E3
:1018B000E640637DE60094C39387C1B798239336CF
:1018C000170094A36315070EEFF0AFF5938701B9E6
:1018D0009843930630063307E440E3FAE6EE80C30C
:1018E000EFE03F91EFF0FFA19305803E2A84EFE007
:1018F0003F814205A9454181EFE0CFFD93160501E7
:10190000C1829305803E228536C6EFE0AFFCB24629
:10191000000813160501B7350000418293858595AF
:101920002285EF00F053A1473EC20147814722C004
:10193000A1461306000881450145EFE01FBD03A73E
:1019400041B08D47631DF706B73500009385859636
:101950002285EF007053A1473EC20147D14722C004
:10196000A14613060008D1450145EFE01FBA83A741
:1019700041B00D476390E706B735000093850598A1
:101980002285EF007050A1473EC2014793078002B5
:10199000A1461306000893058002014522C0EFE02E
:1019A000DFB6EFE01FCF25B52300070061B5EFF0EC
:1019B000AFE829BFEFF04FE8EFF02FA201BF938708
:1019C00041B09027B7350000938545972285EF00F9
:1019D000304951B791E7B73500009385C5984DB7A9
:1019E000A2479305803E86232685EFE06FF14205EE
:1019F000A9454181EFE00FEE93160501C1829305E1
:101A0000803E268536C6EFE0EFECB24613160501A0
:101A1000B73500004182938585992285EF005044B7
:101A20009DB7EFE2EFE7371402401C403707FFF89D
:101A3000611193E717001CC05C404145F98F5CC001
:101A40001C403707F7FE7D17F98F1CC01C40370775
:101A5000FCFF7D17F98F1CC05C4041777D17F98F23
:101A60005CC0B7079F001CC421291C4C370602002C
:101A700093E707021CCCB717014003A707409386E2
:101A800007401377F7F023A0E74003A70740136749
:101A9000070823A0E74089479CCA02C002C21C4C29
:101AA00037070140A16693E717001CCC5C43D58F34
:101AB0005CC31C404167B7160240D98F1CC0096740
:101AC0009C42F18F3EC2824785073EC0924781E724
:101AD0008247E397E7FEB71702409C431397E7005E
:101AE0006359070685473EC2124785476310F706CC
:101AF000B72702409843C176FD16719B98C398435F
:101B00001367170098C3B7170240D843D8C3D84308
:101B1000758FD8C3D843C166558FD8C39843B706CD
:101B20000001558F98C3984393166700E3DD06FEC6
:101B3000D843B7160240719BD8C3D8431367270018
:101B4000D8C32147DC42B18BE39EE7FE21016FE061
:101B5000CFD502C251BFEFE2AFD4371702405C438A
:101B6000370400209146B18B130444016385D700EC
:101B7000A1466382D704B7376E01938707601CC004
:101B8000B7160240DC420840918313F7F700B7070D
:101B9000002093874700BA978C23DC4293F5F50F1A
:101BA00093F707083357B50081E7EFE0AFD22A87F4
:101BB00018C06FE08FCF5C43B777DC02938707C014
:101BC0007DBF01A097F1FF1F938141C5138181FE65
:101BD0001305000A97E5FF1F9385C54217E6FF1F0F
:101BE0001306464263FAC5008322050023A0550070
:101BF00011059105E3EAC5FE17150000130585DB05
:101C000097E5FF1F9385054017E6FF1F1306064162
:101C100063FAC5008322050023A055001105910534
:101C2000E3EAC5FE17E5FF1F1305453F938501BA9B
:101C30006377B500232005001105E36DB5FEB722DB
:101C4000000093820288739002308D42739042802C
:101C500097E2FFFF9382023B93E23200739052308F
:101C6000EFF03FDC97020000938242A3739012349E
:101C7000730020305C413707F1FF1307F7EF7D8FCA
:101C8000DC419441A207D58FD98F5CC11C4537F741
:101C9000F1FF1307D77FD4457D8F9C49D58F94459D
:101CA0008606D58FD98F1CC55C55370710FF7D1769
:101CB0007D8FDC29FD1793F7F70FD207D98F5CD5FD
:101CC00082801C4589C593E717001CC58280F99B5B
:101CD000EDBF1C4593E787001CC5828008450D8138
:101CE000058982801C4593E747001CC58280084512
:101CF0000981058982801C4591C537075000D98F1D
:101D00001CC582803707B0FF7D17F98FD5BFA54767
:101D100063F8B704138765FF931717008322C50084
:101D2000BA971D433313F3001343F3FF3373530088
:101D3000B397F600B3E767005CC5994763E3C70450
:101D40007D16931726003E965859FD47B397C70056
:101D500093C7F7FFF98FB395C500DD8D4CD982800D
:101D60009397150003230501AE971D473317F7001E
:101D70001347F7FF33776700B397F6005D8F18C9F5
:101D80006DBFB14763E2C7026516931726003E9602
:101D90001859FD47B397C70093C7F7FFF98FB3955D
:101DA000C500DD8D0CD982804D16131726005455C1
:101DB0003A96FD47B397C70093C7F7FFF58FB395E2
:101DC000C500DD8D4CD58280684542054181828009
:101DD00008416D8D3335A000828093C5F5FF0CC19D
:101DE0008280944593F7060193F2F60081C7DC41A7
:101DF000B3E2F20083D3050093F7F30FA5C30323E7
:101E00000500611122C226C0814713048002930499
:101E1000800405473316F70033F7C3006312E60268
:101E2000939527003D473317B7001347F7FF3373E8
:101E30006700B395B20033E36500639D860050C927
:101E400085072147E397E7FC12442320650082447D
:101E500021018280E39696FE10C9DDB78280084595
:101E60006D8D3335A000828048456D8D3335A000DF
:101E700082800CC982804CC9828023ACA1B8828048
:101E8000371702401C430E0593F777F05D8D08C3AA
:101E90008280B7160240DC4241771307F77FF98F43
:101EA0005D8DC8C2828099C5371702401C4F5D8D79
:101EB00008CF8280B7170240984F1345F5FF798D00
:101EC00088CF82801A218D6793870704B6217D8F82
:101ED0009E21D58FD621D58FF621D58F9625D58FEA
:101EE000B625D58FD625D58FF625D58FD98F1EA1AE
:101EF0009E291EA982801E2189C593E707041EA181
:101F00008280C207C18393F7F7FBC207C183C5BFB5
:101F10004EA582804A2582800A256D8D3335A0002A
:101F200082801E2137370140130707C0C207C183D3
:101F30006306E500370700406316E500BA2193F712
:101F4000F7F8D98FFA2193F7F7CFC207C183D98F5A
:101F50001EA1DE215EB59E211EB5B73701409387D5
:101F600007C06314F5009C251EB985475EA98280D1
:101F70001E2189C593E717001EA18280C207C18375
:101F8000F99BC207C183CDBF5E2501C6DD8D4EA57D
:101F9000828093C5F5FFFD8DDDBF5E21C207C18341
:101FA00093F7F7F8C207C1835EA15E21DD8D4EA1D4
:101FB00082801E294A25ED8F4205418189C76D8D9A
:101FC0003335A00082800145828093C5F5FFC205AC
:101FD000C1810EA9828093F5F51F4EA182800A214E
:101FE0006D8D3335A0008280EFE28F8BB707002024
:101FF00003A54701B7157A0093850520EFE08F8D83
:102000001375F50F238FA1B893175500898F8A0791
:102010003E950E05239EA1B86FE02F89EFE24F8811
:1020200037F400E05C40AA85F99B5CC003D5C1B9D8
:10203000EFE04F8808C8232404001C4093E71700F2
:102040001CC0B7F700E0D843058B75DF9843799B38
:1020500098C36FE08F85EFE2AF847111AE840144C5
:10206000635FC402B7470140138707803A85930531
:10207000000432C0EFF0BFF6B74701401387078076
:1020800002466DD5338784008305070013850780DA
:102090000504C205C181EFF01FF40246D1B73285B5
:1020A00011016FE08F80411106C62EC00DCD184181
:1020B000AA8705C358417D5511CB8546631BD700C0
:1020C00098472300070023A207000545B2404101BD
:1020D00082809847824614A39847050798C7D8433B
:1020E0007D17D8C3DDB705468A85EFF0DFF6F1BF6F
:1020F000011122CC2EC206CE26CA2A84814793051E
:102100000002634506029245BE95838505008DE574
:1021100063D8C70263D4E702198E1305000293F552
:1021200026002AC089C501E7930500032EC0858AD1
:1021300081449DEAB28415A08507F1B71D8EF1BFD9
:102140000146E1BF824522853AC832C63EC4EFF05F
:102150009FF5A24732464247FD14E34590FEB28404
:10216000635306008144058E63C7E702A687924643
:10217000338797403697830507009DEDB284634609
:102180009004635306000146F2406244D244330592
:10219000F600056182801D8FBA87930500032285B2
:1021A00032C83EC63AC4EFF01FF0B247224742465B
:1021B000FD17E5F7BA945DBF228532C63EC4EFF045
:1021C0009FEEA247324685075DB78245228532C41D
:1021D0003EC2EFF05FEDFD14224692474DB73971D4
:1021E00006DE22DC26DA3EC232833A8691ED924642
:1021F0009307000301476C08FC86EFF07FEFF25075
:102200006254D25421618280AA843684AE8791CAF6
:10221000294701446317E30063D50500B307B040C5
:1022200005448646A309010213073103938666FC21
:1022300036C49A853E8532CA3AC81AC63EC0EFD027
:102240003FECA546824732434247524663D4A6003C
:10225000A2463695130505039306F7FFA30FA7FEC5
:102260009A853E8532CC3ACA1AC83EC636C0EFD0EF
:102270007FE6B24742435247624663FD670409CC9A
:1022800029CE9247898BB1CB9305D002268532C4E3
:10229000EFF07FE122467D169247918B85C7064776
:1022A0009307100632C49305000326856311F704D3
:1022B000EFF07FDF930580072685EFF0DFDE224613
:1022C000090479161647924682452685EFF05FE2AB
:1022D000229535B7AA870247A9BF82469307D00245
:1022E0000144A38FF6FE9307E7FF3EC075B7EFF0FA
:1022F0009FDB93058005C9B7014582800145828037
:10230000130181FD22D026CE06D22AC4AE823284A9
:1023100002C681448385020091EDA24789C78145A9
:102320003E85EFF05FD8925002542685F2441301A7
:1023300081028280930750026389F500224516C806
:102340008504EFF05FD6C24205A083871200138791
:102350001200639DB7002245930550023AC8EFF082
:102360009FD442478504BA8285026DB7DDD79306B4
:10237000B0026389D70463C8F6009306300263860F
:10238000D704814705A09306D002638AD70093063D
:102390000003E398D7FE13872200894721A0138703
:1023A00022008547830607001306B0026383C60434
:1023B0006341D60213063002638BC602BA8201451E
:1023C000A54681A0138722006DBF13872200914785
:1023D000D1BF1306D0026389C60013060003E39F32
:1023E000C6FC93E7270031A005078547C1BF93E7E7
:1023F00047000507E1B713162500329506053A9503
:10240000850203860200130706FD9375F70FE3F4B8
:10241000B6FE1307E0029946631EE6008502814678
:10242000A54503860200130606FD1377F60F63F534
:10243000E50236C6038702001306A006630DC70A2D
:102440006343E6021306C0046307C70A1306800647
:10245000630CC70881452DA813972600BA968606F7
:10246000B29685027DBF130640076306C7081306B0
:10247000A0076302C7081306C0068145631AC70098
:10248000038612008D456314E6008502914585029E
:1024900003860200930300061307100663C4C300FB
:1024A000130710049303700663C4C3069303500616
:1024B000635676189303700463C1C30493055004F4
:1024C000635EB61613073004E310E6EA1840930380
:1024D000440016CA230CE1001EC8A30C01000147EA
:1024E000BE862A862C0849A8038612008145E3117E
:1024F000E6FA890271BF8502B1BF93063006E30791
:10250000D6FC63CFC606930680056303D602A9BD39
:10251000930630076304D60463CBC6029306F00625
:102520006305D60E9306000793E74700E31ED6E245
:1025300091466392D50C930384000C40504016CA18
:102540003AC23EC01EC8AA870147C14681A8930669
:102550005007630BD6069306800745BF1840B73671
:102560000000930344009385869A11C3BA853247CD
:1025700016CA1EC8BE862A862245EFF07FB715A070
:1025800091466395D502930384000C40504016CACF
:102590003AC23EC01EC8AA870547A9462245EFF0A9
:1025A000BFD5C243AA941E84D2427DBBB2460C4022
:1025B00016C836C23AC011042A87854629462245E4
:1025C000EFF0FFC1AA9441B39146639DD5009303F8
:1025D00084000C40504016CA3AC23EC01EC8AA87AA
:1025E000014765BFB2460C4016C836C23AC0110456
:1025F0002A878146E1B7B24616C80C40414636C22A
:102600003AC011042A8781465DBF9146639ED5007A
:10261000930384000C40504016CA3AC23EC01EC804
:10262000AA870147A1469DBFB2460C4016C836C2D4
:102630003AC011042A878146214651B70C4013063F
:10264000840040403AC22A87224532C83EC02286D2
:10265000B687A94616CAEFF07FCAAA944244A9B722
:10266000130141FD32CE3ED42AC67008FD57480002
:1026700006CC36D03AD202C23EC432C0EFF05FC8B8
:10268000E2401301C1028280AA879821850785054F
:10269000A38FE7FE7DFB82800000000000000000A9
:1026A000002F000000000700070000147F147F14B3
:1026B00000242A7F2A120023130864620036495539
:1026C000225000000007000000001C224100000012
:1026D00041221C000014083E08140008083E0808A7
:1026E000000000A060000008080808080000606002
:1026F0000000002010080402003E5149453E000041
:10270000427F4000004261514946002141454B3122
:10271000001814127F10002745454539003C4A49EE
:102720004930000171090503003649494936000660
:102730004949291E000036360000000056360000C8
:102740000008142241000014141414140000412243
:102750001408000201510906003E4955592E007C1B
:102760001211127C007F49494936003E4141412205
:10277000007F4141221C007F49494941007F0909EE
:102780000901003E4149497A007F0808087F00009E
:10279000417F4100002040413F01007F0814224159
:1027A000007F40404040007F020C027F007F040811
:1027B000107F003E4141413E007F09090906003E6D
:1027C0004151215E007F0919294600464949493196
:1027D0000001017F0101003F4040403F001F2040B9
:1027E000201F003F4038403F006314081463000777
:1027F0000870080700615149454300007F414100CE
:10280000000204081020000041417F000004020182
:10281000020400404040404000000102040000204B
:1028200054545478007F4844443800384444442089
:1028300000384444487F00385454541800087E0936
:1028400001020018A4A4A47C007F080404780000FE
:10285000447D4000004080847D00007F10284400BB
:102860000000417F4000007C04180478007C0804CC
:10287000047800384444443800FC24242418001808
:10288000242418FC007C08040408004854545420F4
:1028900000043F444020003C4040207C001C20407D
:1028A000201C003C4030403C004428102844001CC0
:1028B000A0A0A07C004464544C440000087F410068
:1028C0000000007F00000000417F080000080408AD
:1028D00010080000060000000000000001000000D9
:1028E00007010000000000000600000001000000D9
:1028F00005000000010000000600000000000000CC
:1029000005010000010000000000000006000000BA
:1029100006000000000000000100000006000000AA
:102920000601000006000000010000000000000099
:1029300007000000445256204552522025640000F2
:10294000424C44432046414E0000000041494F2084
:1029500076312E30000000004241543A25642E2585
:1029600030326456000000004455543A4641554CFC
:10297000540000004455543A2533642525000000D6
:102980004355523A4641554C542100004355523A62
:1029900049444C45000000004355523A25642E2519
:1029A0003032644100000000286E756C6C29000014
:1029B00001000000010203040506070801020304E8
:0829C00005060708006CDC02AB
:00000001FF
