:100000006F200035000000008E1C0000921C0000D4
:1000100000000000000000000000000000000000E0
:1000200000000000000000000000000000000000D0
:100030001A1A000000000000202300000000000049
:100040002223000024230000262300002823000090
:10005000B81A00002C2300002E23000030230000DB
:100060003223000034230000362300003823000030
:100070003A2300003C2300003E2300004023000000
:1000800042230000442300004623000048230000D0
:100090004A2300004C2300004E2300000000000013
:1000A0003D432A876373C3029377F700BDEFADE545
:1000B000937606FF3D8ABA960CC34CC30CC74CC757
:1000C0004107E36BD7FE11E28280B306C3408A0684
:1000D0009702000096966780A6002307B700A30644
:1000E000B7002306B700A305B7002305B700A30494
:1000F000B7002304B700A303B7002303B700A3028C
:10010000B7002302B700A301B7002301B700A30083
:10011000B7002300B700828093F5F50F9396850012
:10012000D58D93960501D58D61B7939627009702DB
:10013000000096968682E78086FA9680C1171D8F0A
:100140003E96E374C3F8A5B7511126C022C206C477
:10015000828282441244A240310182802A86014573
:1001600093F6150091C2329585810606F5F98280D5
:1001700000000000634E050263C305042E86AA85B5
:100180007D5515C285466378B6006356C0000606E5
:100190008606E36CB6FE014563E4C500918D558D7E
:1001A00085820582F5FA82808682C93F2E85828209
:1001B0003305A04063D70500B305B040C1B7B30510
:1001C000B0408682653F3305A0408282868263C745
:1001D0000500634905005D372E858282B305B04076
:1001E000E35B05FE3305A040513F3305B0408282FA
:1001F0000000EFF27FF5EF2080519307F03F63D7C7
:10020000A7001305F03F42054181A1B7E35D05FE5C
:100210000145D5BFEFF25FF303A4C182111193052D
:10022000803E2285513793054006893F2AC49305B5
:10023000803E2285A1372247600037360000AA861B
:10024000130606F0C1452285EF10C04FA14426C217
:1002500022C0130700028147930680021306800420
:1002600081450145EF00100B83D6C1813733000073
:100270001306C3F0C1452285EF10C04C13070002DE
:1002800026C222C0C147930680021306800481451E
:100290000145EF003008B707002083D6070A37333F
:1002A00000001306C3F0C1452285EF10A049930753
:1002B000000226C222C01307000293068002130622
:1002C000800481450145EF00F004EF00302071010A
:1002D00049B5EFF27FE7212BEF00501F9DBDEFF2F4
:1002E000BFE6EF20C05423ACA1808945138501826D
:1002F000EF00F0699307F00F6317F500938581878E
:1003000013854182DD219305A03713850182EF001B
:10031000703681B5EFF25FE3EF20605183A78181F2
:100320001D8D85679387378363F7A7009385818643
:10033000138541825D2931BDEFF21FE161118545D1
:100340001305700CEF202045B70700201307A037D6
:100350009305A037138501822390E70AEF009031BF
:100360007921A1473EC2B7370000938787F23EC08C
:100370000147E54793068002130680048145014545
:10038000EF004079EF0090142101E1B3EFF2DFDBE1
:10039000611181451305700CEF20E03FB707002085
:1003A0001307803E9305803E138501822390E70A60
:1003B000EF00502C2D29B73700002144938707F117
:1003C00022C23EC001478147930680021306800483
:1003D00081450145EF000074B7370000938787F12E
:1003E00022C23EC00147C147930680021306800423
:1003F00081450145EF000072B7370000938707F28F
:1004000022C23EC0014793070002930680021306F2
:10041000800481450145EF00E06FEF00300B2101C2
:100420000DBBEFF27FD2AE87AA853E85813B9375E7
:1004300015001305700CEF20003621BBEFF2DFD062
:100440009305A03713850182EF00D022EF20203ED4
:10045000AA8513050005F137EDB9EFF2FFCE611162
:100460001305000C79339384C1818AA0EF20203CCE
:100470002A848A201307007D9306803E1306F03FEE
:1004800081450581EF106050370700208357070A28
:10049000420541811307070A63FEA7048907C207C3
:1004A000C1836360F5061EA30E2313850182EF004E
:1004B000701CA2851305C012AD37EF20403793059D
:1004C000803EDD319307301F63EFA702A1473EC294
:1004D000B7370000938747F33EC0130700048147F6
:1004E00093068002130680048145014525251D33AE
:1004F000210185B1E37AF5FAF117C207C183E3F46C
:10050000A7FA0AA355B7A1473EC2B73700009387A1
:1005100087F3D9B7EFF25FC37111EF2040312AC0E2
:100520001305000CF931239EA180A947824563EA97
:10053000A702B70700201307803E9305803E13856E
:1005400001822390E70AEF00F01281451305700C39
:10055000EF206024938581841385418279241101E1
:10056000CDBE13056009753D9305A0371385018243
:10057000EF005010EDB7EFF23FBD1305600C953959
:1005800037360B001306867181468145EF20B01087
:100590003166130616BD8146EF20C04023A6A18216
:1005A0008567138787BB636CA70493858187138551
:1005B0004182252C1305000C2D391307007D93066D
:1005C000803E1306F03F8145239EA180EF10E03B63
:1005D000370700208357070A420541811307070A9E
:1005E00063F8A7048907C207C183636AF5041EA3E1
:1005F0000E2313850182EF00F007293999BE138776
:1006000047CE6365A7009385818855B71387E70FA9
:10061000E372A7FA93870777E3F9A7F88967138747
:100620004796E372A7FE9387C71FE3F5A7F8B5BF08
:10063000E370F5FCF117C207C183E3FAA7FA0AA336
:1006400045BFEFF27FB037370000938781851307EE
:10065000C7F398C3370700001307E72DD8C3370740
:1006600000001307473198C7370700001307272DED
:10067000D8C73737000093878186130787F498C35C
:100680003707000013078733D8C337070000130765
:10069000475198C723A60700373700009387818406
:1006A000130787F598C3370700001307C738D8C367
:1006B000370700001307675798C723A60700373787
:1006C000000093878188130747F698C33707000017
:1006D0001307A74598C723A2070023A607003737AB
:1006E000000093878187130747F798C337070000F7
:1006F00061111307C74398C723A2070023A6070069
:10070000112513052003EF00206FA1473EC2B73724
:100710000000938707F8254793068002130680049C
:1007200081453EC00145E547F5264D2313054006AA
:10073000EF20A01081451305000CEF10907D85453A
:100740001305700CEF10F07C85451305700CEF203D
:10075000800481451305600CEF10B07B9385818583
:1007600013854182352821016FF0BF9EEFF2DF9D96
:100770001385418291202945EF20200C6FF07F9D49
:10078000EFF29F9C13850182EF00806B13854182FD
:1007900019206FF01F9C2320050023220500828072
:1007A0000CC12322050081C9DC4191C7EFF2DF991A
:1007B00082976FF01F9A8280EFF21F995C412A8422
:1007C00091CF1C4181C7DC4791C382975C402322B3
:1007D00004001CC081C7DC4391C382971C4081C7C1
:1007E0009C4791C382976FF0DF964CC18280EFF2F5
:1007F000BF95370500201306801681451305851324
:10080000EFF01F8A6FF0FF946359C00C6357D00C50
:100810002A8363530500014342032A969307800409
:100820001353034163D4C700130680044206418674
:100830006355C30AAE8763D305008147C207B695E7
:1008400013078002C1876354B70093058002939613
:100850000501C18663D3D70851119382F6FFB30611
:10086000D0409305F00F26C29D8A93D437409D8BCC
:10087000B397F500B7030020B3D5D54022C493D277
:1008800032403EC093F5F50F26879383831363D6DA
:10089000E20022449244310182809306F00F639378
:1008A000E400824693F6F60F6393E200ED8E931711
:1008B0003700BA978E079A979E971A8593C6F6FFC8
:1008C000802305054205758C80A341858507E319C2
:1008D000A6FE0507420741875DBF8280EFF2DF86F3
:1008E0001301C1FD0313010383124103630C0318B9
:1008F000638A021863080618638606189303700457
:1009000063C2E31863C0A3189303700263CCF316A9
:1009100063CAB3163A846353A7002A844204B3031C
:10092000C500B3046700418463D7930C7D152A96F4
:1009300042063385D500B383570041866351750C59
:100940001385F5FFAA96C20693037004C18632850B
:1009500063D4C3001305700413160501418632C029
:1009600063428612BE8463D3B700AE84C20413060A
:100970007002C184B6856354D600930570029396C5
:100980000501C18616C61AC436C263CD960E3ECE88
:1009900082470546B3069640018E3E96AE96C20645
:1009A00042064186C186A68522853ACCB13DB24237
:1009B00022430146FD1293D7F2419D8BBE9293D7FD
:1009C00032403EC8B7070020938787133ECAC2470C
:1009D00063CAC70A7247931736009A85BA9793F786
:1009E000F70F32851AD032C63EC4EFF02FF781469A
:1009F000324602531DA01306F7FF1A9615BF9386C1
:100A0000F7FF969689B7E247B382F60093F2F20FAA
:100A100063DB8200850693F6F60FE3C666FE0506E5
:100A20001376F60F6DB78247E3C657FE6257B3875A
:100A3000A6008145BA973EC6A247AE9793F7F70F37
:100A400063CD97021247634AF702324718233357A0
:100A5000B740058B1DC393D33700139733001E9700
:100A6000D2430E079D8B1E9716978543B397F300CD
:100A700083430700B3E777001CA38505A147E39DE7
:100A8000F5FA49BF130141026FF0AFECEFF2CFEB83
:100A90001301C1FD034441032AC82ECA22C6030420
:100AA000010336CC3ACE130304FE1374F30FA28273
:100AB0001304E00563685404B2403ED0A143B284FD
:100AC000BA82368463947004931313009A939390BC
:100AD000130032438D63938383F8869399401EC439
:100AE0001AC206C01ECCDD3BE243F24221479947C1
:100AF0003EC0D245825742453AC21EC41687A286DE
:100B00002686E93B130141026FF0AFE401478147BC
:100B10008143F9BFEFF24FE3130181FD834381036A
:100B20003A832AC62EC832CA36CC2147BE84D25256
:100B300099476383E30081473EC4938723001A8467
:100B40003ECE8387020089E7130181026FF06FE0D8
:100B500029476399E700F24785021A84BE94C204CC
:100B6000C184C5B7E3CF07FCE2465246C2453245D1
:100B70001EC23EC02287A68716DA1AD21ED0393787
:100B8000A247D25212533E944204418485028253BA
:100B90004DBFEFF26FDB894537150140EF10600262
:100BA000914537150140EF10C001894537150140C7
:100BB000EF106001914537150140EF10C0006FF054
:100BC0004FD9EFF26FD8894537150140EF00B07F5C
:100BD000914537150140EF00D07E8945371501401A
:100BE000EF00307E6FF0EFD6EFF20FD6AA842144EB
:100BF00093978401E18789453715014063D1070444
:100C0000EF00307C914537150140EF00907B7D145B
:100C100091453715014086041374F40FEF00B07A44
:100C200093F4F40F71F4914537150140EF0070799A
:100C3000914537150140EF0010796FF08FD1EF002B
:100C40009078C9B7EFF24FD0AE842A849937130554
:100C50008007593F13050004413FB707002083C7B1
:100C6000270AA2948DC363159400A13F6FF06FCE45
:100C700008200504953FC5BF082005041345F5FF6E
:100C80001375F50F9537E31994FEC5B7EFF2CFCB87
:100C90002A84013713058007813F0145B13722853A
:100CA000A13705376FF0EFCAEFF20FCAF1051365F0
:100CB000050B13F4F50FD93F1355440013650501D7
:100CC000F1371375F400D9376FF0AFC8EFF2CFC723
:100CD0002388018293848189014422858145E937F3
:100CE000268593058004B93F05041374F40F154756
:100CF0009384840493870183E311E4FE054798A35A
:100D00006FF02FC5EFF24FC4511113054006EF10DD
:100D1000D0328545414502C002C202C4EF104001F5
:100D200099477C80D1473EC48A858D47371501405D
:100D30003EC2EF00B05B914537150140EF0070688F
:100D4000894537150140EF00D0671305E00A3D3FA4
:100D50001305500D253F1305000F0D3F1305800AA5
:100D60003537130570021D371305300D0537014562
:100D7000313F13050004193F1305D008013F5145C9
:100D80003137130500021937094509371305100AD1
:100D9000F53D1305800CDD3D1305A00DC53D49450E
:100DA000F5351305D00ADD3513050003C5351305E8
:100DB0001008E93D1305F00FD13D1305900DF935ED
:100DC00013052002E1351305B00DC93513050002E6
:100DD000753D1305400A5D3D1305600A453D3145EB
:100DE000753545456535EFF09FA0CD351305F00A03
:100DF000713D31016FF0EFB5EFF20FB50144634380
:100E000005002A8413051008513513170401418782
:100E10009307F00F63D4E7001304F00F1375F40F7A
:100E2000B5356FF00FB3814711C905478547630793
:100E3000E500094781476313E50089473E858280C5
:100E4000138711831C23AD4663E3F60293861700D4
:100E500014A31CA113973700938701A0BA97130717
:100E6000C05DD8C39823137707F898A38280FD57F5
:100E70001CA1828018219307F00F630CF70A9316C8
:100E80003700938701A0B6979C43138701A09983ED
:100E9000858BC5C3EFF24FAB03061500930780089F
:100EA000918F8A0763CBF500030625009307802501
:100EB000918F8A0763D3F500AE87369714435CC3DE
:100EC000BE840567C207C1831307479C93F6F603E8
:100ED0006373F700BA8493970401C1831307401F1B
:100EE00063F4E7009304401F13940401418091EAE6
:100EF000A28537050040EF10C000239491806FF069
:100F00004FA58547639AF600A28537050040EF009C
:100F1000907F23958180E5B78947E392F6FE3735C8
:100F20000140A285130505C0EF00F07D2396818066
:100F3000F9B78280EFF24FA104211307F00F397146
:100F40006386E418894763E1B7242A842E8536CA6C
:100F500032C82EC0C93D93874180AA979C2313872E
:100F600041803AC42AC21307F00F6384E700639DEF
:100F7000F420938701A093963400B6978843138793
:100F800001A03AC693576500858B91CF1375F50381
:100F9000894763EAA700413DA2473E951C2163941F
:100FA0009700FD571CA1024789476305F7129387F5
:100FB000318398234DEF054785451305000298A31B
:100FC000EF00105785450545EF007058930700095D
:100FD0002312F10237150140E1473ED64C108D47F0
:100FE000130505403ED423130102EF00303095670E
:100FF0009387F7E1FC862C089307F0023705004041
:10100000FC84231D0100231F010023100102EF00B7
:10101000F055C1679387070602DA3ED80C1893078C
:10102000C05D37050040231BF10202DC02DEEF0049
:10103000D058A14537050040EF00706A0C183705FD
:101040000040EF00305EA14537050040EF00106A18
:10105000854537050040EF00F066854537050040BF
:10106000EF001066854537050040EF009062C247EB
:10107000130600228566B307F64013D6F7410D8AA2
:101080003E96D247938606960986B387F64093D656
:10109000F7418D8ABE96898634A01420B24710B0DD
:1010A000139736003E970C238247228593F505FC63
:1010B00093F7F703DD8D93E505040CA3A2471247D0
:1010C0009305C05DBA9794A37533042026852161EA
:1010D0006FF02F8893872183982351FB054785451F
:1010E000414598A3EF00D04405658545130505806B
:1010F000EF001044C1472312F102E1473ED64C10E5
:101100008D47371501403ED423130102EF00101E16
:101110009567B73401409387F7E1FC862C08930765
:10112000F002138504C0FC84231D0100231F01006D
:1011300023100102EF009043C1679387070602DA8C
:101140003ED80C189307C05D138504C0231BF10221
:1011500002DC02DEEF00104DA145138504C0EF0054
:10116000F0588545138504C0EF00D055854513859B
:1011700004C0EF00F0548545138504C0EF00F05221
:101180008545138504C0D5B59304F00F81B7EFE210
:10119000BFFB85669386069613060022613B6FE0CF
:1011A0005FFB411106C62EC00DCD1841AA8705C3AD
:1011B00058417D5511CB8546631BD70098472300C6
:1011C000070023A207000545B240410182809847ED
:1011D000824614A39847050798C7D8437D17D8C3FC
:1011E000DDB705468A85F92DF9BF011122CC2EC243
:1011F00006CE26CA2A84814793050002634506026B
:101200009245BE95838505008DE563D8C70263D4FA
:10121000E702198E1305000293F526002AC089C53E
:1012200001E7930500032EC0858A814495EAB284C4
:101230000DA08507F1B71D8EF1BF0146E1BF8245C4
:1012400022853AC832C63EC4A93FA2473246424729
:10125000FD14E34690FEB284635306008144058E7C
:1012600063C7E702A6879246338797403697830580
:10127000070095EDB2846344900463530600014671
:10128000F2406244D2443305F600056182801D8F2E
:10129000BA8793050003228532C83EC63AC4113787
:1012A000B24722474246FD17EDF7BA9465BF228543
:1012B00032C63EC4FD35A247324685076DB782452A
:1012C000228532C43EC2F13DFD142246924765B7E5
:1012D000397106DE22DC26DA3EC232833A8689ED97
:1012E00092469307000301476C08FC86FD3DF250CF
:1012F0006254D25421618280AA843684AE8791CA16
:10130000294701446317E30063D50500B307B040E4
:1013100005448646A309010213073103938666FC40
:1013200036C49A853E8532CA3AC81AC63EC0EFE036
:10133000BFE7A546824732434247524663D4A600E0
:10134000A2463695130505039306F7FFA30FA7FEE4
:101350009A853E8532CC3ACA1AC83EC636C0EFE0FE
:10136000FFE1B24742435247624663F9670401CC4A
:1013700029CA9247898BB1C79305D002268532C40A
:101380000D3522467D169247918B95C306479307EC
:10139000100632C4930500032685631EF70211353B
:1013A000930580072685F53B2246090479161647E2
:1013B000924682452685153D229515BFAA8702478C
:1013C0008DB782469307D0020144A38FF6FE9307A0
:1013D000E7FF3EC04DBFF13393058005E1B70145FE
:1013E000828001458280130181FD22D026CE06D263
:1013F0002AC4AE82328402C681448385020089ED0C
:10140000A24781C781453E85693B9250025426859B
:10141000F244130181028280930750026389F50030
:10142000224516C88504EFF0DFD7C24205A08387A6
:10143000120013871200639DB700224593055002E6
:101440003AC8EFF01FD642478504BA82850275B7C5
:10145000C5DB9306B0026389D70463C8F600930620
:1014600030026386D704814705A09306D002638AC1
:10147000D70093060003E398D7FE1387220089471D
:1014800021A0138722008547830607001306B002B8
:101490006383C6046341D60213063002638BC6021F
:1014A000BA820145A54681A0138722006DBF13872C
:1014B00022009147D1BF1306D0026389C6001306EC
:1014C0000003E39FC6FC93E7270031A0050785478B
:1014D000C1BF93E747000507E1B713162500329512
:1014E00006053A95850203860200130706FD9375EB
:1014F000F70FE3F4B6FE1307E0029946631EE60019
:1015000085028146A54503860200130606FD137772
:10151000F60F63F5E50236C6038702001306A00640
:10152000630DC70A6343E6021306C0046307C70AD4
:1015300013068006630CC70881452DA81397260063
:10154000BA968606B29685027DBF130640076306EB
:10155000C7081306A0076302C7081306C006814523
:10156000631AC700038612008D456314E6008502E6
:1015700091458502038602009303000613071006B7
:1015800063C4C300130710049303700663C4C30647
:1015900093035006635676189303700463C1C30423
:1015A00093055004635EB61613073004E310E6EAB1
:1015B00018409303440016CA230CE1001EC8A30C74
:1015C00001000147BE862A862C0849A8038612001E
:1015D0008145E311E6FA890271BF8502B1BF930626
:1015E0003006E307D6FC63CFC60693068005630387
:1015F000D602A9BD930630076304D60463CBC602A6
:101600009306F0066305D60E9306000793E747009E
:10161000E31ED6E291466392D50C930384000C40FE
:10162000504016CA3AC23EC01EC8AA870147C146EA
:1016300081A893065007630BD6069306800745BF23
:101640001840B7360000930344009385C62811C3A1
:10165000BA85324716CA1EC8BE862A862245EFF0D2
:10166000DFB815A091466395D502930384000C4022
:10167000504016CA3AC23EC01EC8AA870547A946AE
:101680002245EFF0DFD5C243AA941E84D2427DBB2F
:10169000B2460C4016C836C23AC011042A878546A5
:1016A00029462245EFF0DFC2AA9441B39146639DDB
:1016B000D500930384000C40504016CA3AC23EC085
:1016C0001EC8AA87014765BFB2460C4016C836C27D
:1016D0003AC011042A878146E1B7B24616C80C40C9
:1016E000414636C23AC011042A8781465DBF914601
:1016F000639ED500930384000C40504016CA3AC242
:101700003EC01EC8AA870147A1469DBFB2460C40F5
:1017100016C836C23AC011042A878146214651B7FD
:101720000C401306840040403AC22A87224532C842
:101730003EC02286B687A94616CAEFF09FCAAA9471
:101740004244A9B7130181FD32833ED22EC42AC67A
:101750007008854748009A8506CC36CE3AD03EC2FE
:1017600032C0EFF05FC8E240130181028280014580
:10177000828082807D558280EFE21F9D1C41711125
:10178000CC81DC43930531000546829711016FE05F
:101790005F9CEFE27F9B7111930531004105EF00E3
:1017A000907209E5888111016FE0BF9A7D55E5BF10
:1017B000EFE29F992E85B285EF0050606FE07F9930
:1017C00013F7F50FC54763EDE7008D67938747244F
:1017D0000A073E9793F705700C43CD8F5CD5828046
:1017E00093F6050C1306000CFD57E399C6FE93060D
:1017F000700CE3E5E6FE93F7F5030D671307472248
:101800008A07BA979C430D67130747248A07BA973C
:1018100093F505709C43D1B713F7F50FC54763EDFA
:10182000E7008D67938747240A073E9793F7057073
:101830000C43CD8F1CD5828093F6050C1306000C4B
:10184000FD57E399C6FE9306700CE3E5E6FE93F7B9
:10185000F5030D67130747228A07BA979C430D6764
:10186000130747248A07BA9793F505709C43D1B7AD
:10187000EFE29F8D9307803E1CC58D679387C72934
:101880001CC10CC9232205009305600C2A840D3F5E
:101890009305500C2285493758541C546314F700A3
:1018A000FD575CD4FD571CD85CD86FE09F8AEFE2EF
:1018B000BF89B745014093850580138501A64D3F3B
:1018C0006FE03F89EFE25F88328419C9AE87634CCD
:1018D000050009476349A700B2853E85EF00104E19
:1018E00022856FE01F8718412286BE8558430297E4
:1018F000C5BFEFE27F852A84EF00707348C41C40A7
:101900002285DC4B8297635A0500EF0050725C44DD
:101910001D8D1C44E365F5FE7D556FE09F83EFE26E
:10192000BF826111AA8401442EC232C0630DC4007B
:101930002685C1376349050092450246B387850075
:1019400088A30504D5B7228521016FE09F80EFE2CF
:10195000AFFF5111014495C6B684AA8701443E8564
:1019600032C42EC23EC07137634D05009245630AF2
:10197000B500224682473307860008A30504E3909A
:1019800084FE228531016FE0CFFCEFE2EFFB2E8475
:101990006111B305D740018D36C032C2EFE00FFCB4
:1019A0001246B3058640EFE0EFFC824621013695F2
:1019B0006FE02FFAEFE24FF9E1206FE08FF9EFE2ED
:1019C000AFF885476301F50219C589476303F5023E
:1019D00001456FE00FF811458545992E37150140F7
:1019E00013050580FDB7414585459926371501400A
:1019F000CDB7130500028545252E37150140130587
:101A00000540C1BF03A5818383A5C18382808280F5
:101A1000EFE28FF3C53F6FE0CFF39387818303A39A
:101A2000070083A34700130713003335670098C3EB
:101A3000B3067500D4C3E13FB7F700E023A2070067
:101A400073002030EFE24FF037F400E0232204006F
:101A5000232004002324040003A501819305803E74
:101A6000EFE0CFF17D1508C8BD471CC07D57B7E733
:101A700000E02386E740056723A0E7106FE06FEDE5
:101A8000EFE28FECC1376FE0CFEC8147054763078A
:101A9000E5008507058193F7F70FD5BF37070020CD
:101AA0008E071307C700BA97DC4391C7EFE2CFE96F
:101AB00082976FE00FEA8280611122C226C005443E
:101AC000A14422853928131504014181FD14753F75
:101AD0000604E5F81244824421017300203082801C
:101AE0008280B707014023AAA74082809C456111EC
:101AF00022C226C013F7070113F3F70001C7D8412C
:101B00003363E30092211377F60F29C7832305007F
:101B1000014713048002930480048546B395E600D0
:101B2000B376B6006392D50293122700BD46B396F2
:101B3000560093C6F6FFB3F37600B3125300B3E337
:101B40007200639787064CC90507A146E317D7FCC7
:101B5000232075001307F00F6378C7048323450023
:101B6000A14613048002930480040547B312D700F2
:101B7000337756006394E202139726000117BD45A0
:101B8000B395E50093C5F5FFB3F375003317E30094
:101B9000B363770063928702232A55008506414785
:101BA000E395E6FC232275001244824421018280E1
:101BB000E39C97F80CC949BFE39297FE2328550090
:101BC000F1BF0CC982804CC98280370301400327D2
:101BD00043009317350063D00702B707C0FFF5171E
:101BE000F98F37070007D98FD9CD370700F07D1758
:101BF000798DC98F49A8635D0500B707E0FFED1730
:101C0000F98F37070007D98FBDCD06050581D5B7F8
:101C1000B7073000931605013376F500C1826313D0
:101C2000F602370600F97D16B377C7000327430095
:101C3000798E2322C300A1C955811317450033951E
:101C4000E60045BF9317B50063D40702935705011B
:101C500013F6F7008D47B397C70093C7F7FFF98FC7
:101C600037070007D98F85C1135755011207C1BF28
:101C7000558112053395A6009347F5FFF98F370775
:101C80000007D98FBDF5370701405CC38280730020
:101C9000203001A0EFE24FCB371702405C43914662
:101CA0002A84B18B6385D700A146638DD706B737E9
:101CB0006E01938707601CC0B7160240DC42918317
:101CC00013F7F700B707002093870706BA978C230E
:101CD000DC42184093F5F50F93F707083355B7002A
:101CE00081E73A85EFE08FC948C008C448C4B717F8
:101CF0000240DC43AD83FD8B13D737008A07F18B9D
:101D0000D98F93F637010D476373D700D117370783
:101D100000201307C704BA978C23EFE02FC608C82A
:101D20006FE02FC35C43B777DC02938707C061B7CE
:101D300099C5371702401C4F5D8D08CF8280B717B9
:101D40000240984F1345F5FF798D88CF828099C561
:101D5000371702405C4F5D8D48CF8280B717024035
:101D6000D84F1345F5FF798DC8CF82801E213737B4
:101D70000140130707C0C207C1836306E5003707A8
:101D800000406316E500BA2193F7F7F8D98FFA21DE
:101D900093F7F7CFC207C183D98F1EA1DE215EB5AD
:101DA0009E211EB5B7370140938707C06314F50025
:101DB0009C251EB985475EA982801E31922103D3DE
:101DC0002500C207C183F99BC207C1831EB11E3122
:101DD00056211A2DC207C183420741831377C7F8E2
:101DE000518F9225F59BC20633666600D18F373638
:101DF0000140130606C0C1826310C502B225DD9BF7
:101E000003D3E500D18FD221ED9B93F6F6CFD18F8E
:101E1000D22533666600D18E56A11AADFA2158D963
:101E20001EB182801A31FD77FD17F98F1EB1035361
:101E300005025A215E2DE5769386F6CFFD8E9E2112
:101E400013160701BA21A207DD8EF977FD17B3F744
:101E5000670003D38500C2064182336767003207FB
:101E6000D98F37370140C207130707C0C182C1832A
:101E7000631BE50071777D17718FD2251A06518F8C
:101E8000131607014182FA2152A156AD38C11EB185
:101E900082801E2189C593E717001EA18280C20798
:101EA000C183F99BC207C183CDBF8357450491C548
:101EB0002167D98F2312F5048280C607C583DDBF51
:101EC0004EA982801E2189C593E707081EA1828042
:101ED000C207C18393F7F7F7C207C183C5BF1E2DA1
:101EE000C207C183DD9BDD8D0EAD82805A2DFD774B
:101EF0009387F77FF98FA205CD8FC207C1835EADAF
:101F000082804CD982802CC18280EFE2EFA3162917
:101F1000F577FD17F58FF621DA252111D58F1EA94A
:101F20005625FD779387379FF58FD6212A842EC0BB
:101F3000D58F9625D58FB625D58F5EA55E29C2078C
:101F4000C18393F7F7CF5D8F5AA94800EFF09FD474
:101F5000B74701409387078082456312F406C24762
:101F60005A24139517003E9542070E0541873E956A
:101F70008C41635807048605EFE04FA093054006A7
:101F80002AC0EFE0AF9F82479314450093054006B7
:101F90003E85EFE06FA15E24C207C18763D50702CB
:101FA0000E059305400613052503EFE02F9D1D89BF
:101FB000C98CC204C18006A461016FE08F99B24749
:101FC00045B78A0555BF120593054006130525033D
:101FD000EFE0CF9A3D89E9BF91C55E250967D98FAA
:101FE0005EA582805A25F977FD17F98FD5BF93F545
:101FF000F51F4EA182804A211375F51F82805E294C
:1020000089C593E787005EA98280C207C183DD9BF3
:10201000C207C183CDBF0A216D8D3335A0008280F8
:10202000B71702409843B706FFFC6111136717000A
:1020300098C3D8432166758FD8C39843B706F7FE77
:10204000FD16758F98C39843B706FCFFFD16758F74
:1020500098C3D843C176FD16758FD8C337079F0044
:1020600098C702C002C2984FB70601401367170015
:1020700098CFD842518FD8C29843C1663706020024
:10208000558F98C3B716024009679C42F18F3EC234
:10209000824785073EC0924781E78247E397E7FE84
:1020A000B71702409C431397E7006358070685471C
:1020B0003EC2124785476310F706B7270240984390
:1020C000C176FD16719B98C398431367170098C398
:1020D000B7170240D843D8C3D843758FD8C3D84365
:1020E000C166558FD8C39843B7060001558F98C372
:1020F000984393166700E3DD06FED843B716024007
:10210000719BD8C3D84313672700D8C32147DC424B
:10211000B18BE39EE7FE2101828002C259BFEFE24C
:10212000AF82311102C402C602C8FD576313F50025
:1021300001A093D7854093F4F7079377F5001397A1
:1021400027008D679387C732BA979C4311813D89D9
:102150002E843EC0EFF0BF862AC28DC4854505455A
:10216000EFF01FBD9387F4FF6947636DF7000D67BC
:102170008A071307072CBA979C4382878545054534
:10218000EFF0BFA493572440137734008D8B7DC7A5
:102190003AC609476380E70E0D47638FE70C054792
:1021A0006388E70CC1473EC8EDA08145C9BF85459E
:1021B000370500100905E9B7854537054010DDBF33
:1021C0008145E5BF854537050080110555BF85452B
:1021D0003705208075B7854537052080FDB78145D7
:1021E000E5BF3705160085451305050451BF854534
:1021F000370516001305050861B785453705160034
:102200001305050CB5BF8145D5BF370518008545B9
:1022100013050510B5B737051800854513050520CA
:1022200085B78545370518001305053091BF8145F1
:10223000D5BF85452165A9B78145EDBF85453705E2
:1022400020008DBF8145E5BF854537052000B5BF1E
:102250008145E5BF85453705200069BF8145E5BF5C
:102260008545370530001305054019BF8145D5BFA9
:10227000D14715BFE14705BFF14735B70547638330
:10228000E70299C789466381D7029307800221BF7D
:1022900002C8824712452C007C84EFF03F85510133
:1022A0006FD03FEB914701B711840D8893078004ED
:1022B000E31DE4FCCDBDFD577D57631DF500828015
:1022C0006399A700EFD25FE88C45EFF05FE56FD030
:1022D0005FE8B1059C41E395E7FE01A07D579C4175
:1022E0006394E700014582806394A700C84182801F
:1022F000B105F5B7FD576307F500EFD2FFE4F93FED
:102300006FD03FE5014582806305B50019C181E5C5
:10231000AA852E8582808145EDBF01A001A001A084
:1023200001A001A001A001A001A001A001A001A0A5
:1023300001A001A001A001A001A001A001A001A095
:1023400001A001A001A001A001A001A001A001A085
:1023500097E1FF1F93810155138101F617150000C6
:102360001305451197E5FF1F9385C5C91386818124
:1023700063FAC5008322050023A0550011059105CD
:10238000E3EAC5FE13858181938541B36377B50088
:10239000232005001105E36DB5FE9302000873903C
:1023A00002308D427390428097E2FFFF938282C594
:1023B00093E2320073905230170500001305A54ACE
:1023C0006129E929EFF0DFC59702000093824233CB
:1023D0007390123473002030EFD21FD71301C1FD68
:1023E000AA84084D32C60D662EC49305C6203ACA8B
:1023F00036C8EFF03FF02AD0C84C8D669385461F53
:10240000EFF05FEF2A8488508D659385C51DEFF04E
:102410007FEE2AC0C8508D659385451CEFF09FED77
:1024200002570D668D662AC232CC36CE630B070E7C
:10243000D04CFD566304D6006305040E9050FD5643
:102440006305D6008247638E070CD050FD566305A6
:10245000D60092476387070C3A85A285EFF0DFEA42
:10246000824588C0EFF05FEA924588C0EFF0DFE96F
:1024700088C045C93747014013070780631BE50043
:1024800085451165EFF0DF8A1307000223860402F9
:1024900098D4E247884C9385C720EFF0DFE119C458
:1024A000F247C84C9385471FEFF0FFE08247814613
:1024B00089CB88508D659385C51DEFF0DFDF9306CE
:1024C0000010924799CBC8508D6593E606209385FE
:1024D000451C36C0EFF03FDE8246A24703C7C40268
:1024E00088409CC4B24713162700DEA4D247138746
:1024F00001843297FEA4C2471386440010C33147BB
:10250000C8C09EA8BAA8D6A801E48545EFF03FAFA1
:10251000C84093858400EFF05F9FC8408545EFF089
:10252000BFAB130141026FD0DFC2EFD2FFC18D6795
:1025300083A787230D67130747248A07BA97804329
:102540008D659385C5202285EFF0DFDA05C137055B
:102550000020F165930705070147814601469385F1
:1025600005201305050780CFEFF01FE76FD07FBE72
:10257000EFD29FBD8347C502930500021397270042
:1025800093870184BA979C438843EFF0DFA8133503
:1025900015006FD01FBCEFD23FBB8347C502930528
:1025A00000041397270093870184BA979C438843BC
:1025B000EFF07FA6133515006FD0BFB9EFD2DFB8AB
:1025C000411137040020AA842EC2EFF0AFC3930755
:1025D000040783C7C7022AC41304040785E7034717
:1025E000C402938701840A07BA979C43F1173EC03F
:1025F000938701843EC68247C1EF02C21245410162
:102600006FD03FB58D6783A787230D6713074724D6
:102610008A07BA979C438D669385C6203E853EC047
:10262000EFF05FCD8D6671D9230604021387018414
:102630001C4399EF8347C402850793F7F70F2306DE
:10264000F402FDD7EFF07FEE8347C402C9DB75B714
:1026500002459385C620EFF0FFC90346C4021387E5
:10266000018493172600BA979C438D669C43E3939D
:10267000A7FC35D6C1BFEFF0EFB8A247B307F540CE
:102680003335F500E39BA5F61307703EE367F7F6D5
:102690000245EFF05FF065F19247A6973EC4A2476E
:1026A000E38EF4F40245EFF01FEF6DFD8347C402A3
:1026B000324785048A07BA979C4383C5F4FF884351
:1026C000EFF0FF92E9BF11E57D5582807D556FD017
:1026D0005FA8EFD27FA7AA842E84EFF07FE97DF573
:1026E00083C7C4021397270093870184BA979C433A
:1026F0008843EFF05F9008A00145D1BFEFD2DFA47F
:10270000EFF04FABEFD0FFF3EFE04F86F5BF0145A1
:1027100082809377F50F4547636AF7020D678A0752
:1027200013074724BA979C43137505705D8DFD57B9
:102730006302F506954763EEB704EFD2FFA08D67FD
:102740009387C7348A05BE959C4182871377050C11
:102750009306000C6310D7041307700C636CF70228
:102760009377F5030D678A0713074722BA979C43AF
:1027700075B79145EFF0BF9A6FD0BF9D8D45DDBF16
:10278000E145CDBF93058002F5B78145E5B79D458D
:10279000D5B701A08280EFD23F9B1377F50FC547D5
:1027A000AE8663E6E7048D67938747240A073E9762
:1027B000184313750570B367E50013D747003D8BC9
:1027C000094601456369E600370600200A0713063B
:1027D0000600329708438545BD8BB397F500939566
:1027E0000701C181B1C2EFF0CFBD6FD09F961376C4
:1027F000050C9305000CFD57E311B6FC1306700C95
:10280000E36DE6FA9377F5030D67130747228A070E
:10281000BA979C430D67130747248A07BA979C43CE
:1028200013750570C98F51BFEFF0EFB97DBFEFD2BF
:10283000BF91EFF0EF9D6FD0DF9111CDEFD2DF9020
:102840002A84EFF0EF9CAA84EFF08F9C058DE36D56
:1028500085FE6FD01F908280AA8581460146014582
:102860004DA85111971700009387C7C022C21714B3
:102870000000130424C01D8C26C006C40984BE8435
:1028800019E41244A240824431016FF04FA57D1437
:1028900093172400A6979C438297DDB7511122C25B
:1028A00097170000938747BC171400001304C4BB9C
:1028B0001D8C26C006C40984814463968402EFF00F
:1028C0002FA297170000938727BA1714000013044C
:1028D00064BA1D8C0984814463928402A24012442C
:1028E000824431018280139724003E971843850467
:1028F000029797170000938727B7C1B71397240053
:102900003E97184385040297971700009387C7B531
:10291000E1B7938741849C43AA8399EF138781AAE7
:1029200023A2E18417D5FFFF1305C56DBA8709C53A
:102930001C4123A8F1B2BA87D8437D437D55634635
:10294000E304638D030203A3870863000304931267
:1029500027009A9223A0C2000325031005463316D0
:10296000E600518D2320A31023A0D2088946639747
:10297000D30083264310558E2322C31093061700DD
:102980000A07D4C3BA978CC70145828097D7FFFF47
:102990009387476799C7170500001305C5EC6FF0CB
:1029A000BFEB8280130141FD06D422D226D02A87B4
:1029B000AE8763910620B68432832A8463FEC50EF7
:1029C000C166AE826363D626B70600016367D64848
:1029D00093558601E144971600009386E698AE96DB
:1029E0009422B69493060002858E99CAB397D700B5
:1029F000B35497003313D600B3E2F4003314D70076
:102A000093540301A68516851AC216C0EFD0CFF9DC
:102A1000124382422AC693170301C183A6851685F5
:102A20001AC43EC0EFD08FF5AA852AC20245EFD066
:102A3000EFF232479357040192464207D98F22435F
:102A400063FAA7009A971387F6FF63E4670063ECC5
:102A5000A742BA86898FA6853E8536C61AC83EC467
:102A6000EFD08FF4A247A6852AC23E85EFD00FF1A2
:102A7000AA85AA84024542044180EFD02FEE9242FB
:102A8000B246C20233E48200637CA40042439387CF
:102A9000F4FF1A9463656400F9146363A400BE84B0
:102AA0009397060133E597008146B685A2501254EC
:102AB00082541301C102828011EA2EC22AC08145CC
:102AC0000545EFD0AFEB924702472A83C1666365A5
:102AD000D314B70600016366D33813568301E1446B
:102AE0009716000093864688B29683C206001306A6
:102AF0000002A69233065640631206141317030110
:102B00004183B3876740935403013AC08546A68545
:102B10003E8536C81AC63EC2EFD00FE992472AC496
:102B2000A6853E85EFD08FE582452AC2EFD00FE320
:102B300022479357040132434207D98FC24663FBB1
:102B4000A70012469A971307F6FF63E4670063EF46
:102B5000A7323AC2898FA6853E8536C81ACA3EC6B4
:102B6000EFD08FE4B247A6852AC43E85EFD00FE1AF
:102B70008245AA844204EFD06FDEA2424180C24661
:102B8000C20233E48200637CA40052439387F4FFC3
:102B90001A9463656400F9146363A400BE849247C9
:102BA000C20733E59700B685A25012548254130130
:102BB000C102828063E1D504C16563E7B604B7054D
:102BC000000163E8B62893D586016143170500002C
:102BD000130585792E950C219A9513030002330372
:102BE000B340631D031063E2F628B337C70013C573
:102BF0001700814619A081460145B685A25012549E
:102C000082541301C10282809305F00F63F2D5262E
:102C100093D5860021435DBF9306F00F1A86E3F13A
:102C200066EC13568300A14465BD9306F00FB28590
:102C3000E3F3C6DA93558600A14471BB3313C30096
:102C4000B3D6570093540301B397C700B35257004C
:102C50003314C70013170301B3E7F2004183A685BD
:102C600036853EC21AC83AC036C4EFD0EFD3A2466A
:102C70002AC6A6853685EFD06FD0AA852AC402451C
:102C8000EFD0CFCD32469247A2464206C183D18FC4
:102C9000424363FBA7009A971387F6FF63E3671E1F
:102CA00063F1A71EF9169A973387A740A6853A8540
:102CB00036CA1AC83AC4EFD02FCF22472AC6A685F3
:102CC0003A85EFD0AFCBAA852AC40245EFD00FC911
:102CD000B24730822247C207D18F4243D24663FBBC
:102CE000A7009A971306F7FF63E9671863F7A71819
:102CF00079179A97C206898FD98E11BD3355B600C0
:102D0000B3966600C98EB353B7003ACC331766004A
:102D100013D40601B3D4B7003AC4B397670013972E
:102D20000601B3E7F3004183A28526853EC01ACA97
:102D300036C83AC2EFD04FC72AC6A2852685EFD043
:102D4000EFC3AA85AA841245EFD04FC1B243824790
:102D5000C246C20313D6070133E6C300524362479B
:102D6000637BA60036969385F4FF636AD61063787A
:102D7000A610F9143696098EA28532853ACC1ACA65
:102D800036CE32C8EFD04FC24246A2852AC632851F
:102D9000EFD0CFBEAA852A841245EFD02FBCB24215
:102DA00030805243C20233E6C2006247637CA60011
:102DB000F2469305F4FF3696636FD60A637DA60A42
:102DC00079143696C1669382F6FFA2469397040162
:102DD000C18F33F45700098EB3F2560032C293D339
:102DE000070193D4060122859685EFD02FB72AC01C
:102DF000A6852285EFD08FB62A8496851E85EFD0D2
:102E0000EFB5AA82A6851E85EFD04FB582461694EF
:102E1000C182369463745400C1663695935604019A
:102E20003695924663E3A6026385A6003E858146F9
:102E3000E9B3416682457D16B376C400C2066D8E45
:102E400033176700B296E373D7FE1385F7FF814609
:102E50006DB393D50601414395BB93550601C1441B
:102E60009DBE13560301C144A5B98146054571B302
:102E7000B6850143A1BB2E84B1B73287A5BDAE8410
:102E8000DDBDBA8615B5F9169A97E9B61307E6FFC0
:102E90003AC29A97C1B121112AC236C006CAAA867F
:102EA00022C826C6328732C4814701450143338692
:102EB0006600937317003304F50093D2F60105837F
:102EC000B33466008607638503003385840032834C
:102ED0008606B3E7570061FFAA8789C52245EFD070
:102EE000EFA7AA97024711C71245BA85EFD00FA7DF
:102EF000AA97D2404244B2441A85BE8561018280BD
:102F0000256C752E256C7556000000002575000097
:102F10004261743A000000005468723A00000000F8
:102F200050574D3A0000000044495341524D45442A
:102F30000000000021000000200000007374617494
:102F400065426F6F74000000737461746544697347
:102F500061726D6564000000737461746541726D27
:102F60006564000073746174654C6F7742617474BA
:102F70006572790073746174654572726F720000D6
:102F8000496E69742E2E2E00000000000000000023
:102F9000002F000000000700070000147F147F14BA
:102FA00000242A7F2A120023130864620036495540
:102FB000225000000007000000001C224100000019
:102FC00041221C000014083E08140008083E0808AE
:102FD000000000A060000008080808080000606009
:102FE0000000002010080402003E5149453E000048
:102FF000427F4000004261514946002141454B312A
:10300000001814127F10002745454539003C4A49F5
:103010004930000171090503003649494936000667
:103020004949291E000036360000000056360000CF
:10303000000814224100001414141414000041224A
:103040001408000201510906003E4955592E007C22
:103050001211127C007F49494936003E414141220C
:10306000007F4141221C007F49494941007F0909F5
:103070000901003E4149497A007F0808087F0000A5
:10308000417F4100002040413F01007F0814224160
:10309000007F40404040007F020C027F007F040818
:1030A000107F003E4141413E007F09090906003E74
:1030B0004151215E007F091929460046494949319D
:1030C0000001017F0101003F4040403F001F2040C0
:1030D000201F003F4038403F00631408146300077E
:1030E0000870080700615149454300007F414100D5
:1030F000000204081020000041417F00000402018A
:103100000204004040404040000001020400002052
:1031100054545478007F4844443800384444442090
:1031200000384444487F00385454541800087E093D
:1031300001020018A4A4A47C007F08040478000005
:10314000447D4000004080847D00007F10284400C2
:103150000000417F4000007C04180478007C0804D3
:10316000047800384444443800FC2424241800180F
:10317000242418FC007C08040408004854545420FB
:1031800000043F444020003C4040207C001C204084
:10319000201C003C4030403C004428102844001CC7
:1031A000A0A0A07C004464544C440000087F41006F
:1031B0000000007F00000000417F080000080408B4
:1031C0001008000023000000003801401800000033
:1031D000FFFFFFFF000000000000000012000000E1
:1031E000003801400B000000FFFFFFFF000000005F
:1031F0000000000026000000003801401800000018
:10320000FFFFFFFF0000000000000000250000009D
:10321000003801400B000000FFFFFFFF000000002E
:103220000000000001000000000000000600000097
:103230000C0000000D0000000F0000001000000056
:103240000E0000000100000002000000100000005D
:103250001100000012000000130000001400000024
:1032600015000000160000001700000020000000FC
:1032700021000000220000002300000024000000C4
:10328000250000002600000027000000286E756C55
:103290006C2900000000000000000000781700000A
:1032A000B01700006E1700007217000074170000BE
:1032B00092170000741700001E1900004E1900003C
:1032C0007C210000AA210000AE210000B8210000EE
:1032D000C0210000C4210000CE210000D621000042
:1032E000DE210000E2210000EE210000FA210000B2
:1032F000062200000A2200001622000022220000FE
:103300002E22000032220000382200003C22000061
:1033100044220000482200005022000054220000F5
:103320005C220000602200006C220000010000000E
:10333000020000000400000008000000100000006F
:103340002000000040000000800000007227000004
:103350007C27000080270000842700008A270000C7
:103360008E27000000010202030303030404040487
:103370000404040405050505050505050505050501
:1033800005050505060606060606060606060606E1
:1033900006060606060606060606060606060606CD
:1033A00006060606070707070707070707070707B1
:1033B000070707070707070707070707070707079D
:1033C000070707070707070707070707070707078D
:1033D000070707070707070707070707070707077D
:1033E0000707070708080808080808080808080861
:1033F000080808080808080808080808080808084D
:10340000080808080808080808080808080808083C
:10341000080808080808080808080808080808082C
:10342000080808080808080808080808080808081C
:10343000080808080808080808080808080808080C
:1034400008080808080808080808080808080808FC
:1034500008080808080808080808080808080808EC
:043460000808080848
:0C3464008C29000080070000AE1800005A
:103470000008014000100140001401401400000049
:103480000000000014000000000000001400000014
:103490000000000014000000000000001400000004
:1034A00000000000140000000000000014000000F4
:1034B00000000000140000000000000002040608E4
:1034C00004080C10081018201020304020406080A4
:1034D00001020304050607080102030405060708A4
:1034E00000000000000000000000000000000000DC
:1034F0000000000000000000FFFFFFFFFFFFFFFFD4
:10350000FFFFFFFFFFFFFFFF0000000001000000C2
:103510007A030100FFFFFF00DC05DC05DC0500008D
:08352000006CDC020000000059
:00000001FF
