:100000006F20C03B00000000101D0000141D000008
:1000100000000000000000000000000000000000E0
:1000200000000000000000000000000000000000D0
:100030009C1A0000000000008C230000000000005B
:100040008E230000902300009223000094230000E0
:100050003A1B0000982300009A2300009C23000014
:100060009E230000A0230000A2230000A423000080
:10007000A6230000A8230000AA230000AC23000050
:10008000AE230000B0230000B2230000B423000020
:10009000B6230000B8230000BA23000000000000CF
:1000A0003D432A876373C3029377F700BDEFADE545
:1000B000937606FF3D8ABA960CC34CC30CC74CC757
:1000C0004107E36BD7FE11E28280B306C3408A0684
:1000D0009702000096966780A6002307B700A30644
:1000E000B7002306B700A305B7002305B700A30494
:1000F000B7002304B700A303B7002303B700A3028C
:10010000B7002302B700A301B7002301B700A30083
:10011000B7002300B700828093F5F50F9396850012
:10012000D58D93960501D58D61B7939627009702DB
:10013000000096968682E78086FA9680C1171D8F0A
:100140003E96E374C3F8A5B7511126C022C206C477
:10015000828282441244A240310182802A86014573
:1001600093F6150091C2329585810606F5F98280D5
:1001700000000000634E050263C305042E86AA85B5
:100180007D5515C285466378B6006356C0000606E5
:100190008606E36CB6FE014563E4C500918D558D7E
:1001A00085820582F5FA82808682C93F2E85828209
:1001B0003305A04063D70500B305B040C1B7B30510
:1001C000B0408682653F3305A0408282868263C745
:1001D0000500634905005D372E858282B305B04076
:1001E000E35B05FE3305A040513F3305B0408282FA
:1001F0000000EFF27FF5EF20406A23ACA180894533
:1002000013850182EF00107A9307F00F6318F50051
:100210009385818713854182EF00205F9305A03786
:1002200013850182EF0010472DB7EFF2FFF1EF00C9
:10023000005EEF00B02B31BFEFF21FF1EF20E05373
:100240009307F03F63D7A7001305F03F42054181B4
:1002500009B7E35D05FE0145D5BFEFF2FFEE03A44C
:10026000C18211119305803E22853D3F93054006D2
:1002700031372AC49305803E228509372247600022
:1002800037360000AA86130686F9C1452285EF108D
:10029000204FA14426C222C01307000281479306C3
:1002A00080021306800481450145EF00B00883D623
:1002B000C18137330000130643FAC1452285EF1090
:1002C000204C1307000226C222C0C14793068002B9
:1002D0001306800481450145EF00D005B7070020D3
:1002E00083D6070A37330000130643FAC145228537
:1002F000EF1000499307000226C222C01307000234
:10030000930680021306800481450145EF009002A8
:10031000EF00D01D710135BDEFF21FE3EF20E05774
:1003200083A781811D8D85679387378363F7A70036
:100330009385818613854182C92921BDEFF2DFE0D3
:10034000611185451305700CEF20A04BB707002005
:100350001307A0379305A037138501822390E70A7E
:10036000EF0050336D21A1473EC2B737000093879D
:1003700047F83EC00147E547930680021306800414
:1003800081450145EF00007BEF0050162101D1B3FC
:10039000EFF29FDB611181451305700CEF20604681
:1003A000B70700201307803E9305803E1385018226
:1003B0002390E70AEF00102E9929B7370000214457
:1003C0009387C7F622C23EC0014781479306800249
:1003D0001306800481450145EF00C075B737000062
:1003E000938747F722C23EC00147C1479306800268
:1003F0001306800481450145EF00C073B737000044
:100400009387C7F722C23EC00147930700029306B5
:1004100080021306800481450145EF00A071EF00C2
:10042000F00C21013DB3EFF23FD2AE87AA853E85A5
:10043000B133937515001305700CEF20803C11BB90
:10044000EFF29FD09305A03713850182EF0090242F
:10045000EF20A044AA8513050005F137DDB9EFF2BE
:10046000BFCE7111EF2060432AC01305000CE933A1
:10047000239EA180A947824563EAA702B70700200F
:100480001307803E9305803E138501822390E70A7F
:10049000EF00502081451305700CEF2080369385C6
:1004A0008184138541829526110165B11305600988
:1004B0009D3F9305A03713850182EF00B01DEDB776
:1004C000EFF29FC861111305000CBD339384C18105
:1004D0008AA0EF20803C2A848A201307007D93069F
:1004E000803E1306F03F81450581EF10205237070B
:1004F00000208357070A420541811307070A63FE5C
:10050000A7048907C207C1836360F5061EA30E23F3
:1005100013850182EF001018A2851305C012213740
:10052000EF20A0379305803E41319307301F63EFE2
:10053000A702A1473EC2B7370000938707F93EC024
:100540001307000481479306800213068004814547
:100550000145CD2319332101EDBEE37AF5FAF117F8
:10056000C207C183E3F4A7FA0AA355B7A1473EC265
:10057000B7370000938747F9D9B7EFF2FFBC1305EF
:10058000600C5D3937360B00130686718146814554
:10059000EF2030173166130616BD8146EF20404725
:1005A00023A6A1828567138787BB636CA704938505
:1005B000818713854182912C1305000CB5391307EF
:1005C000007D9306803E1306F03F8145239EA18067
:1005D000EF10C043370700208357070A42054181C7
:1005E0001307070A63F8A7048907C207C183636A70
:1005F000F5041EA30E2313850182EF00B009B13963
:1006000089BE138747CE6365A7009385818855B758
:100610001387E70FE372A7FA93870777E3F9A7F841
:10062000896713874796E372A7FE9387C71FE3F591
:10063000A7F8B5BFE370F5FCF117C207C183E3FA71
:10064000A7FA0AA345BFEFF23FB037370000938700
:100650008185130707FB98C3370700001307271F7F
:10066000D8C3370700001307873198C73707000042
:100670001307A722D8C7373700009387818613074F
:10068000C7FB98C3370700001307C733D8C3370722
:1006900000001307E74598C723A607003737000077
:1006A000938781841307C7FC98C33707000013079B
:1006B0000739D8C3370700001307A75798C723A6E1
:1006C00007003737000093878188130787FD98C399
:1006D000370700001307074C98C723A2070023A67B
:1006E00007003737000093878187130787FE98C379
:1006F000370700001307074498C723A2070023A663
:10070000070083A50181373500006111130545FFFE
:10071000EF10C004012D13052003EF00E06FA14787
:100720003EC2B737000093874700254793068002F3
:100730001306800481453EC00145E547E52E7D2333
:1007400013054006EF20201681451305000CEF200D
:10075000000385451305700CEF20600285451305E5
:10076000700CEF20000A81451305600CEF2020017A
:100770009385818513854182A12021016FF07F9DA2
:10078000EFF29F9C138541828128373500001305C5
:1007900085FAEF1080012945EF20E0106FF07F9B74
:1007A000EFF29F9A13850182EF00806B13854182DF
:1007B00019206FF01F9A2320050023220500828054
:1007C0000CC12322050081C9DC4191C7EFF2DF97FC
:1007D00082976FF01F988280EFF21F975C412A8406
:1007E00091CF1C4181C7DC4791C382975C40232293
:1007F00004001CC081C7DC4391C382971C4081C7A1
:100800009C4791C382976FF0DF944CC18280EFF2D6
:10081000BF93370500201306801681451305851305
:10082000EFF01F886FF0FF926359C00C6357D00C34
:100830002A8363530500014342032A9693078004E9
:100840001353034163D4C700130680044206418654
:100850006355C30AAE8763D305008147C207B695C7
:1008600013078002C1876354B700930580029396F3
:100870000501C18663D3D70851119382F6FFB306F1
:10088000D0409305F00F26C29D8A93D437409D8BAC
:10089000B397F500B7030020B3D5D54022C493D257
:1008A00032403EC093F5F50F26879383831363D6BA
:1008B000E20022449244310182809306F00F639358
:1008C000E400824693F6F60F6393E200ED8E9317F1
:1008D0003700BA978E079A979E971A8593C6F6FFA8
:1008E000802305054205758C80A341858507E319A2
:1008F000A6FE0507420741875DBF8280EFF2DF84D5
:100900001301C1FD0313010383124103630C031898
:10091000638A021863080618638606189303700436
:1009200063C2E31863C0A3189303700263CCF31689
:1009300063CAB3163A846353A7002A844204B303FC
:10094000C500B3046700418463D7930C7D152A96D4
:1009500042063385D500B383570041866351750C39
:100960001385F5FFAA96C20693037004C1863285EB
:1009700063D4C3001305700413160501418632C009
:1009800063428612BE8463D3B700AE84C2041306EA
:100990007002C184B6856354D600930570029396A5
:1009A0000501C18616C61AC436C263CD960E3ECE68
:1009B00082470546B3069640018E3E96AE96C20625
:1009C00042064186C186A68522853ACCB13DB24217
:1009D00022430146FD1293D7F2419D8BBE9293D7DD
:1009E00032403EC8B7070020938787133ECAC247EC
:1009F00063CAC70A7247931736009A85BA9793F766
:100A0000F70F32851AD032C63EC4EFF02FF581467B
:100A1000324602531DA01306F7FF1A9615BF9386A0
:100A2000F7FF969689B7E247B382F60093F2F20F8A
:100A300063DB8200850693F6F60FE3C666FE0506C5
:100A40001376F60F6DB78247E3C657FE6257B3873A
:100A5000A6008145BA973EC6A247AE9793F7F70F17
:100A600063CD97021247634AF70232471823335780
:100A7000B740058B1DC393D33700139733001E97E0
:100A8000D2430E079D8B1E9716978543B397F300AD
:100A900083430700B3E777001CA38505A147E39DC7
:100AA000F5FA49BF130141026FF0AFEAEFF2CFE967
:100AB0001301C1FD034441032AC82ECA22C6030400
:100AC000010336CC3ACE130304FE1374F30FA28253
:100AD0001304E00563685404B2403ED0A143B284DD
:100AE000BA82368463947004931313009A9393909C
:100AF000130032438D639383C300869399401EC4D1
:100B00001AC206C01ECCDD3BE243F24221479947A0
:100B10003EC0D245825742453AC21EC41687A286BD
:100B20002686E93B130141026FF0AFE2014781479E
:100B30008143F9BFEFF24FE1130181FD834381034C
:100B40003A832AC62EC832CA36CC2147BE84D25236
:100B500099476383E30081473EC4938723001A8447
:100B60003ECE8387020089E7130181026FF06FDEBA
:100B700029476399E700F24785021A84BE94C204AC
:100B8000C184C5B7E3CF07FCE2465246C2453245B1
:100B90001EC23EC02287A68716DA1AD21ED0393767
:100BA000A247D25212533E9442044184850282539A
:100BB0004DBFEFF26FD9914537150140EF10800816
:100BC000894537150140EF10E00791453715014081
:100BD000EF108007894537150140EF10E0066FF0F0
:100BE0004FD7EFF26FD6914537150140EF10C00592
:100BF000894537150140EF10E00491453715014054
:100C0000EF1040046FF0EFD4EFF20FD4AA84214428
:100C100093978401E18791453715014063D107041B
:100C2000EF104002894537150140EF10A0017D14F7
:100C300089453715014086041374F40FEF10C00086
:100C400093F4F40F71F4894537150140EF00907F5C
:100C5000894537150140EF00307F6FF08FCFEF00EF
:100C6000B07EC9B7EFF24FCEAE842A849937130510
:100C70008007593F13050004413FB707002083C791
:100C8000270AA2948DC363159400A13F6FF06FCC27
:100C900008200504953FC5BF082005041345F5FF4E
:100CA0001375F50F9537E31994FEC5B7EFF2CFC969
:100CB0002A84013713058007813F0145B13722851A
:100CC000A13705376FF0EFC8EFF20FC8F1051365D4
:100CD000050B13F4F50FD93F1355440013650501B7
:100CE000F1371375F400D9376FF0AFC6EFF2CFC507
:100CF0002388018293848189014422858145E937D3
:100D0000268593058004B93F05041374F40F154735
:100D10009384840493870183E311E4FE054798A339
:100D20006FF02FC3EFF24FC2511113054006EF10C1
:100D300090378545414502C002C202C4EF106007EA
:100D400099477C80D1473EC48A858D47371501403D
:100D50003EC2EF00D061894537150140EF00906E2B
:100D6000914537150140EF00F06D1305E00A3D3F56
:100D70001305500D253F1305000F0D3F1305800A85
:100D80003537130570021D371305300D0537014542
:100D9000313F13050004193F1305D008013F5145A9
:100DA0003137130500021937094509371305100AB1
:100DB000F53D1305800CDD3D1305A00DC53D4945EE
:100DC000F5351305D00ADD3513050003C5351305C8
:100DD0001008E93D1305F00FD13D1305900DF935CD
:100DE00013052002E1351305B00DC93513050002C6
:100DF000753D1305400A5D3D1305600A453D3145CB
:100E0000753545456535EFF09FA0CD351305F00AE2
:100E1000713D31016FF0EFB3EFF20FB30144634363
:100E200005002A8413051008513513170401418762
:100E30009307F00F63D4E7001304F00F1375F40F5A
:100E4000B5356FF00FB1814711C905478547630775
:100E5000E500094781476313E50089473E858280A5
:100E6000138711831C23AD4663E3F60293861700B4
:100E700014A31CA113973700938701A0BA971307F7
:100E8000C05DD8C39823137707F898A38280FD57D5
:100E90001CA1828018219307F00F630CF70A9316A8
:100EA0003700938701A0B6979C43138701A09983CD
:100EB000858BC5C3EFF24FA9030615009307800881
:100EC000918F8A0763CBF5000306250093078025E1
:100ED000918F8A0763D3F500AE87369714435CC3BE
:100EE000BE840567C207C1831307479C93F6F603C8
:100EF0006373F700BA8493970401C1831307401FFB
:100F000063F4E7009304401F13940401418091EAC5
:100F1000A28537050040EF108005239491806FF083
:100F20004FA38547639AF600A28537050040EF106E
:100F3000400423958180E5B78947E392F6FE373573
:100F40000140A285130505C0EF10A0022396818001
:100F5000F9B78280EFF24F9F04211307F00F397128
:100F60006386E418894763ECB7222A842E8536CA43
:100F700032C82EC0C93D93874180AA979C2313870E
:100F800041803AC42AC21307F00F6384E7006398D4
:100F9000F420938701A093963400B6978843138773
:100FA00001A03AC693576500858B91CF1375F50361
:100FB000894763EAA700413DA2473E951C216394FF
:100FC0009700FD571CA1024789476305F7129387D5
:100FD000318398234DEF054785451305000298A3FB
:100FE000EF00305D85450545EF00905E93070009F1
:100FF0002312F10237150140E1473ED64C108D47D0
:10100000130505403ED423130102EF0050369567C7
:101010009387F7E1FC862C089307F0023705004020
:10102000FC84231D0100231F010023100102EF0097
:10103000105CC1679387070602DA3ED80C18930745
:10104000C05D37050040231BF10202DC02DEEF0029
:10105000F05EA14537050040EF00306F0C183705F2
:101060000040EF005064A14537050040EF00D06E0E
:10107000854537050040EF00B06B854537050040DA
:10108000EF00D06A854537050040EF00B068C247E1
:10109000130600228566B307F64013D6F7410D8A82
:1010A0003E96D247938606960986B387F64093D636
:1010B000F7418D8ABE96898634A01420B24710B0BD
:1010C000139736003E970C238247228593F505FC43
:1010D00093F7F703DD8D93E505040CA3A2471247B0
:1010E0009305C05DBA9794A37533042026852161CA
:1010F0006FF02F8693872183982351FB0547854501
:10110000414598A3EF00F04A056585451305058024
:10111000EF00304AC1472312F102E1473ED64C109E
:101120008D47371501403ED423130102EF003024D0
:101130009567B73401409387F7E1FC862C08930745
:10114000F002138504C0FC84231D0100231F01004D
:1011500023100102EF00B049C1679387070602DA46
:101160003ED80C189307C05D138504C0231BF10201
:1011700002DC02DEEF003053A145138504C0EF000E
:10118000B05D8545138504C0EF00905A85451385F1
:1011900004C0EF00B0598545138504C0FDB5930424
:1011A000F00FA9B7EFE25FFA8566938606961306FD
:1011B00000224D336FE0FFF9411106C62EC00DCD60
:1011C0001841AA8705C358417D5511CB8546631B3D
:1011D000D70098472300070023A207000545B24027
:1011E000410182809847824614A39847050798C713
:1011F000D8437D17D8C3DDB705468A85EF00A074B4
:10120000F1BF011122CC2EC206CE26CA2A84814704
:1012100093050002634506029245BE95838505004D
:101220008DE563D8C70263D4E702198E1305000267
:1012300093F526002AC089C501E7930500032EC057
:10124000858A814495EAB2840DA08507F1B71D8E89
:10125000F1BF0146E1BF824522853AC832C63EC48D
:10126000A13FA24732464247FD14E34690FEB284B6
:10127000635306008144058E63C7E702A687924642
:101280003387974036978305070095EDB284634412
:101290009004635306000146F2406244D244330591
:1012A000F600056182801D8FBA87930500032285B1
:1012B00032C83EC63AC40937B24722474246FD17F4
:1012C000EDF7BA9465BF228532C63EC4F535A24714
:1012D000324685076DB78245228532C43EC2E93D5C
:1012E000FD142246924765B7397106DE22DC26DA04
:1012F0003EC232833A8689ED924693070003014746
:101300006C08FC86FD3DF2506254D254216182800B
:10131000AA843684AE8791CA294701446317E30043
:1013200063D50500B307B04005448646A309010212
:1013300013073103938666FC36C49A853E8532CA0C
:101340003AC81AC63EC0EFE03FE6A54682473243A0
:101350004247524663D4A600A246369513050503BC
:101360009306F7FFA30FA7FE9A853E8532CC3ACAB3
:101370001AC83EC636C0EFE07FE0B247424352474C
:10138000624663F9670401CC29CA9247898BB1C7C9
:101390009305D002268532C4053522467D16924734
:1013A000918B95C306479307100632C4930500033B
:1013B0002685631EF7020935930580072685ED3BD8
:1013C0002246090479161647924682452685153D20
:1013D000229515BFAA8702478DB782469307D00290
:1013E0000144A38FF6FE9307E7FF3EC04DBFE933EC
:1013F00093058005E1B70145828001458280130194
:1014000081FD22D026CE06D22AC4AE82328402C604
:1014100081448385020089EDA24781C781453E85CD
:10142000613B925002542685F2441301810282806E
:10143000930750026389F500224516C88504EFF032
:10144000BFD7C24205A08387120013871200639D95
:10145000B7002245930550023AC8EFF0FFD5424746
:101460008504BA82850275B7C5DB9306B00263892D
:10147000D70463C8F600930630026386D704814719
:1014800005A09306D002638AD70093060003E39871
:10149000D7FE13872200894721A0138722008547A2
:1014A000830607001306B0026383C6046341D602B5
:1014B00013063002638BC602BA820145A54681A09D
:1014C000138722006DBF138722009147D1BF1306F7
:1014D000D0026389C60013060003E39FC6FC93E7AE
:1014E000270031A005078547C1BF93E747000507DF
:1014F000E1B713162500329506053A958502038655
:101500000200130706FD9375F70FE3F4B6FE130709
:10151000E0029946631EE60085028146A5450386E2
:101520000200130606FD1377F60F63F5E50236C6D3
:10153000038702001306A006630DC70A6343E60291
:101540001306C0046307C70A13068006630CC708A6
:1015500081452DA813972600BA968606B296850275
:101560007DBF130640076306C7081306A007630282
:10157000C7081306C0068145631AC7000386120018
:101580008D456314E60085029145850203860200BD
:10159000930300061307100663C4C3001307100467
:1015A0009303700663C4C30693035006635676180C
:1015B0009303700463C1C30493055004635EB616BD
:1015C00013073004E310E6EA18409303440016CAF8
:1015D000230CE1001EC8A30C01000147BE862A8629
:1015E0002C0849A8038612008145E311E6FA890216
:1015F00071BF8502B1BF93063006E307D6FC63CF07
:10160000C606930680056303D602A9BD930630077C
:101610006304D60463CBC6029306F0066305D60EB8
:101620009306000793E74700E31ED6E291466392D4
:10163000D50C930384000C40504016CA3AC23EC0F9
:101640001EC8AA870147C14681A893065007630BAD
:10165000D6069306800745BF1840B73600009303AF
:1016600044009385063111C3BA85324716CA1EC895
:10167000BE862A862245EFF0DFB815A09146639515
:10168000D502930384000C40504016CA3AC23EC0B3
:101690001EC8AA870547A9462245EFF0DFD5C243F9
:1016A000AA941E84D2427DBBB2460C4016C836C2F4
:1016B0003AC011042A87854629462245EFF0DFC249
:1016C000AA9441B39146639DD500930384000C40D6
:1016D000504016CA3AC23EC01EC8AA87014765BF1D
:1016E000B2460C4016C836C23AC011042A87814659
:1016F000E1B7B24616C80C40414636C23AC01104A2
:101700002A8781465DBF9146639ED500930384007E
:101710000C40504016CA3AC23EC01EC8AA870147B4
:10172000A1469DBFB2460C4016C836C23AC011044D
:101730002A878146214651B70C4013068400404059
:101740003AC22A87224532C83EC02286B687A946B9
:1017500016CAEFF09FCAAA944244A9B71301C1FD6B
:101760002EC832CAAA851008014506C636CC3ACE24
:101770003ED032C0EFF0BFC8B240130141028280B8
:10178000130181FD32833ED22EC42AC670088547DC
:1017900048009A8506CC36CE3AD03EC232C0EFF031
:1017A0001FC6E240130181028280411122C426C279
:1017B00006C61C21AA840144DC818307310005048C
:1017C00091EFA9479305310005460145DC81A52A23
:1017D0002285B2402244924441018280054693050D
:1017E000310001458D22B38784009C23DC81F1B751
:1017F0000145828082807D558280EFE2FF941C410A
:101800007111CC81DC4393053100054682971101AB
:101810006FE03F94EFE25F93711193053100410552
:10182000EF00307109E5888111016FE09F927D55CD
:10183000E5BFEFE27F912E85B285EF00F05E6FE0AD
:101840005F9113F7F50FC54763EDE7008D67938749
:10185000872C0A073E9793F705700C43CD8F5CD514
:10186000828093F6050C1306000CFD57E399C6FE23
:101870009306700CE3E5E6FE93F7F5030D67130797
:10188000872A8A07BA979C430D671307872C8A0714
:10189000BA9793F505709C43D1B713F7F50FC54779
:1018A00063EDE7008D679387872C0A073E9793F7D0
:1018B00005700C43CD8F1CD5828093F6050C130662
:1018C000000CFD57E399C6FE9306700CE3E5E6FEB7
:1018D00093F7F5030D671307872A8A07BA979C4386
:1018E0000D671307872C8A07BA9793F505709C43F9
:1018F000D1B7EFE27F859307803E1CC58D67938744
:1019000007321CC10CC9232205009305600C2A84F0
:101910000D3F9305500C2285493758541C546314CD
:10192000F700FD575CD4FD571CD85CD86FE07F8270
:10193000EFE29F81B745014093850580138501A69D
:101940004D3F6FE01F81EFE23F80328419C9AE87BF
:10195000634C050009476349A700B2853E85EF0047
:10196000B04C22856FE0EFFE18412286BE855843B9
:101970000297C5BFEFE24FFD2A84EF00107248C402
:101980001C402285DC4B8297635A0500EF00F07003
:101990005C441D8D1C44E365F5FE7D556FE06FFBD7
:1019A000EFE28FFA6111AA8401442EC232C0630DA6
:1019B000C4002685C1376349050092450246B387B6
:1019C000850088A30504D5B7228521016FE06FF853
:1019D000EFE28FF75111014495C6B684AA870144FE
:1019E0003E8532C42EC23EC07137634D050092451C
:1019F000630AB500224682473307860008A3050420
:101A0000E39084FE228531016FE0AFF4EFE2CFF383
:101A10002E846111B305D740018D36C032C2EFE08C
:101A2000EFF31246B3058640EFE0CFF48246210182
:101A300036956FE00FF2EFE22FF1E1206FE06FF1EA
:101A4000EFE28FF085476301F50219C5894763030B
:101A5000F50201456FE0EFEF11458545992E3715E9
:101A6000014013050580FDB7414585459926371589
:101A70000140CDB7130500028545252E37150140DD
:101A800013050540C1BF03A5818383A5C18382805F
:101A90008280EFE26FEBC53F6FE0AFEB938781830E
:101AA00003A3070083A34700130713003335670020
:101AB00098C3B3067500D4C3E13FB7F700E023A293
:101AC000070073002030EFE22FE837F400E0232214
:101AD0000400232004002324040003A501819305AE
:101AE000803EEFE0AFE97D1508C8BD471CC07D57BB
:101AF000B7E700E02386E740056723A0E7106FE023
:101B00004FE5EFE26FE4C1376FE0AFE4814705478F
:101B10006307E5008507058193F7F70FD5BF370702
:101B200000208E071307C700BA97DC4391C7EFE286
:101B3000AFE182976FE0EFE18280611122C226C09F
:101B40000544A14422853928131504014181FD145F
:101B5000753F0604E5F812448244210173002030E9
:101B600082808280B707014023AAA74082809C45DB
:101B7000611122C226C013F7070113F3F70001C752
:101B8000D8413363E30092211377F60F29C78323EB
:101B90000500014713048002930480048546B39531
:101BA000E600B376B6006392D50293122700BD46D5
:101BB000B396560093C6F6FFB3F37600B312530004
:101BC000B3E37200639787064CC90507A146E31784
:101BD000D7FC232075001307F00F6378C704832315
:101BE0004500A14613048002930480040547B31204
:101BF000D700337756006394E2021397260001174B
:101C0000BD45B395E50093C5F5FFB3F375003317F4
:101C1000E300B363770063928702232A55008506A9
:101C20004147E395E6FC23227500124482442101DA
:101C30008280E39C97F80CC949BFE39297FE232862
:101C40005500F1BF0CC982804CC982803703014026
:101C5000032743009317350063D00702B707C0FF7F
:101C6000F517F98F37070007D98FD9CD370700F05F
:101C70007D17798DC98F49A8635D0500B707E0FF1F
:101C8000ED17F98F37070007D98FBDCD0605058100
:101C9000D5B7B7073000931605013376F500C1823A
:101CA0006313F602370600F97D16B377C7000327E2
:101CB0004300798E2322C300A1C955811317450023
:101CC0003395E60045BF9317B50063D407029357D9
:101CD000050113F6F7008D47B397C70093C7F7FFC9
:101CE000F98F37070007D98F85C1135755011207A0
:101CF000C1BF558112053395A6009347F5FFF98FB3
:101D000037070007D98FBDF5370701405CC38280D4
:101D10007300203001A0EFE22FC3371702405C436D
:101D200091462A84B18B6385D700A146638DD7067F
:101D3000B7376E01938707601CC0B7160240DC42BC
:101D4000918313F7F700B707002093870706BA9728
:101D50008C23DC42184093F5F50F93F707083355B1
:101D6000B70081E73A85EFE06FC148C008C448C4B6
:101D7000B7170240DC43AD83FD8B13D737008A07CA
:101D8000F18BD98F93F637010D476373D700D117C5
:101D9000370700201307C704BA978C23EFE00FBE64
:101DA00008C86FE00FBB5C43B777DC02938707C0BE
:101DB00061B799C5371702401C4F5D8D08CF8280EF
:101DC000B7170240984F1345F5FF798D88CF828071
:101DD00099C5371702405C4F5D8D48CF8280B71799
:101DE0000240D84F1345F5FF798DC8CF82801E2160
:101DF00037370140130707C0C207C1836306E500F8
:101E0000370700406316E500BA2193F7F7F8D98F3A
:101E1000FA2193F7F7CFC207C183D98F1EA1DE2124
:101E20005EB59E211EB5B7370140938707C0631486
:101E3000F5009C251EB985475EA982801E3192213E
:101E400003D32500C207C183F99BC207C1831EB11A
:101E50001E3156211A2DC207C183420741831377D1
:101E6000C7F8518F9225F59BC20633666600D18F65
:101E700037360140130606C0C1826310C502B22581
:101E8000DD9B03D3E500D18FD221ED9B93F6F6CFF6
:101E9000D18FD22533666600D18E56A11AADFA21B4
:101EA00058D91EB182801A31FD77FD17F98F1EB106
:101EB000035305025A215E2DE5769386F6CFFD8EFB
:101EC0009E2113160701BA21A207DD8EF977FD17AF
:101ED000B3F7670003D38500C2064182336767000A
:101EE0003207D98F37370140C207130707C0C182B5
:101EF000C183631BE50071777D17718FD2251A06A8
:101F0000518F131607014182FA2152A156AD38C1F3
:101F10001EB182801E2189C593E717001EA1828011
:101F2000C207C183F99BC207C183CDBF4EA982807E
:101F30001E2189C593E707081EA18280C207C183BD
:101F400093F7F7F7C207C183C5BF1E2DC207C18330
:101F5000DD9BDD8D0EAD82805A2DFD779387F77F57
:101F6000F98FA205CD8FC207C1835EAD82804CD9A7
:101F700082802CC18280EFE22F9D1629F577FD1714
:101F8000F58FF621DA252111D58F1EA95625FD776B
:101F90009387379FF58FD6212A842EC0D58F96251B
:101FA000D58FB625D58F5EA55E29C207C18393F76D
:101FB000F7CF5D8F5AA94800EFF0FFD5B747014032
:101FC0009387078082456312F406C2475A2413950B
:101FD00017003E9542070E0541873E958C41635898
:101FE00007048605EFE08F99930540062AC0EFE0CD
:101FF000EF98824793144500930540063E85EFE035
:10200000AF9A5E24C207C18763D507020E05930508
:10201000400613052503EFE06F961D89C98CC204A5
:10202000C18006A461016FE0CF92B24745B78A052F
:1020300055BF12059305400613052503EFE00F94E5
:102040003D89E9BF91C55E250967D98F5EA582806C
:102050005A25F977FD17F98FD5BF93F5F51F4EA1D6
:1020600082804A211375F51F82805E2989C593E716
:1020700087005EA98280C207C183DD9BC207C1833E
:10208000CDBF0A216D8D3335A0008280B717024085
:102090009843B706FFFC61111367170098C3D84334
:1020A0002166758FD8C39843B706F7FEFD16758F66
:1020B00098C39843B706FCFFFD16758F98C3D843A5
:1020C000C176FD16758FD8C337079F0098C702C029
:1020D00002C2984FB70601401367170098CFD84245
:1020E000518FD8C29843C16637060200558F98C3F6
:1020F000B716024009679C42F18F3EC282478507AE
:102100003EC0924781E78247E397E7FEB717024058
:102110009C431397E7006358070685473EC2124762
:1021200085476310F706B72702409843C176FD162E
:10213000719B98C398431367170098C3B717024061
:10214000D843D8C3D843758FD8C3D843C166558FF9
:10215000D8C39843B7060001558F98C39843931688
:102160006700E3DD06FED843B7160240719BD8C373
:10217000D84313672700D8C32147DC42B18BE39EC5
:10218000E7FE2101828002C259BFEFD2FFFB31116D
:1021900002C402C602C8FD576313F50001A093D71D
:1021A000854093F4F7079377F500139727008D6721
:1021B0009387073BBA979C4311813D892E843EC08B
:1021C000EFF01F882AC28DC485450545EFF07FBE1C
:1021D0009387F4FF6947636DF7000D678A0713075C
:1021E0004734BA979C43828785450545EFF01FA683
:1021F00093572440137734008D8B7DC73AC6094727
:102200006380E70E0D47638FE70C05476388E70C93
:10221000C1473EC8EDA08145C9BF854537050010BF
:102220000905E9B7854537054010DDBF8145E5BFA4
:10223000854537050080110555BF85453705208048
:1022400075B7854537052080FDB78145E5BF370562
:10225000160085451305050451BF85453705160051
:102260001305050861B78545370516001305050CEC
:10227000B5BF8145D5BF3705180085451305051045
:10228000B5B73705180085451305052085B7854581
:10229000370518001305053091BF8145D5BF854529
:1022A0002165A9B78145EDBF8545370520008DBF64
:1022B0008145E5BF854537052000B5BF8145E5BFB0
:1022C00085453705200069BF8145E5BF8545370550
:1022D00030001305054019BF8145D5BFD14715BF53
:1022E000E14705BFF14735B705476383E70299C763
:1022F00089466381D7029307800221BF02C88247C3
:1023000012452C007C84EFF09F8651016FD07FE452
:10231000914701B711840D8893078004E31DE4FC05
:10232000CDBDFD577D57631DF50082806399A700E1
:10233000EFD29FE18C45EFF05FE56FD09FE1B105F3
:102340009C41E395E7FE01A07D579C416394E70023
:10235000014582806394A700C8418280B105F5B72A
:10236000FD576307F500EFD23FDEF93F6FD07FDE08
:10237000014582806305B50019C181E5AA852E85D6
:1023800082808145EDBF01A001A001A001A001A0B4
:1023900001A001A001A001A001A001A001A001A035
:1023A00001A001A001A001A001A001A001A001A025
:1023B00001A001A001A001A001A001A097E1FF1FC1
:1023C0009381414E138101F6171500001305C512C4
:1023D00097E5FF1F938505C31386818163FAC500C6
:1023E0008322050023A0550011059105E3EAC5FEEF
:1023F00013858181938541B36377B5002320050060
:102400001105E36DB5FE93020008739002308D4212
:102410007390428097E2FFFF9382C2BE93E2320044
:1024200073905230170500001305A54A6129E92968
:10243000EFF0DFC5970200009382423373901234AD
:1024400073002030EFD25FD01301C1FDAA84084D84
:1024500032C60D662EC4930506293ACA36C8EFF077
:102460003FF02AD0C84C8D6693858627EFF05FEF4A
:102470002A8488508D6593850526EFF07FEE2AC06B
:10248000C8508D6593858524EFF09FED02570D664A
:102490008D662AC232CC36CE630B070ED04CFD5669
:1024A0006304D6006305040E9050FD566305D60004
:1024B0008247638E070CD050FD566305D6009247C5
:1024C0006387070C3A85A285EFF0DFEA824588C072
:1024D000EFF05FEA924588C0EFF0DFE988C045C9B8
:1024E0003747014013070780631BE50085451165E9
:1024F000EFF03F8C130700022386040298D4E247D2
:10250000884C93850729EFF0DFE119C4F247C84CE6
:1025100093858727EFF0FFE08247814689CB88507B
:102520008D6593850526EFF0DFDF93060010924757
:1025300099CBC8508D6593E606209385852436C0D7
:10254000EFF03FDE8246A24703C7C40288409CC426
:10255000B24713162700DEA4D247138701843297AF
:10256000FEA4C2471386440010C33147C8C09EA8CA
:10257000BAA8D6A801E48545EFF03FAFC8409385DF
:102580008400EFF05F9FC8408545EFF0BFAB1301BB
:1025900041026FD01FBCEFD23FBB8D6783A7C72B13
:1025A0000D671307872C8A07BA9780438D6593853B
:1025B00005292285EFF0DFDA05C137050020F16536
:1025C00093070507014781460146938505201305BA
:1025D000050780CFEFF01FE76FD0BFB7EFD2DFB6B0
:1025E0008347C50293050002139727009387018450
:1025F000BA979C438843EFF0DFA8133515006FD0DE
:102600005FB5EFD27FB48347C502930500041397EB
:10261000270093870184BA979C438843EFF07FA6F5
:10262000133515006FD0FFB2EFD21FB2411137043E
:102630000020AA842EC2EFF00FC59307040783C7BA
:10264000C7022AC41304040785E70347C40293871B
:1026500001840A07BA979C43F1173EC0938701840F
:102660003EC68247C1EF02C2124541016FD07FAE24
:102670008D6783A7C72B0D671307872C8A07BA9727
:102680009C438D66938506293E853EC0EFF05FCD65
:102690008D6671D923060402138701841C4399EFC8
:1026A0008347C402850793F7F70F2306F402FDD78B
:1026B000EFF07FEE8347C402C9DB75B7024593850F
:1026C0000629EFF0FFC90346C4021387018493175C
:1026D0002600BA979C438D669C43E393A7FC35D6AE
:1026E000C1BFEFF04FBAA247B307F5403335F5004D
:1026F000E39BA5F61307703EE367F7F60245EFF09C
:102700005FF065F19247A6973EC4A247E38EF4F4CA
:102710000245EFF01FEF6DFD8347C4023247850489
:102720008A07BA979C4383C5F4FF8843EFF0FF9272
:10273000E9BF11E57D5582807D556FD09FA1EFD215
:10274000BFA0AA842E84EFF07FE97DF583C7C40281
:102750001397270093870184BA979C438843EFF02F
:102760005F9008A00145D1BFEFD21F9EEFF0AFAC44
:10277000EFD07FEDEFE0CF80F5BF0145828093770A
:10278000F50F4547636AF7020D678A071307872C21
:10279000BA979C43137505705D8DFD576302F5066E
:1027A000954763EEB704EFD23F9A8D679387073D55
:1027B0008A05BE959C4182871377050C9306000C11
:1027C0006310D7041307700C636CF7029377F5035B
:1027D0000D678A071307872ABA979C4375B79145F7
:1027E000EFF0BF9A6FD0FF968D45DDBFE145CDBFBD
:1027F00093058002F5B78145E5B79D45D5B701A0A2
:102800008280EFD27F941377F50FC547AE8663E6DB
:10281000E7048D679387872C0A073E971843137543
:102820000570B367E50013D747003D8B09460145A6
:102830006369E600370600200A0713060600329790
:1028400008438545BD8BB397F50093950701C1817A
:10285000B1C2EFF02FBF6FD0DF8F1376050C930559
:10286000000CFD57E311B6FC1306700CE36DE6FA9D
:102870009377F5030D671307872A8A07BA979C4356
:102880000D671307872C8A07BA979C431375057049
:10289000C98F51BFEFF04FBB7DBFEFD2FF8AEFF082
:1028A0004F9F6FD01F8B11CDEFD21F8A2A84EFF07C
:1028B0004F9EAA84EFF0EF9D058DE36D85FE6FD0EE
:1028C0005F898280AA858146014601454DA8511144
:1028D00097170000938747C222C217140000130401
:1028E000A4C11D8C26C006C40984BE8419E4124408
:1028F000A240824431016FF0AFA67D1493172400EB
:10290000A6979C438297DDB7511122C2971700000A
:102910009387C7BD17140000130444BD1D8C26C047
:1029200006C40984814463968402EFF08FA397174D
:1029300000009387A7BB171400001304E4BB1D8C91
:102940000984814463928402A2401244824431018A
:102950008280139724003E971843850402979717A7
:1029600000009387A7B8C1B7139724003E97184378
:102970008504029797170000938747B7E1B79387BD
:1029800041849C43AA8399EF138781AA23A2E184FF
:1029900017D5FFFF13050567BA8709C51C4123A892
:1029A000F1B2BA87D8437D437D556346E304638D16
:1029B000030203A3870863000304931227009A927B
:1029C00023A0C2000325031005463316E600518DEF
:1029D0002320A31023A0D20889466397D30083261F
:1029E0004310558E2322C310930617000A07D4C341
:1029F000BA978CC70145828097D7FFFF938787607E
:102A000099C7170500001305C5EC6FF0BFEB828076
:102A1000130141FD06D422D226D02A87AE876391C6
:102A20000620B68432832A8463FEC50EC166AE8258
:102A30006363D626B70600016367D64893558601BF
:102A4000E144971600009386669AAE969422B69457
:102A500093060002858E99CAB397D700B3549700A6
:102A60003313D600B3E2F4003314D70093540301B8
:102A7000A68516851AC216C0EFD00FF31243824204
:102A80002AC693170301C183A68516851AC43EC0C2
:102A9000EFD0CFEEAA852AC20245EFD02FEC324705
:102AA0009357040192464207D98F224363FAA70045
:102AB0009A971387F6FF63E4670063ECA742BA8630
:102AC000898FA6853E8536C61AC83EC4EFD0CFEDA5
:102AD000A247A6852AC23E85EFD04FEAAA85AA84DE
:102AE000024542044180EFD06FE79242B246C202F3
:102AF00033E48200637CA40042439387F4FF1A947A
:102B000063656400F9146363A400BE8493970601AF
:102B100033E597008146B685A250125482541301C2
:102B2000C102828011EA2EC22AC081450545EFD03C
:102B3000EFE4924702472A83C1666365D314B70660
:102B400000016366D33813568301E14497160000F1
:102B50009386C689B29683C2060013060002A69227
:102B60003306564063120614131703014183B387DB
:102B70006740935403013AC08546A6853E8536C812
:102B80001AC63EC2EFD04FE292472AC4A6853E85C0
:102B9000EFD0CFDE82452AC2EFD04FDC22479357D9
:102BA000040132434207D98FC24663FBA700124695
:102BB0009A971307F6FF63E4670063EFA7323AC200
:102BC000898FA6853E8536C81ACA3EC6EFD0CFDDAE
:102BD000B247A6852AC43E85EFD04FDA8245AA8443
:102BE0004204EFD0AFD7A2424180C246C20233E4D2
:102BF0008200637CA40052439387F4FF1A946365B8
:102C00006400F9146363A400BE849247C20733E5ED
:102C10009700B685A250125482541301C1028280DB
:102C200063E1D504C16563E7B604B705000163E855
:102C3000B62893D586016143170500001305057B6F
:102C40002E950C219A95130300023303B340631DA4
:102C5000031063E2F628B337C70013C51700814697
:102C600019A081460145B685A25012548254130121
:102C7000C10282809305F00F63F2D52693D58600BA
:102C800021435DBF9306F00F1A86E3F166EC1356FD
:102C90008300A14465BD9306F00FB285E3F3C6DA65
:102CA00093558600A14471BB3313C300B3D65700BC
:102CB00093540301B397C700B35257003314C700AE
:102CC00013170301B3E7F2004183A68536853EC2A0
:102CD0001AC83AC036C4EFD02FCDA2462AC6A68560
:102CE0003685EFD0AFC9AA852AC40245EFD00FC7F9
:102CF00032469247A2464206C183D18F424363FBCC
:102D0000A7009A971387F6FF63E3671E63F1A71E78
:102D1000F9169A973387A740A6853A8536CA1AC806
:102D20003AC4EFD06FC822472AC6A6853A85EFD0AD
:102D3000EFC4AA852AC40245EFD04FC2B247308201
:102D40002247C207D18F4243D24663FBA7009A971E
:102D50001306F7FF63E9671863F7A71879179A97BF
:102D6000C206898FD98E11BD3355B600B396660061
:102D7000C98EB353B7003ACC3317660013D406019B
:102D8000B3D4B7003AC4B397670013970601B3E70B
:102D9000F3004183A28526853EC01ACA36C83AC2CE
:102DA000EFD08FC02AC6A2852685EFD02FBDAA8579
:102DB000AA841245EFD08FBAB2438247C246C203FB
:102DC00013D6070133E6C30052436247637BA60074
:102DD00036969385F4FF636AD6106378A610F914CB
:102DE0003696098EA28532853ACC1ACA36CE32C8BA
:102DF000EFD08FBB4246A2852AC63285EFD00FB8EE
:102E0000AA852A841245EFD06FB5B2423080524372
:102E1000C20233E6C2006247637CA600F246930515
:102E2000F4FF3696636FD60A637DA60A7914369648
:102E3000C1669382F6FFA24693970401C18F33F4D3
:102E40005700098EB3F2560032C293D3070193D4D0
:102E5000060122859685EFD06FB02AC0A68522850F
:102E6000EFD0CFAF2A8496851E85EFD02FAFAA82F0
:102E7000A6851E85EFD08FAE82461694C182369409
:102E800063745400C1663695935604013695924694
:102E900063E3A6026385A6003E858146E9B34166E9
:102EA00082457D16B376C400C2066D8E3317670067
:102EB000B296E373D7FE1385F7FF81466DB393D5C2
:102EC0000601414395BB93550601C1449DBE13566F
:102ED0000301C144A5B98146054571B3B6850143D7
:102EE000A1BB2E84B1B73287A5BDAE84DDBDBA8645
:102EF00015B5F9169A97E9B61307E6FF3AC29A97FD
:102F0000C1B121112AC236C006CAAA8622C826C665
:102F1000328732C48147014501433386660093738B
:102F200017003304F50093D2F6010583B33466002D
:102F30008607638503003385840032838606B3E702
:102F4000570061FFAA8789C52245EFD02FA1AA9714
:102F5000024711C71245BA85EFD04FA0AA97D240B9
:102F60004244B2441A85BE85610182804261743A4E
:102F7000000000005468723A0000000050574D3ABB
:102F80000000000044495341524D454400000000F8
:102F90002100000020000000256C752E256C755660
:102FA000000000002575000044454255470D000013
:102FB0007374617465426F6F7400000073746174A0
:102FC0006544697361726D656400000073746174B7
:102FD0006541726D6564000073746174654C6F7750
:102FE00042617474657279007374617465457272BC
:102FF0006F72000053797374656D436C6B3A256C86
:10300000750D0A00496E69742E2E2E000000000016
:1030100000000000002F000000000700070000145F
:103020007F147F1400242A7F2A120023130864626D
:1030300000364955225000000007000000001C2205
:103040004100000041221C000014083E0814000842
:10305000083E0808000000A06000000808080808F2
:10306000000060600000002010080402003E51498A
:10307000453E0000427F4000004261514946002128
:1030800041454B31001814127F1000274545453942
:10309000003C4A494930000171090503003649499D
:1030A000493600064949291E000036360000000056
:1030B00056360000000814224100001414141414A1
:1030C000000041221408000201510906003E495542
:1030D000592E007C1211127C007F49494936003E6E
:1030E00041414122007F4141221C007F4949494121
:1030F000007F09090901003E4149497A007F08081B
:10310000087F0000417F4100002040413F01007FD7
:1031100008142241007F40404040007F020C027FA3
:10312000007F0408107F003E4141413E007F0909B5
:103130000906003E4151215E007F091929460046DB
:10314000494949310001017F0101003F4040403FB2
:10315000001F2040201F003F4038403F00631408FC
:1031600014630007087008070061514945430000D7
:103170007F414100000204081020000041417F000F
:1031800000040201020400404040404000000102EF
:103190000400002054545478007F484444380038D8
:1031A0004444442000384444487F00385454541860
:1031B00000087E0901020018A4A4A47C007F080472
:1031C00004780000447D4000004080847D00007F42
:1031D000102844000000417F4000007C041804785F
:1031E000007C0804047800384444443800FC24245B
:1031F00024180018242418FC007C08040408004843
:103200005454542000043F444020003C4040207C63
:10321000001C2040201C003C4030403C0044281052
:103220002844001CA0A0A07C004464544C4400002E
:10323000087F41000000007F00000000417F08007F
:1032400000080408100800002300000000380140B6
:1032500018000000FFFFFFFF00000000000000005A
:1032600012000000003801400B000000FFFFFFFFCC
:1032700000000000000000002600000000380140AF
:1032800018000000FFFFFFFF00000000000000002A
:1032900025000000003801400B000000FFFFFFFF89
:1032A000000000000000000001000000000000001D
:1032B000060000000C0000000D0000000F000000E0
:1032C000100000000E0000000100000002000000DD
:1032D00010000000110000001200000013000000A8
:1032E0001400000015000000160000001700000088
:1032F0002000000021000000220000002300000048
:103300002400000025000000260000002700000027
:10331000286E756C6C2900000000000000000000A1
:10332000FA17000032180000F0170000F417000030
:10333000F617000014180000F6170000A01900008E
:10334000D0190000E8210000162200001A22000017
:10335000242200002C220000302200003A2200002B
:10336000422200004A2200004E2200005A220000A1
:1033700066220000722200007622000082220000F5
:103380008E2200009A2200009E220000A42200004B
:10339000A8220000B0220000B4220000BC220000DD
:1033A000C0220000C8220000CC220000D822000069
:1033B00001000000020000000400000008000000FE
:1033C000100000002000000040000000800000000D
:1033D000DE270000E8270000EC270000F0270000AF
:1033E000F6270000FA27000000010202030303038E
:1033F0000404040404040404050505050505050585
:103400000505050505050505060606060606060664
:10341000060606060606060606060606060606064C
:103420000606060606060606070707070707070734
:10343000070707070707070707070707070707071C
:10344000070707070707070707070707070707070C
:1034500007070707070707070707070707070707FC
:1034600007070707070707070808080808080808E4
:1034700008080808080808080808080808080808CC
:1034800008080808080808080808080808080808BC
:1034900008080808080808080808080808080808AC
:1034A000080808080808080808080808080808089C
:1034B000080808080808080808080808080808088C
:1034C000080808080808080808080808080808087C
:1034D000080808080808080808080808080808086C
:0834E0000808080808080808A4
:0C34E800F8290000A007000030190000C7
:1034F40000080140001001400014014014000000C5
:10350400000000001400000000000000140000008F
:10351400000000001400000000000000140000007F
:10352400000000001400000000000000140000006F
:10353400000000001400000000000000020406085F
:1035440004080C100810182010203040204060801F
:10355400010203040506070801020304050607081F
:103564000000000000000000000000000000000057
:103574000000000000000000FFFFFFFFFFFFFFFF4F
:10358400FFFFFFFFFFFFFFFF00000000010000003E
:103594007A030100FFFFFF00DC05DC05DC05000009
:0835A400006CDC0200000000D5
:00000001FF
