:100000006F20C03E000000000C1D0000101D00000D
:1000100000000000000000000000000000000000E0
:1000200000000000000000000000000000000000D0
:10003000F218000000000000BC23000000000000D7
:10004000BE230000C0230000C2230000C423000020
:1000500090190000C8230000CA230000CC23000030
:10006000CE230000D0230000D2230000D4230000C0
:10007000D6230000D8230000DA230000DC23000090
:10008000DE230000E0230000E22300003A15000018
:10009000E6230000E4150000F21500000000000057
:1000A0003D432A876373C3029377F700BDEFADE545
:1000B000937606FF3D8ABA960CC34CC30CC74CC757
:1000C0004107E36BD7FE11E28280B306C3408A0684
:1000D0009702000096966780A6002307B700A30644
:1000E000B7002306B700A305B7002305B700A30494
:1000F000B7002304B700A303B7002303B700A3028C
:10010000B7002302B700A301B7002301B700A30083
:10011000B7002300B700828093F5F50F9396850012
:10012000D58D93960501D58D61B7939627009702DB
:10013000000096968682E78086FA9680C1171D8F0A
:100140003E96E374C3F8A5B7511126C022C206C477
:10015000828282441244A240310182802A86014573
:1001600093F6150091C2329585810606F5F98280D5
:1001700000000000634E050263C305042E86AA85B5
:100180007D5515C285466378B6006356C0000606E5
:100190008606E36CB6FE014563E4C500918D558D7E
:1001A00085820582F5FA82808682C93F2E85828209
:1001B0003305A04063D70500B305B040C1B7B30510
:1001C000B0408682653F3305A0408282868263C745
:1001D0000500634905005D372E858282B305B04076
:1001E000E35B05FE3305A040513F3305B0408282FA
:1001F0000000EFF27FF513844185AA85254613851B
:100200004185EF209043A3040400A1B7EFF2DFF390
:10021000611181451305000CEF20407B81451305DA
:10022000600CEF20A07AB70400209307A0379384D6
:1002300084109EA013844182A92E1305A0372300A9
:1002400004003121EF00701213052003EF00D01ECF
:10025000A1473EC2B73700009387074A1307000241
:100260009306800313060008814501453EC0D1472F
:10027000EF002073EF00300C1305007DEF20F00439
:100280009307803E9EA01C2081E71305803EC12677
:10029000D52EEF00500AFD26A1473EC2B737000019
:1002A0009387874A3EC05147D14793068003130680
:1002B000000881450145EF00C06EEF00D00713052F
:1002C000000CEF20006E9307200363F6A70029457A
:1002D000EF20A07FEDB77D26B7370000214493873C
:1002E000474B22C23EC00147814793068003130655
:1002F000000881450145EF00C06AB73700009387C9
:10030000C74B22C23EC00147C14793068003130674
:10031000000881450145EF00C068B73700009387AA
:10032000474C22C23EC00147930700029306800358
:100330001306000881450145AD25EF00C07F21016E
:1003400009BDEFF27FE001111305600CEF2060653D
:1003500037A607004205130686058146418181457F
:10036000EF30600831668146130616BDEF209038E5
:1003700023A4A182856713878182238101829386CA
:1003800087BB3AC6938421821384318263EEA60030
:10039000182089479CA08947630EF7003735000075
:1003A0001305C546B93539A0138747CE6365A7162F
:1003B00085479CA0842099E0238A01841305000CC2
:1003C00004A0EF20005E13870182420585473AC4EE
:1003D00041816389F418BA878AA3A2471307007D75
:1003E0009306803E8A231306F03F8145EF10A02E2E
:1003F0003704002083578410420541811304841080
:1004000063F5A7168907C207C1836367F5161EA0A7
:1004100083C7418299E30A201D2C85476390F41617
:10042000EF20E0699305803E41339307301F63E777
:10043000A714A1473EC2B737000093878748130728
:10044000000493068003130600083EC081458147DF
:100450000145812BB2479305803E84432685A9330D
:1004600093054006213B2AC69305803E26853933F5
:100470003247040837360000AA8613060649C145EC
:100480002685EF00D05721431AC21307000226C069
:100490008147930680031306000881450145112317
:1004A000A247B73200001386C2499623C14526856C
:1004B000EF00F054A14613060002C14513050002E7
:1004C000E92A21431AC226C0C14713070002930636
:1004D00080031306000881450145E1211620B7324B
:1004E00000001386C249C1452685EF0050512143C3
:1004F0001AC2930700021307000293068003130633
:100500000008814526C00145692935252945EF2088
:10051000C05B05613DB913874719E37DA7E8938761
:10052000077763EDA700182089479CA08947E3035C
:10053000F7E83735000013054547ADB589671387E0
:100540004796E377A7E69387472CE3F5A7E61820BD
:1005500089479CA08947E30FF7E43735000013056E
:10056000C54789B50581A24785BDE373F5EAF11753
:10057000C207C183E3FDA7E80AA059BDA1473EC257
:10058000B73700009387C7485DBD7D572382E1825E
:100590008280EFF27FBB130181FDEF10F03693876D
:1005A000C182982355E305650547854513050581F7
:1005B00098A3EF101001C1477C86E1473ECA6C004A
:1005C0008D47371501403EC823170100EF10E05951
:1005D0009567373401409387F7E17C828A859307DA
:1005E000F002130504C07C802311010023130100D5
:1005F00023140100EF109002C1679387070602CE13
:100600003ECC2C089307C05D130504C0FC8702D0C4
:1006100002D2EF1090058545130504C0EF10B00E0F
:100620008545130504C0EF10B00C8545130504C0C3
:10063000EF10B00DA145130504C0EF10B00E8545B5
:10064000130504C0EF1050091301810219B6EFF22F
:10065000BFAF85679387479CBE8563E3A700AA85E4
:1006600093970501C1831307401F63F4E7009305C7
:10067000401FC20537350140C181130505C0EF1089
:10068000D00BC1BCEFF25FAC370500201306003879
:1006900081451305851629346DBC6357C00C63551D
:1006A000D00C2A8363530500014342032A96930723
:1006B00000081353034163D4C70013060008420621
:1006C00041866353C30AAE8763D305008147C207DF
:1006D000B69513078003C1876354B7009305800361
:1006E00093960501C18663D1D70851119382F6FF15
:1006F000B306D0409305F00F26C29D8A93D43740AD
:100700009D8BB397F500B7030020B3D5D5403EC00D
:1007100022C493D2324093F5F50FA68793838316B4
:1007200063D6F20022449244310182809306F00F96
:100730006393F400824693F6F60F6393F200ED8E16
:10074000139777001A971E971A8593C6F6FF002312
:1007500005054205758C00A341850507E319A6FE32
:100760008507C207C1876DBF8280EFF2FF9D13012D
:10077000C1FD8312010303144103638C0218630A51
:10078000041863080618638606181303F00763420B
:10079000E3186340A31813037003634CF316634A12
:1007A000B316BA846353A700AA84C2043303C500F6
:1007B000B3035700C184635A730C7D152A96420611
:1007C0003385D5003383870041866354650C1385D8
:1007D000F5FFAA96C2061303F007C186328563545B
:1007E000C3001305F00713160501418632C26342A8
:1007F00096123E8363D3B7002E83131603014186FE
:1008000032C013067003B6856354D6009305700397
:1008100093960501C18636C482461396050116C615
:1008200041866348D60E3ED092470546B306D64071
:10083000058E3E96AE968245C2064206C186418628
:1008400026857D143ACE913D9357F4419D8B3E947D
:10085000935734403ECAB242B707002093878716A9
:1008600001443ECCD24763C6870A0257931734002F
:100870009685BA9793F7F70F228516C83EC6EFF014
:10088000FF8D81462143C2421DA01306F7FF169635
:100890003DB79386F7FFA29635BFF247B385F600C2
:1008A00093F5F50F63DB9500850693F6F60FE3C627
:1008B00056FE05041374F40F75B79247E3C6B7FEEE
:1008C0006257B387A6000146BA973EC8B2470247AF
:1008D000B29793F7F70F63CAE70222476347F7021D
:1008E000424718233357C740058B05C3E24313D74C
:1008F00037001E071E972E9785439D8BB397F300F5
:1009000083430700B3E777001CA30506E31066FCEA
:1009100061BF130141026FF0DF83EFF2FF82130129
:10092000C1FD034441032AC82ECA22C603040103A1
:1009300036CC3ACE130304FE1374F30FA2821304D1
:10094000E00563685404B2403ED0A143B284BA8249
:10095000368463947004931313009A939390130056
:1009600032438D639383C34C869399401EC41AC24D
:1009700006C01ECCDD3BE243F242214799473EC010
:10098000D245825742453AC21EC41687A2862686A1
:10099000E93B130141026FF0CFFB014781478143DF
:1009A000F9BFEFF26FFA130181FD834381033A83AC
:1009B0002AC62EC832CA36CC2147BE84D2529947A5
:1009C0006383E30081473EC4938723001A843ECEAD
:1009D0008387020089E7130181026FF08FF72947AF
:1009E0006399E700F24785021A84BE94C204C18469
:1009F000C5B7E3CF07FCE2465246C24532451EC2A8
:100A00003EC02287A68716DA1AD21ED03937A247EF
:100A1000D25212533E9442044184850282534DBF08
:100A2000EFF28FF2894537150140EF1060219145B3
:100A300037150140EF10C020894537150140EF10F0
:100A40006020914537150140EF10C01F6FF06FF027
:100A5000EFF28FEFAA84214493978401E1878945BF
:100A60003715014063D10704EF10801D91453715FC
:100A70000140EF10E01C7D149145371501408604BC
:100A80001374F40FEF10001C93F4F40F71F49145FC
:100A900037150140EF10C01A914537150140EF108E
:100AA000601A6FF00FEBEF10E019C9B7EFF2CFE962
:100AB000894537150140EF10E01891453715014081
:100AC000EF100018894537150140EF1060176FF0DF
:100AD0004FE8EFF26FE72A84A137130580078D3FB7
:100AE0000145BD372285AD37D1376FF08FE6EFF284
:100AF000AFE5AE842A842D3713058007913F130597
:100B00000004B937B707002083C7A710A2948DC38C
:100B100063159400613F6FF0CFE3082005040D3F9B
:100B2000C5BF082005041345F5FF1375F50F0D37F4
:100B3000E31994FEC5B7EFF22FE1938401860144D7
:100B400005041374F40F1365040B613749455137DD
:100B500021454137268593058005513F9947938468
:100B60000408E31FF4FC6FF0CFDEEFF2EFDD51116C
:100B70008545414502C002C202C4EF108024994756
:100B80007C80D1473EC48A858D47371501403EC2DF
:100B9000EF00B07D914537150140EF10600A89459F
:100BA00037150140EF10C0091305E00A1D37130582
:100BB000500D053713050008293F1305800A113F22
:100BC0001305F00339371305300D2137014511376F
:100BD00013050004FD3D1305100AE53D1305800CC7
:100BE000CD3D1305A00DF5354945E5351305100834
:100BF000CD351305F00CF13D1305900DD93D1305CE
:100C0000100FC13D1305B00DE93513050003D135B3
:100C10001305400A7D3D1305600A653D1305D008A4
:100C20004D3D51457D35EFF0FFA531371305F00AF5
:100C30004D3531016FF0EFD1EFF20FD10144634335
:100C400005002A841305100869351317040141872C
:100C50009307F00F63D4E7001304F00F1375F40F3C
:100C60008D3D6FF00FCF411106C62EC00DCD18413E
:100C7000AA8705C358417D5511CB8546631BD70014
:100C800098472300070023A207000545B240410111
:100C900082809847824614A39847050798C7D8438F
:100CA0007D17D8C3DDB705468A85EF007016F1BF02
:100CB000011122CC2EC206CE26CA2A848147930572
:100CC0000002634506029245BE95838505008DE5C9
:100CD00063D8C70263D4E702198E1305000293F5A7
:100CE00026002AC089C501E7930500032EC0858A26
:100CF000814495EAB2840DA08507F1B71D8EF1BF3E
:100D00000146E1BF824522853AC832C63EC4A13FB2
:100D1000A24732464247FD14E34690FEB284635335
:100D200006008144058E63C7E702A6879246338793
:100D3000974036978305070095EDB284634490048D
:100D4000635306000146F2406244D2443305F60084
:100D5000056182801D8FBA8793050003228532C802
:100D60003EC63AC40937B24722474246FD17EDF75F
:100D7000BA9465BF228532C63EC4F535A2473246D5
:100D800085076DB78245228532C43EC2E93DFD1418
:100D90002246924765B7397106DE22DC26DA3EC26A
:100DA00032833A8689ED92469307000301476C0827
:100DB000FC86FD3DF2506254D25421618280AA84A7
:100DC0003684AE8791CA294701446317E30063D58F
:100DD0000500B307B04005448646A3090102130786
:100DE0003103938666FC36C49A853E8532CA3AC87A
:100DF0001AC63EC0EFF04FBBA5468247324342477A
:100E0000524663D4A600A246369513050503930601
:100E1000F7FFA30FA7FE9A853E8532CC3ACA1AC8BF
:100E20003EC636C0EFF08FB5B247424352476246E6
:100E300063F9670401CC29CA9247898BB1C793052E
:100E4000D002268532C4053522467D169247918B05
:100E500095C306479307100632C493050003268501
:100E6000631EF7020935930580072685ED3B224670
:100E7000090479161647924682452685153D229526
:100E800015BFAA8702478DB782469307D002014457
:100E9000A38FF6FE9307E7FF3EC04DBFE9339305EE
:100EA0008005E1B70145828001458280130181FD03
:100EB00022D026CE06D22AC4AE82328402C6814413
:100EC0008385020089EDA24781C781453E85613B4C
:100ED000925002542685F2441301810282809307C6
:100EE00050026388F500224516C88504AD3BC24216
:100EF00039A88387120013871200639CB70022452C
:100F0000930550023AC8853342478504BA82850268
:100F100045BFD5DB9306B0026389D70463C8F600EA
:100F2000930630026386D704814705A09306D0025A
:100F3000638AD70093060003E398D7FE1387220045
:100F4000894721A0138722008547830607001306DF
:100F5000B0026383C6046341D60213063002638B7A
:100F6000C602BA820145A54681A0138722006DBF43
:100F7000138722009147D1BF1306D0026389C600B0
:100F800013060003E39FC6FC93E7270031A0050783
:100F90008547C1BF93E747000507E1B71316250052
:100FA000329506053A95850203860200130706FD71
:100FB0009375F70FE3F4B6FE1307E0029946631E3C
:100FC000E60085028146A54503860200130606FD5C
:100FD0001377F60F63F5E50236C6038702001306A2
:100FE000A006630DC70A6343E6021306C004630745
:100FF000C70A13068006630CC70881452DA81397FE
:101000002600BA968606B29685027DBF1306400773
:101010006306C7081306A0076302C7081306C006C5
:101020008145631AC700038612008D456314E600EC
:10103000850291458502038602009303000613078B
:10104000100663C4C300130710049303700663C43F
:10105000C30693035006635376189303700463C169
:10106000C30493055004635BB61613073004E31002
:10107000E6EA18409303440016CA230CE1001EC898
:10108000A30C01000147BE862A862C0849A80386C6
:1010900012008145E311E6FA890271BF8502B1BFF2
:1010A00093063006E307D6FC63CEC606930680059A
:1010B0006303D602A9BD930630076304D60463CB4D
:1010C000C6029306F0066302D60E9306000793E766
:1010D0004700E31ED6E29146639FD50A930384003E
:1010E0000C40504016CA3AC23EC01EC8AA870147EB
:1010F000C146B9A0930650076308D6069306800739
:1011000045BF1840B7460000930344009385C68C42
:1011100011C3BA85324716CA1EC8BE862A86224522
:10112000413E0DA091466394D502930384000C4088
:10113000504016CA3AC23EC01EC8AA870547A946F3
:1011400022458D33C243AA941E84D242C9B3B2460B
:101150000C4016C836C23AC011042A878546294673
:1011600022451539AA9461B39146639DD500930336
:1011700084000C40504016CA3AC23EC01EC8AA871E
:10118000014775BFB2460C4016C836C23AC01104BA
:101190002A878146E9B7B24616C80C40414636C296
:1011A0003AC011042A87814665BF9146639ED500E7
:1011B000930384000C40504016CA3AC23EC01EC879
:1011C000AA870147A146ADBFB2460C4016C836C239
:1011D0003AC011042A878146214659B70C401306AC
:1011E000840040403AC22A87224532C83EC0228647
:1011F000B687A94616CA4D39AA944244B9B7130115
:1012000081FD32833ED22EC42AC67008854748002D
:101210009A8506CC36CE3AD03EC232C04139E24041
:101220001301810282800145828082807D55828007
:10123000EFE29FF11C417111CC81DC439305310039
:101240000546829711016FE0DFF0EFE2FFEF7111C9
:10125000930531004105EF10005809E5888111011F
:101260006FE03FEF7D55E5BFEFE21FEE2E85B285C3
:10127000EF10C0456FE0FFED13F7F50FC54763EDC5
:10128000E7009167938747880A073E9793F70570B1
:101290000C43CD8F5CD5828093F6050C1306000CB1
:1012A000FD57E399C6FE9306700CE3E5E6FE93F75F
:1012B000F5031167130747868A07BA979C4311679E
:1012C000130747888A07BA9793F505709C43D1B7EF
:1012D00013F7F50FC54763EDE700916793874788DC
:1012E0000A073E9793F705700C43CD8F1CD582807B
:1012F00093F6050C1306000CFD57E399C6FE930602
:10130000700CE3E5E6FE93F7F503116713074786D4
:101310008A07BA979C431167130747888A07BA97C9
:1013200093F505709C43D1B7EFE21FE29307803E2F
:101330001CC591679387C78D1CC10CC9232205006A
:101340009305600C2A840D3F9305500C2285493784
:1013500058541C546314F700FD575CD4FD571CD837
:101360005CD86FE01FDFEFE23FDEB74501409385B9
:101370000580138501BE4D3F6FE0BFDDEFE2DFDC8E
:101380001C452A8481CB0D46AA858297232404001C
:101390002326040022856FE0DFDB1C4581CBEFE2D2
:1013A000BFDAAA850D4682976FE0BFDA8280B73731
:1013B0000140938707C06308F500B7070040631634
:1013C000F500054582800145828041657D1582805A
:1013D000EFE29FD72A84084DD93FAA8413058401E0
:1013E000EF10200D8A04138501832695232A04001B
:1013F00093044408232005001304440363868400F7
:10140000C1142685593FDDBF6FE0BFD4EFE2DFD3C3
:1014100071112A84C1642E852EC0FD14493F824576
:101420006313950001A01C4C91C301A093172500E4
:10143000138501833E95930744011CC1930700085F
:101440005CD4930700041CD80CCC1305840140C85D
:10145000232E04002320040223120402EF100002B2
:1014600013054403213F13054404093F13054405B4
:101470003137130544061937130544070137084C63
:101480002320040023220400232404002326040034
:1014900023280400232E040004D08545EF00F02605
:1014A000084C9305C401EF00701711016FE07FCA6B
:1014B000EFE29FC9232E050223260504232E0504EF
:1014C00023260506232E0506232C05008137B7E7C2
:1014D00000E0214723A2E7101307000223A2E71030
:1014E0001307000423A2E7106FE0BFC6EFE2DFC5D9
:1014F000184519E3EF1060625C4582976FE07FC585
:1015000011E101A0EFE25FC42A8408418545EF00A4
:10151000102315C11C40DE27858B91CF2285EF005B
:10152000B07508415C5D81C713054503C1370840AC
:101530008545EF0050226FE0DFC103A5018319C18B
:1015400011057D3F7300203011E101A01C41DA2715
:10155000098B11EBDA27118B19E7DA27218B01E7C9
:10156000DA27418B3DCFEFE23FBE2A8489453E8595
:10157000EF00F01C1C401DC189453E85EF00B01DE9
:1015800085442285EF00506F084192049384440300
:1015900026951C4591C3993F6FE0BFBB3E859145A1
:1015A000EF00F0191C4019C591453E85EF00B01AB7
:1015B0008944C1BF3E85A145EF0070181C4019C584
:1015C000A1453E85EF0030198D4465BFC1453E857C
:1015D000EF00F0165DD50840C1459144EF00B0170B
:1015E0004DB7828003A5018319C11105B13F730076
:1015F0002030711122C013840183484011C51105A8
:101600000137484011058937024411017300203029
:10161000EFE29FB3328419C9AE87634C05000947D6
:101620006349A700B2853E85EF10400A22856FE02E
:101630005FB218412286BE8558430297C5BFEFE2CC
:10164000BFB02A84EF10A04748C41C402285DC4B61
:101650008297635A0500EF1080465C441D8D1C4440
:10166000E365F5FE7D556FE0DFAEEFE2FFAD6111A2
:10167000AA8401442EC232C0630DC4002685C1373E
:101680006349050092450246B387850088A3050497
:10169000D5B7228521016FE0DFABEFE2FFAA511140
:1016A000014495C6B684AA8701443E8532C42EC241
:1016B0003EC07137634D05009245630AB50022466E
:1016C00082473307860008A30504E39084FE228541
:1016D00031016FE01FA8EFE23FA72E846111B3052F
:1016E000D740018D36C032C2EFE05FA71246B30586
:1016F0008640EFE03FA88246210136956FE07FA546
:10170000EFE29FA4912C6FE0DFA4EFE2FFA38547F7
:101710006301F50219C589476303F50201456FE0CE
:101720005FA311458545712D3715014013050580CF
:10173000FDB741458545712537150140CDB71305E6
:1017400000028545BD2D3715014013050540C1BF79
:10175000EFE29F9F8D6593858570EF0070433D811B
:101760009377F50125476373F70001A01165130511
:1017700005903E9508216FE0DF9DEFE2FF9CB727C3
:101780000140938707406316F50085451305002047
:101790000D2D03A541809317350163C707008D65A3
:1017A00093858570EF0030386FE0BF9AEFE2DF99E4
:1017B0008145BD2C6FE0FF99EFE21F990111AA84CA
:1017C000614681452800EFE0BF8D939734012313D4
:1017D000010063D907008567850763E5970063808B
:1017E000F40801A08D65938585702685EF009037FC
:1017F0002A842685B13FAA8722853EC023A29180F4
:10180000AD3F316539230547230EE1002C00370732
:101810000E0022853ACA02CC02C602C402C8D122F6
:1018200085452285232004002124824722859D4668
:1018300093F5F70F05460D2485452285112489452A
:101840002285C12C6DDD7C442285C207C1837C8347
:10185000B13F2285A522288305616FE09F8F372441
:101860000140A1471304044041BFEFE2FF8D8D66A4
:101870005111938546772AC0EF00D02EEFF03FB389
:101880001317250093840183BA948C401384018339
:1018900002468DE58D669385467732853AC4EF0022
:1018A000702C2AC213054008EF10402492452AC02C
:1018B000EFF01FC09C408246224794C3B307E40068
:1018C0009C43804309C82285EFF09FB093054008F0
:1018D0002285EF10E02331016FE0BF8703A58183EC
:1018E00083A5C18382808280EFE21F86C53F6FE0BF
:1018F0005F869387818303A3070083A347001307B1
:1019000013003335670098C3B3067500D4C3E13FB5
:10191000B7F700E023A2070073002030EFE2DF8278
:1019200037F400E0232204002320040023240400D1
:1019300003A5C1809305803EEFE05F847D1508C854
:10194000BD471CC07D57B7E700E02386E740056729
:1019500023A0E7106FE0EFFFEFE20FFFC1376FE06A
:101960004FFF814705476307E5008507058193F72A
:10197000F70FD5BF370700208E0713070700BA9768
:10198000DC4391C7EFE24FFC82976FE08FFC8280CF
:10199000611122C226C00544A14422855D2219C5D9
:1019A00022857D2A131504014181653FFD1406043B
:1019B000EDF412448244210173002030B727014026
:1019C00093870740631EF500EFE20FF88545130586
:1019D0000020352181451305002015216FE06FF7A8
:1019E00082805C413707F1FF1307F7EF7D8FDC4101
:1019F0009441A207D58FD98F5CC11C4537F7F1FF01
:101A00001307D77FD4457D8F9C49D58F9445860693
:101A1000D58FD98F1CC55C55370710FF7D177D8F7B
:101A2000DC29FD1793F7F70FD207D98F5CD5828099
:101A30001C4589C593E717001CC58280F99BEDBF43
:101A40001C4591C537075000D98F1CC582803707C8
:101A5000B0FF7D17F98FD5BFA54763F8B70413878B
:101A600065FF931717008322C500BA971D433313F0
:101A7000F3001343F3FF33735300B397F600B3E758
:101A800067005CC5994763E3C7047D16931726007A
:101A90003E965859FD47B397C70093C7F7FFF98F94
:101AA000B395C500DD8D4CD9828093971500032333
:101AB0000501AE971D473317F7001347F7FF33773C
:101AC0006700B397F6005D8F18C96DBFB14763E239
:101AD000C7026516931726003E961859FD47B3971F
:101AE000C70093C7F7FFF98FB395C500DD8D0CD9FB
:101AF00082804D161317260054553A96FD47B3972A
:101B0000C70093C7F7FFF58FB395C500DD8D4CD5A2
:101B1000828008416D8D3335A000828013878180DB
:101B20001C43938641CC3E956369D500938681D34F
:101B300063E5A60008C33E858280FD57EDBF828025
:101B40008280B70701401387074083A70740584B9F
:101B5000698F09C77D8D3335A00082800145828061
:101B6000B707014023AAA74082809C45611122C289
:101B700026C013F7070113F3F70001C7D8413363F9
:101B8000E30092211377F60F29C78323050001474D
:101B900013048002930480048546B395E600B3766F
:101BA000B6006392D50293122700BD46B396560045
:101BB00093C6F6FFB3F37600B3125300B3E372009B
:101BC000639787064CC90507A146E317D7FC232076
:101BD00075001307F00F6378C70483234500A146FF
:101BE00013048002930480040547B312D7003377AF
:101BF00056006394E202139726000117BD45B39582
:101C0000E50093C5F5FFB3F375003317E300B36345
:101C1000770063928702232A550085064147E395A2
:101C2000E6FC232275001244824421018280E39C59
:101C300097F80CC949BFE39297FE23285500F1BFDE
:101C40000CC982804CC982803703014003274300BE
:101C50009317350063D00702B707C0FFF517F98F58
:101C600037070007D98FD9CD370700F07D17798D59
:101C7000C98F49A8635D0500B707E0FFED17F98F2D
:101C800037070007D98FBDCD06050581D5B7B70742
:101C90003000931605013376F500C1826313F60216
:101CA000370600F97D16B377C70003274300798E06
:101CB0002322C300A1C95581131745003395E600BF
:101CC00045BF9317B50063D407029357050113F678
:101CD000F7008D47B397C70093C7F7FFF98F370712
:101CE0000007D98F85C1135755011207C1BF558110
:101CF00012053395A6009347F5FFF98F37070007C4
:101D0000D98FBDF5370701405CC382807300203056
:101D100001A0B7160240DC4241771307F77FF98F25
:101D20005D8DC8C28280EFE22FC2371702405C434C
:101D300091462A84B18B6385D700A146638DD7066F
:101D4000B7376E01938707601CC0B7160240DC42AC
:101D5000918313F7F700B707002093874705BA97D9
:101D60008C23DC42184093F5F50F93F707083355A1
:101D7000B70081E73A85EFE06FC048C008C448C4A7
:101D8000B7170240DC43AD83FD8B13D737008A07BA
:101D9000F18BD98F93F637010D476373D700D117B5
:101DA0003707002013070704BA978C23EFE00FBD15
:101DB00008C86FE00FBA5C43B777DC02938707C0AF
:101DC00061B799C5371702401C4F5D8D08CF8280DF
:101DD000B7170240984F1345F5FF798D88CF828061
:101DE00099C5371702405C4F5D8D48CF8280B71789
:101DF0000240D84F1345F5FF798DC8CF828099C531
:101E0000371702405C475D8D48C78280B717024094
:101E1000D8471345F5FF798DC8C782801E21373713
:101E20000140130707C0C207C1836306E5003707F7
:101E300000406316E500BA2193F7F7F8D98FFA212D
:101E400093F7F7CFC207C183D98F1EA1DE215EB5FC
:101E50009E211EB5B7370140938707C06314F50074
:101E60009C251EB985475EA982801A31FD77FD1732
:101E7000F98F1EB1035305025A215E2DE576938634
:101E8000F6CFFD8E9E2113160701BA21A207DD8E23
:101E9000F977FD17B3F7670003D38500C2064182C7
:101EA000336767003207D98F37370140C2071307FE
:101EB00007C0C182C183631BE50071777D17718FF5
:101EC000D2251A06518F131607014182FA2152A119
:101ED00056AD38C11EB182801E2189C593E7170017
:101EE0001EA18280C207C183F99BC207C183CDBFF7
:101EF0008357450491C52167D98F2312F504828049
:101F0000C607C583DDBF4EA982801E2189C593E720
:101F100007081EA18280C207C18393F7F7F7C207A3
:101F2000C183C5BF5A2DFD779387F77FF98FA2052F
:101F3000CD8FC207C1835EAD82802CC182801E29F5
:101F40004A25ED8F4205418189C76D8D3335A0004B
:101F500082800145828093C5F5FFC205C1810EA92B
:101F60008280EFE26F9E1629F577FD17F58FF62137
:101F7000DA252111D58F1EA95625FD779387379F26
:101F8000F58FD6212A842EC0D58F9625D58FB625DC
:101F9000D58F5EA55E29C207C18393F7F7CF5D8F0A
:101FA0005AA94800EFF03FD8B74701409387078010
:101FB00082456312F406C2475A24139517003E95D2
:101FC00042070E0541873E958C41635807048605FC
:101FD000EFE0CF9A930540062AC0EFE02F9A8247A0
:101FE00093144500930540063E85EFE0EF9B5E2489
:101FF000C207C18763D507020E0593054006130586
:102000002503EFE0AF971D89C98CC204C18006A4E7
:1020100061016FE00F94B24745B78A0555BF1205BD
:102020009305400613052503EFE04F953D89E9BF71
:1020300091C55E250967D98F5EA582805A25F977FB
:10204000FD17F98FD5BF93F5F51F4EA182804A2168
:102050001375F51F82805E2989C593E787005EA905
:102060008280C207C183DD9BC207C183CDBF0A2125
:102070006D8D3335A0008280B71702409843B706B4
:10208000FFFC1367170098C3D843758FD8C39843D4
:10209000B706F7FEFD16758F98C39843B706FCFF89
:1020A000FD16758F98C3D44341777D17F98ED4C33D
:1020B000B7069F0094C7B72602409042719A90C21B
:1020C00090421366160090C2D443D4C3D443758F94
:1020D000D8C3D843B7060001D8C39843558F98C3D7
:1020E000984393166700E3DD06FED843B716024017
:1020F000719BD8C3D84313672700D8C32147DC425C
:10210000B18BE39EE7FE8280EFE20F843717024037
:102110005C439146B18B1384C1806385D700A1468F
:102120006382D704B7376E01938707601CC0B71668
:102130000240DC420840918313F7F700B707002004
:1021400093874706BA978C23DC4293F5F50F93F7F4
:1021500007083357B50081E7EFE04F822A8718C0A0
:102160006FD03FFF5C43B777DC02938707C07DBF2A
:10217000FD577D576317F500014582806387A700EF
:10218000B1059C41E39CE7FEC5BF05458280EFD2C7
:10219000BFFB311102C402C602C8FD576313F5002C
:1021A00001A093D7854093F4F7079377F500139731
:1021B0002700916793878797BA979C4311813D8940
:1021C0002E843EC0EFF06FD42AC28DC485450545EC
:1021D000EFF03FBF9387F4FF6947636DF700116726
:1021E0008A071307C790BA979C43828785450545A0
:1021F000EFF09FA593572440137734008D8B7DC754
:102200003AC609476380E70E0D47638FE70C054721
:102210006388E70CC1473EC8EDA08145C9BF85452D
:10222000370500100905E9B7854537054010DDBFC2
:102230008145E5BF854537050080110555BF8545BA
:102240003705208075B7854537052080FDB7814566
:10225000E5BF3705160085451305050451BF8545C3
:10226000370516001305050861B7854537051600C3
:102270001305050CB5BF8145D5BF37051800854549
:1022800013050510B5B7370518008545130505205A
:1022900085B78545370518001305053091BF814581
:1022A000D5BF85452165A9B78145EDBF8545370572
:1022B00020008DBF8145E5BF854537052000B5BFAE
:1022C0008145E5BF85453705200069BF8145E5BFEC
:1022D0008545370530001305054019BF8145D5BF39
:1022E000D14715BFE14705BFF14735B705476383C0
:1022F000E70299C789466381D7029307800221BF0D
:1023000002C8824712452C007C84EFF01F865101E1
:102310006FD03FE4914701B711840D889307800483
:10232000E31DE4FCCDBDFD577D57631DF5008280A4
:102330006399A700EFD25FE18C45EFF05FE56FD0C6
:102340005FE1B1059C41E395E7FE01A07D579C410B
:102350006394E700014582806394A700C8418280AE
:10236000B105F5B7FD576307F500EFD2FFDDF93F83
:102370006FD03FDE014582807D579C416394E7002A
:102380007D5582806394A70088458280B105F5B7AA
:10239000FD576307F500EFD23FDBF93F6FD07FDBDE
:1023A0007D5582806305B50019C181E5AA852E851A
:1023B00082808145EDBF01A001A001A001A001A084
:1023C00001A001A001A001A001A001A001A001A005
:1023D00001A001A001A001A001A001A001A001A0F5
:1023E00001A001A001A001A001A001A097E1FF1F91
:1023F0009381C151138181EF1715000013054572B8
:1024000097E5FF1F938505C01386018263FAC50017
:102410008322050023A0550011059105E3EAC5FEBE
:1024200013850182938541CC6377B5002320050095
:102430001105E36DB5FE93020008739002308D42E2
:102440007390428097E2FFFF9382C2BB93E2320017
:1024500073905230170500001305656EEF00406D54
:10246000EF004071EFF05FC1970200009382623A83
:10247000739012347300203071158280EFD2DFCC5C
:102480001841B7370140938707C02A846318F700C3
:102490000565854513050580EFF0BF921840B70725
:1024A00000406316F70085450545EFF07F936FD038
:1024B0005FCAEFD27FC91841B7370140938707C081
:1024C0002A846318F7000565814513050580EFF040
:1024D0005F8F1840B70700406316F7008145054538
:1024E000EFF01F906FD0FFC6EFD21FC61301C1FDE2
:1024F000AA84084D32C611662EC49305C6843ACA12
:1025000036C8EFF03FE62AD0C84C916693854683E3
:10251000EFF05FE52A84885091659385C581EFF0DF
:102520007FE42AC0C850916593854580EFF09FE312
:102530000257116691662AC232CC36CE630B070E63
:10254000D04CFD566304D6006305040E9050FD5632
:102550006305D6008247638E070CD050FD56630595
:10256000D60092476387070C3A85A285EFF09FE378
:10257000824588C0EFF01FE3924588C0EFF09FE2EC
:1025800088C045C93747014013070780631BE50032
:1025900085451165EFF0FF821307000223860402D0
:1025A00098D4E247884C9385C784EFF0DFD719C4ED
:1025B000F247C84C93854783EFF0FFD682478146A8
:1025C00089CB885091659385C581EFF0DFD593065F
:1025D0000010924799CBC850916593E606209385E9
:1025E000458036C0EFF03FD48246A24703C7C402FD
:1025F00088409CC4B24713162700DEA4D247138735
:1026000001843297FEA4C2471386440010C33147A9
:10261000C8C09EA8BAA8D6A801E48545EFF0BFA31C
:10262000C84093858400EFF0DF93C8408545EFF004
:102630003FA0130141026FD0DFB1EFD2FFB091672D
:1026400083A787871167130747888A07BA9780434C
:1026500091659385C5842285EFF0DFD005C13705EC
:102660000020F165930745070147814601469385A0
:1026700005201305450780CFEFF01FE76FD07FAD32
:10268000EFD29FAC8347C502930500021397270042
:1026900093870184BA979C438843EFF05F9D13357D
:1026A00015006FD01FABEFD23FAA8347C502930539
:1026B00000041397270093870184BA979C438843AB
:1026C000EFF0FF9A133515006FD0BFA8EFD2DFA748
:1026D000411137040020AA842EC2EFF02FA09307E7
:1026E000440783C7C7022AC41304440785E7034786
:1026F000C402938701840A07BA979C43F1173EC02E
:10270000938701843EC68247C1EF02C21245410150
:102710006FD03FA4916783A7878711671307478806
:102720008A07BA979C4391669385C6843E853EC0CE
:10273000EFF05FC3916671D9230604021387018409
:102740001C4399EF8347C402850793F7F70F2306CD
:10275000F402FDD7EFF07FEE8347C402C9DB75B703
:1027600002459385C684EFF0FFBF0346C40213877A
:10277000018493172600BA979C4391669C43E39388
:10278000A7FC35D6C1BFEFF06F95A247B307F54060
:102790003335F500E39BA5F61307703EE367F7F6C4
:1027A0000245EFF05FF065F19247A6973EC4A2475D
:1027B000E38EF4F40245EFF01FEF6DFD8347C40292
:1027C000324785048A07BA979C4383C5F4FF884340
:1027D000EFF07F87E9BF11E57D5582807D556FD091
:1027E0005F97EFD27F96AA842E84EFF07FE97DF584
:1027F00083C7C4021397270093870184BA979C4329
:102800008843EFF0DF8408A00145D1BF8280EFD27A
:10281000BF93EFE0FFEEEFD07F9FEFD09FB2F5BF09
:102820009376850FAA87ADE61376F50F1167130728
:1028300047860A063A96104213770570C545518FB0
:102840001376F70F63E7C50C1167130747880A066D
:102850003A96084213F7F70F8DC293F6070C13064A
:10286000000C130700706393C60293F6F70F13066C
:10287000700C636DD60013F7F70391660A07938611
:102880004686369718435D8F13770770598D82807F
:102890001377050C1306000C7D55E31AC7FE13F3DE
:1028A000F70F1307700C636D670013F7F7031166DA
:1028B000130646860A07329710234547E376C7F882
:1028C0001307700C6360670213F7F70311661306B2
:1028D00046860A07329718431306000C1377070C35
:1028E000631FC7029305700C7D55E3E265FA13F68A
:1028F000F7031167130747860A063A96104213F743
:102900000770518F1376F70F1377F70363F1C50242
:1029100082809375070C1305000C6384A5007D5518
:1029200082809305700CE3ECC5FE1377F703116604
:102930000A071306468632971843916593854588A2
:102940000A072E97084313F7F70F8DC293F6070C6B
:102950009305000C13070070E39AB6F293F6F70F95
:102960009305700CE3E4D5F213F7F7030A073297E7
:1029700011BF6387C502637DB600918D8547B3970C
:10298000B700636EF50005053355B5007D158280EF
:1029900001C90505B305B6403315B500C5BF0145EE
:1029A0008280EFD26FFAEFF0BFE7FD57630EF500BC
:1029B000138401810C40EFE03FE003A641810C400D
:1029C000EFF03FFB6FD0EFF80145EDBF9377F50FC8
:1029D00045476366F70811678A07130747883E97DC
:1029E000184393770570D98F7D576389E70CEFD231
:1029F000AFF513D42700138781C21374C403229741
:102A0000184393F4F700511133579700938681C20E
:102A10002EC0058B36C205CB8D653E8593854577E7
:102A20003EC4EFF0EFF4A24709C53E85EFE0FFE3B7
:102A3000A24712473A940547B3149700184093C42D
:102A4000F4FFF98C04C0824615476368D706116706
:102A50001307879993952600BA95984102871377B3
:102A6000050C9306000C631BD7041307700C6367F7
:102A7000F7049377F5031167130747868A07BA9718
:102A80009C431167130747888A07BA979C431375BD
:102A90000570C98F91BF91453E85EFF04FEF310131
:102AA0006FD02FEB8D45CDBFE145FDB7930580027B
:102AB000E5B78145D5B79D45C5B701A08280EFD266
:102AC000AFE8EFE07FE26FD0CFE805C1EFD2CFE70C
:102AD0002A84EFE07FE1AA84EFF05FD3EFE0DFE04C
:102AE000058DE36B85FE6FD0CFE68280511122C247
:102AF00006C42A8411E105442285C52811E5112860
:102B000011E105200295CDBFA2401244310182801F
:102B100001A89387418488438280511106C4112003
:102B2000D1A85111194506C4E92C0545EF00D01371
:102B3000AA858146014601451DA65111971700003F
:102B4000938707FE22C217140000130464FD1D8C36
:102B500026C006C40984BE8419E41244A2408244FB
:102B600031016FE0DFFD7D1493172400A6979C438D
:102B70008297DDB7511122C297170000938787F91A
:102B800017140000130404F91D8C26C006C4098420
:102B9000814463968402EFE0BFFA971700009387A1
:102BA00067F7171400001304A4F71D8C09848144EF
:102BB00063928402A24012448244310182801397BE
:102BC00024003E97184385040297971700009387C7
:102BD00067F4C1B7139724003E9718438504029702
:102BE00097170000938707F3E1B793878181AA8540
:102BF000884345A893878181AA85884309A0CDC1D0
:102C000083A7C5FF511122C206C426C01384C5FF85
:102C100063D307003E94AA84E12C938781849C436C
:102C200099EB2322040023A481841244A240268528
:102C3000824431017DAC637EF40014403307D4003C
:102C40006396E7009843DC43369718C05CC0E1BF49
:102C5000BA87D84319C3E37DE4FE94433386D70093
:102C6000631F86001040B29694C33386D700E31EDC
:102C7000C7FA10435843B29694C3D8C37DB763755F
:102C8000C400B1479CC055B71040B306C4006316DA
:102C9000D70014435843B29614C058C0C0C371B78C
:102CA0008280411126C293843500F19806C622C461
:102CB000A104B14763F5F404B14463E4B4042AC049
:102CC000052C1387818414438247368439E01387A7
:102CD000C184184301EB3E8581453EC0692823A687
:102CE000A18482473E85A6853EC071207D578247DC
:102CF0006314E506314798C33E85E52A29A0E3DE43
:102D000004FAB1471CC10145B2402244924441013A
:102D100082801840058F634E07022D466376E600D9
:102D200018C03A9404C031A058406392860223A48C
:102D3000E1843E857D2A1305B400130744006199A0
:102D4000B307E540F1D33E94098F18C075BFD8C2D0
:102D5000CDB7A28640409DBF130435007198E303B0
:102D600085FCB305A4403E853EC031207D57824797
:102D7000E31AE5FA41B7511122C22A842E8523A015
:102D800001CC06C4EFE09FD9FD576317F500938788
:102D900001CC9C4391C31CC0A240124431018280EB
:102DA000FD4763F6B700D9471CC17D5582807C4141
:102DB000411122C406C62E862A8491C71397250086
:102DC000BA97984319EB228532C0BD20AA85228587
:102DD00022440246B24041011DA8854601456308D0
:102DE000D700FD566319D700D9471CC00545B2402E
:102DF0002244410182802E8523A0070002970145CD
:102E0000FDB793878181AA8588436FF07FF95111BF
:102E100022C22A842E85B28523A001CC06C43D2D72
:102E2000FD576317F500938701CC9C4391C31CC0E9
:102E3000A24012443101828021ADAA8709CA8505CA
:102E400003C7F5FF85077D16A38FE7FE65FB3E965A
:102E50006393C70082808507A38F07FED5BF938742
:102E600001859C43AA8399EF138741C323A8E1847A
:102E700017D5FFFF13050519BA8709C51C4123AEF5
:102E8000F1CABA87D8437D437D556346E304638D19
:102E9000030203A3870863000304931227009A9296
:102EA00023A0C2000325031005463316E600518D0A
:102EB0002320A31023A0D20889466397D30083263A
:102EC0004310558E2322C310930617000A07D4C35C
:102ED000BA978CC70145828097D7FFFF93878712E7
:102EE00099C717050000130585C56FF07FC4828060
:102EF00082808280130141FD06D422D226D02A8707
:102F0000AE8763910620B68432832A8463FEC50EA1
:102F1000C166AE826363D626B70600016367D648F2
:102F200093558601E144971600009386A6AEAE96AF
:102F30009422B69493060002858E99CAB397D7005F
:102F4000B35497003313D600B3E2F4003314D70020
:102F500093540301A68516851AC216C0EFD0CFA4DC
:102F6000124382422AC693170301C183A6851685A0
:102F70001AC43EC0EFD08FA0AA852AC20245EFD066
:102F8000EF9D32479357040192464207D98F22435F
:102F900063FAA7009A971387F6FF63E4670063EC70
:102FA000A742BA86898FA6853E8536C61AC83EC412
:102FB000EFD08F9FA247A6852AC23E85EFD00F9CF7
:102FC000AA85AA84024542044180EFD02F999242FB
:102FD000B246C20233E48200637CA400424393877A
:102FE000F4FF1A9463656400F9146363A400BE845B
:102FF0009397060133E597008146B685A250125497
:1030000082541301C102828011EA2EC22AC0814576
:103010000545EFD0AF96924702472A83C1666365A4
:10302000D314B70600016366D33813568301E14415
:10303000971600009386069EB29683C2060013067A
:103040000002A692330656406312061413170301BA
:103050004183B3876740935403013AC08546A685F0
:103060003E8536C81AC63EC2EFD00F9492472AC496
:10307000A6853E85EFD08F9082452AC2EFD00F8E75
:1030800022479357040132434207D98FC24663FB5C
:10309000A70012469A971307F6FF63E4670063EFF1
:1030A000A7323AC2898FA6853E8536C81ACA3EC65F
:1030B000EFD08F8FB247A6852AC43E85EFD00F8C04
:1030C0008245AA844204EFD06F89A2424180C24661
:1030D000C20233E48200637CA40052439387F4FF6E
:1030E0001A9463656400F9146363A400BE84924774
:1030F000C20733E59700B685A250125482541301DB
:10310000C102828063E1D504C16563E7B604B705F7
:10311000000163E8B62893D58601614317150000C6
:103120001305458F2E950C219A9513030002330346
:10313000B340631D031063E2F628B337C70013C51D
:103140001700814619A081460145B685A250125448
:1031500082541301C10282809305F00F63F2D526D9
:1031600093D5860021435DBF9306F00F1A86E3F1E5
:1031700066EC13568300A14465BD9306F00FB2853B
:10318000E3F3C6DA93558600A14471BB3313C30041
:10319000B3D6570093540301B397C700B3525700F7
:1031A0003314C70013170301B3E7F2004183A68568
:1031B00036853EC21AC83AC036C4EFC0FFFEA246EA
:1031C0002AC6A6853685EFC07FFBAA852AC402459C
:1031D000EFC0DFF832469247A2464206C183D18F44
:1031E000424363FBA7009A971387F6FF63E3671ECA
:1031F00063F1A71EF9169A973387A740A6853A85EB
:1032000036CA1AC83AC4EFC03FFA22472AC6A68572
:103210003A85EFC0BFF6AA852AC40245EFC01FF465
:10322000B24730822247C207D18F4243D24663FB66
:10323000A7009A971306F7FF63E9671863F7A718C3
:1032400079179A97C206898FD98E11BD3355B6006A
:10325000B3966600C98EB353B7003ACC33176600F5
:1032600013D40601B3D4B7003AC4B39767001397D9
:103270000601B3E7F3004183A28526853EC01ACA42
:1032800036C83AC2EFC05FF22AC6A2852685EFC0D3
:10329000FFEEAA85AA841245EFC05FECB2438247D5
:1032A000C246C20313D6070133E6C3005243624746
:1032B000637BA60036969385F4FF636AD610637825
:1032C000A610F9143696098EA28532853ACC1ACA10
:1032D00036CE32C8EFC05FED4246A2852AC632859F
:1032E000EFC0DFE9AA852A841245EFC03FE7B2426A
:1032F00030805243C20233E6C2006247637CA600BC
:10330000F2469305F4FF3696636FD60A637DA60AEC
:1033100079143696C1669382F6FFA246939704010C
:10332000C18F33F45700098EB3F2560032C293D3E3
:10333000070193D4060122859685EFC03FE22AC09B
:10334000A6852285EFC09FE12A8496851E85EFC061
:10335000FFE0AA82A6851E85EFC05FE08246169434
:10336000C182369463745400C16636959356040145
:103370003695924663E3A6026385A6003E858146A4
:10338000E9B3416682457D16B376C400C2066D8EF0
:1033900033176700B296E373D7FE1385F7FF8146B4
:1033A0006DB393D50601414395BB93550601C144C6
:1033B0009DBE13560301C144A5B98146054571B3AD
:1033C000B6850143A1BB2E84B1B73287A5BDAE84BB
:1033D000DDBDBA8615B5F9169A97E9B61307E6FF6B
:1033E0003AC29A97C1B121112AC236C006CAAA862A
:1033F00022C826C6328732C481470145014333863D
:103400006600937317003304F50093D2F601058329
:10341000B3346600860763850300338584003283F6
:103420008606B3E7570061FFAA8789C52245EFC02A
:10343000FFD2AA97024711C71245BA85EFC01FD223
:10344000AA97D2404244B2441A85BE856101828067
:103450009307800523A0F1CC7D55828093078005DA
:1034600023A0F1CC7D55828001A000004241542070
:103470004C4F570042415420455252004241542083
:1034800048494748000000002100000020000000DB
:10349000256C752E256C7556000000002575000002
:1034A000496E69740000000044495341524D45443F
:1034B000000000004261743A000000005468723A53
:1034C0000000000050574D3A0000000000000000CE
:1034D00000000000002F000000000700070000149B
:1034E0007F147F1400242A7F2A12002313086462A9
:1034F00000364955225000000007000000001C2241
:103500004100000041221C000014083E081400087D
:10351000083E0808000000A060000008080808082D
:10352000000060600000002010080402003E5149C5
:10353000453E0000427F4000004261514946002163
:1035400041454B31001814127F100027454545397D
:10355000003C4A49493000017109050300364949D8
:10356000493600064949291E000036360000000091
:1035700056360000000814224100001414141414DC
:10358000000041221408000201510906003E49557D
:10359000592E007C1211127C007F49494936003EA9
:1035A00041414122007F4141221C007F494949415C
:1035B000007F09090901003E4149497A007F080856
:1035C000087F0000417F4100002040413F01007F13
:1035D00008142241007F40404040007F020C027FDF
:1035E000007F0408107F003E4141413E007F0909F1
:1035F0000906003E4151215E007F09192946004617
:10360000494949310001017F0101003F4040403FED
:10361000001F2040201F003F4038403F0063140837
:103620001463000708700807006151494543000012
:103630007F414100000204081020000041417F004A
:10364000000402010204004040404040000001022A
:103650000400002054545478007F48444438003813
:103660004444442000384444487F0038545454189B
:1036700000087E0901020018A4A4A47C007F0804AD
:1036800004780000447D4000004080847D00007F7D
:10369000102844000000417F4000007C041804789A
:1036A000007C0804047800384444443800FC242496
:1036B00024180018242418FC007C0804040800487E
:1036C0005454542000043F444020003C4040207C9F
:1036D000001C2040201C003C4030403C004428108E
:1036E0002844001CA0A0A07C004464544C4400006A
:1036F000087F41000000007F00000000417F0800BB
:103700000008040810080000020000000024014026
:1037100000000000010000000024014000800000C3
:1037200014000000002401400000010022000000FD
:10373000002401400080010023000000002401401B
:10374000000002002500000000240140008002006B
:1037500026000000002401400000030024000000B7
:103760000024014000800300FFFFFFFF0000000075
:103770000000000024000000000000400B91000049
:1037800023000000000000400B11010010000000A9
:10379000000000400B9101002700000000000040E5
:1037A0000B11020022000000002C01400B8D0000D4
:1037B00001000000002C01400B0D0100130000006F
:1037C000002C01400B8D010014000000002C014072
:1037D0000B0D020020000000002C01400B8D0000AA
:1037E00002000000002C01400B0D01002100000030
:1037F000002C01400B8D0100FFFFFFFF00000000C7
:103800000000000023000000003801401800000004
:10381000FFFFFFFF0000000000000000120000009A
:10382000003801400B000000FFFFFFFF0000000018
:1038300000000000260000000038014018000000D1
:10384000FFFFFFFF00000000000000002500000057
:10385000003801400B000000FFFFFFFF00000000E8
:103860000000000001000000000000000600000051
:103870000C0000000D0000000F0000001000000010
:103880000E00000001000000020000001000000017
:1038900011000000120000001300000014000000DE
:1038A00015000000160000001700000020000000B6
:1038B000210000002200000023000000240000007E
:1038C000250000002600000027000000286E756C0F
:1038D0006C29000000000000000000003012000011
:1038E00068120000261200002A1200002C120000AC
:1038F0004A1200002C1200006A1600009A160000FE
:10390000000102030405060708090000EC2100007D
:103910001A2200001E22000028220000302200008F
:10392000342200003E220000462200004E22000009
:10393000522200005E2200006A220000762200006F
:103940007A22000086220000922200009E220000BF
:10395000A2220000A8220000AC220000B422000035
:10396000B8220000C0220000C4220000CC220000C7
:10397000D0220000DC220000010000000200000054
:1039800004000000080000001000000020000000FB
:103990004000000080000000962A0000A42A0000D9
:1039A000A82A0000AC2A0000B22A0000B62A0000B3
:1039B0000000000000000000000000000000000007
:1039C00000000000000000000000000000000000F7
:1039D00000000000000000000000000000000000E7
:1039E00000000000000000000000000000000000D7
:1039F00000000000000000000000000000000000C7
:103A000000000000000000000000000000000000B6
:103A10000001020203030303040404040404040475
:103A20000505050505050505050505050505050546
:103A30000606060606060606060606060606060626
:103A40000606060606060606060606060606060616
:103A500007070707070707070707070707070707F6
:103A600007070707070707070707070707070707E6
:103A700007070707070707070707070707070707D6
:103A800007070707070707070707070707070707C6
:103A900008080808080808080808080808080808A6
:103AA0000808080808080808080808080808080896
:103AB0000808080808080808080808080808080886
:103AC0000808080808080808080808080808080876
:103AD0000808080808080808080808080808080866
:103AE0000808080808080808080808080808080856
:103AF0000808080808080808080808080808080846
:103B00000808080808080808080808080808080835
:0C3B1000D82E00008A050000661300009B
:103B1C001400000000000000140000000000000071
:103B2C001400000000000000140000000000000061
:103B3C001400000000000000140000000000000051
:103B4C001400000000000000140000000000000041
:103B5C000204060804080C1008101820102030402D
:103B6C0020406080010203040506070801020304DB
:103B7C0005060708010203040506070801020304F1
:103B8C00050607080000000000000000000000000F
:103B9C00000000000000000000000000FFFFFFFF1D
:103BAC00FFFFFFFFFFFFFFFFFFFFFFFF0000000015
:103BBC000100000000000000D0390000F0390000C6
:103BCC00B039000000000000000000000000000000
:103BDC0000000000000000000000000000000000D9
:103BEC0000000000000000000000000000000000C9
:103BFC0000000000000000000000000000000000B9
:103C0C0000000000000000000000000000000000A8
:103C1C0000000000000000007A030100FFFFFFFF1E
:103C2C00CC050020006CDC020A0000000A00000039
:083C3C00A400002000000000BC
:00000001FF
