:100000006F105046000000002E1C0000301C000045
:1000100000000000000000000000000000000000E0
:1000200000000000000000000000000000000000D0
:10003000321C000000000000341C00000000000022
:10004000361C0000381C00003A1C00003C1C00005C
:100050003E1C0000401C0000421C0000441C00002C
:10006000461C0000481C00004A1C00004C1C0000FC
:100070004E1C0000501C0000521C0000541C0000CC
:10008000561C0000581C00005A1C00005C1C00009C
:100090005E1C0000601C0000621C000000000000EC
:1000A0003D432A876373C3029377F700BDEFADE545
:1000B000937606FF3D8ABA960CC34CC30CC74CC757
:1000C0004107E36BD7FE11E28280B306C3408A0684
:1000D0009702000096966780A6002307B700A30644
:1000E000B7002306B700A305B7002305B700A30494
:1000F000B7002304B700A303B7002303B700A3028C
:10010000B7002302B700A301B7002301B700A30083
:10011000B7002300B700828093F5F50F9396850012
:10012000D58D93960501D58D61B7939627009702DB
:10013000000096968682E78086FA9680C1171D8F0A
:100140003E96E374C3F8A5B72A86014593F61500D9
:1001500091C2329585810606F5F982800000000083
:10016000634E050263C305042E86AA857D5515C21C
:1001700085466378B6006356C00006068606E36CC3
:10018000B6FE014563E4C500918D558D85820582DB
:10019000F5FA82808682C93F2E8582823305A0408F
:1001A00063D70500B305B040C1B7B305B040868240
:1001B000653F3305A0408282868263C7050063499C
:1001C00005005D372E858282B305B040E35B05FEF6
:1001D0003305A040513F3305B040828200005111E9
:1001E00026C022C206C4828282441244A240310147
:1001F0008280EFF2DFFE130181FD3ACE8147634337
:100200000500AA879394070113038004B307C50070
:10021000C184130770046347F3001307F6FF2A979E
:10022000420741873383D50093028002930770020F
:1002300063C762009387F6FFAE97C207C187930238
:1002400070043A8363D4E2001303700413170301AC
:1002500041873AC26346971C2E8763D30500014746
:10026000420741873AC0130370023E876354F3008C
:100270001307700293170701C1873EC422478247C4
:100280006340F71A12448547338797402297420705
:1002900041876343E004F247FD1632C63ED293D74E
:1002A000F6419D8BBE9693D736403ECA9387818593
:1002B0002ED02ACE01443ECCD24763C387160257C4
:1002C00093173400B245BA9793F7F70F22853EC8CB
:1002D000A53D8146A143C5A0035301002244B38735
:1002E0006740A297C207C187E357F0FA26979302A7
:1002F000800463D4E20013078004420741873AC6B2
:10030000E3DBE4F80247BA97130780026354F7006F
:10031000930780020247C207C187E35EF7F60D87A5
:100320009383F7FFB307F0403AC89D8B1307F00F94
:10033000B357F74093F7F70F137373003314670045
:100340003ECC42479387818593D3334022CA3ED027
:10035000E3C3E3F4C2471303F00F6393E700524390
:100360001373F30F6395E300E24733F367009317CA
:100370003700BA9702548E07A697A297A682134316
:10038000F3FF80238502C2023374830080A33244CA
:1003900093D202418507E39682FE05074207418713
:1003A00045BFF247B385F60093F5F50F63DC950082
:1003B000850693F6F60FB247E3C5F6FE05041374FF
:1003C000F40FDDBD9247E3C5B7FE92573383A60015
:1003D00001463E93C2470247B29793F7F70F63CDAA
:1003E000E7022247634AF702034703003357C74037
:1003F000058B1DC393D23700139732001697E24244
:100400000E079D8B16972E978542B397F200834275
:100410000700B3E757001CA30506E31D76FA49BFA2
:1004200013018102D1B3EFF29FDB5111AA82AE8496
:1004300032832A848D638307030099E331016DB30E
:1004400029476398E700A904C204C1840503168400
:10045000DDB7E3C207FE811793F6F70F1307E00538
:100460006364D704130770046340870413077002A2
:10047000634C970293961700B697138743C9860774
:10048000BA973E87A1461946A68522851AC416C288
:100490003EC085338247A14619463E87A685228500
:1004A000893B224392428D6319044204418405032F
:1004B00059B7B717014093870740414719C198CBF7
:1004C0008280D8CB8280FD577D576315F5000145AA
:1004D0008280B1059C41E38CE7FEE31CF5FEC84138
:1004E000828037030140032743009317350063D010
:1004F0000702B707C0FFF517F98F37070007D98F35
:10050000D9CD370700F07D17798DC98F49A8635D74
:100510000500B707E0FFED17F98F37070007D98F00
:10052000BDCD06050581D5B7B70730009316050187
:100530003376F500C1826313F602370600F97D16A3
:10054000B377C70003274300798E2322C300A1C9D4
:100550005581131745003395E60045BF9317B50045
:1005600063D407029357050113F6F7008D47B3973D
:10057000C70093C7F7FFF98F37070007D98F85C1E9
:10058000135755011207C1BF558112053395A600B7
:100590009347F5FFF98F37070007D98FBDF5370768
:1005A00001405CC382809C45611122C226C013F7C2
:1005B000070113F3F70001C7D8413363E300922129
:1005C0001377F60F29C78323050001471304800220
:1005D000930480048546B395E600B376B600639233
:1005E000D50293122700BD46B396560093C6F6FF78
:1005F000B3F37600B3125300B3E372006397870638
:100600004CC90507A146E317D7FC23207500130743
:10061000F00F6378C70483234500A14613048002CA
:10062000930480040547B312D700337756006394D0
:10063000E202139726000117BD45B395E50093C567
:10064000F5FFB3F375003317E300B36377006392EC
:100650008702232A550085064147E395E6FC2322BD
:1006600075001244824421018280E39C97F80CC9F2
:1006700049BFE39297FE23285500F1BFEFF23FB642
:1006800013878183104354432A8450C59384818304
:100690001C402285DC4B8297635B050094405C44E0
:1006A000D8403387F6401C44E364F7FE7D552DBEE9
:1006B000EFF2FFB25111014495C6B684AA870144F6
:1006C0003E8532C42EC23EC0553F634D0500924563
:1006D000630AB500224682473307860008A3050453
:1006E000E39084FE2285310101B6EFF25FAF611124
:1006F000AA8401442EC232C0630DC4002685BD3FCA
:100700006349050092450246B387850088A3050426
:10071000D5B722852101C9BCEFF27FAC1C41711114
:10072000CC81DC43930531000546829711016DBCF5
:100730008347C5031397270093874184BA979C4347
:1007400098431E2393F7070289C74A231375F50FB1
:1007500082807D5582807D558280828001458280A5
:100760002147B7170140894591461146131385016A
:1007700013538341635F03008CCB90CB7D17060539
:10078000D0CB1377F70F1375F50F6DF394CBD4CB54
:100790008280CCCBDDB7EFF29FA4711137140140FA
:1007A0002AC08944914704C81CC844C85CC81305C2
:1007B00080077D3701456D3702473A8555379147A8
:1007C00044C81CC804C8110105B4EFF25FA161114F
:1007D0009386818581443714014013E5040B36C0AC
:1007E0005D3F45454D3F31457D37094718C8914725
:1007F0001CC858C85CC8130580079D371305000442
:100800008537824681473387F60008233EC236C0CB
:10081000813F92471307800482468507E395E7FEF0
:1008200089475CC8114718C885041CC893F4F40FA5
:10083000954793868604E392F4FA210175B2EFF2AC
:100840001F9A0545BD311307A0372394E18083C764
:10085000818299E7B73701401307A03723A0E7C487
:1008600061B283A6818303A7C18383A701823387F3
:10087000F64085679387378363F6E700938701A483
:1008800023A8F182828083C7818299E7B73701402C
:100890001307A03723A0E7C48280EFF25F94AE87EE
:1008A000AA853E85EFF05F8C0589213135BAEFF2DC
:1008B0001F93411102C202C402C6FD576313F50023
:1008C00001A09377F500139727008D67938707178B
:1008D000BA979C4311813D893EC085476303F50665
:1008E00005C1894781446317F502371702401C4F41
:1008F000B71401409384044093E707021CCF19A862
:10090000371702401C4FB71401409384048093E7CB
:1009100047001CCF93D7854093F7F7072E8495CFD8
:10092000B7160240984EFD171367170098CE694717
:100930006365F7020D678A071307C7C1BA979C431F
:100940008287371702401C4FB714014093E7070115
:100950001CCFC9B7854505456936935724401377A1
:1009600034008D8B7DC73AC409476380E70E0D477D
:10097000638FE70C05476388E70CC1473EC6EDA0CF
:100980008145D1BF8545370500100905F1B785457B
:1009900037054010DDBF8145E5BF8545370500803F
:1009A00011055DBF8545370520807DB78545370535
:1009B0002080FDB78145E5BF370516008545130545
:1009C000050459BF8545370516001305050869B7A5
:1009D0008545370516001305050CBDBF8145D5BFFC
:1009E00037051800854513050510BDB737051800F4
:1009F0008545130505208DB7854537051800130576
:100A0000053099BF8145D5BF85452165B1B7814581
:100A1000EDBF8545370520008DBF8145E5BF854584
:100A200037052000B5BF8145E5BF85453705200066
:100A300069BF8145E5BF8545370530001305054091
:100A400021BF8145D5BFD14715BFE14705BFF1475C
:100A500035B705476382E70299C789466380D702A5
:100A60009307800221BF02C682474C0026857C8204
:100A70001D3E41016FF04FF7914709B711840D8872
:100A800093078004E31EE4FCD5BDEFF24FF5137528
:100A9000F503931725000D651305C50B3E951C4105
:100AA0000111139727008D679387C70DBA97844369
:100AB000FD576388F40693F7F40013D4240093766B
:100AC000C4033EC2938741A1B6979C4336C093F6B8
:100AD000F400B3D7D700138741A12EC6858B3AC443
:100AE0008DCB8D659387C5F3FD5621A06385E41CEE
:100AF000B1079843E31CD7FEA24702473384E700BF
:100B000012478547B397E700184093C7F7FFF98F5F
:100B10001CC03247854791456313F7008D452685F4
:100B2000793305616FF04FEC1307450114CDC8CB45
:100B300018C21307000858D51307000418D937370F
:100B40000140232E0500232005022312050213076E
:100B500007C06395E60837160240184E85669386EF
:100B60000680558F18CE1387470393834708144791
:100B70008DC2BA853A850D4616CE3ECC1ECA3AC8FD
:100B800082964247F242E247D243232407002326BB
:100B900007004107E39DE3FC41677D1798D3984F19
:100BA00023AE070023A00700162323A2070023A4D7
:100BB000070093E6060823A6070023A8070016A34C
:100BC000162337360140130606C0C206C1826312DF
:100BD000C70293F6F6F8C206C18205A037070040A7
:100BE000E393E6F8B7160240D84E13671700D8CE45
:100BF0009DBF37060040E30EC7FC93F6F6CFC20652
:100C0000C18216A3FD5656B7B7360140231407021A
:100C1000938606C06315D70083C6470216BB854678
:100C200056AB37E700E0A1462322D7109306000217
:100C30002322D710930600042322D7103307540031
:100C400018431CC3A29283A702009843E30607EA55
:100C5000144FB7370140938707C06387F60CB70777
:100C600000406391F604B7160240DC4EF99BDCCEDF
:100C700085478A073303F40023200300232A070053
:100C80001304470813034703630164024114144427
:100C9000E5DE0D46A28522851ACA3AC882964247E9
:100CA0005243DDB7C167FD17E9B7930540083A85A0
:100CB000EF10000691B59385C5F32685EFF0BF8050
:100CC000B7370140938707C0AA8601476309F5003B
:100CD000B707004005476384F60041677D17138618
:100CE00081819312270016961C4213848181B9FBDF
:100CF0001305400832CE16CC3ACA36C8EF00107F32
:100D00005247C165232E050223260504232E050420
:100D100023260506232E0506FD15AA87C246E242B4
:100D20007246E313B7E001A0371602401C4EFD7671
:100D30009386F67FF58F1CCE814725BFFD577D57E3
:100D4000631CF50082806318F500EFF24FC98C45F3
:100D5000B93E6FF06FC9B1059C41E396E7FE01A073
:100D6000EFF2EFC78D671375F5039387C70B0A057D
:100D70003E950441C546611113F7F40F63EAE6029C
:100D80008D679387C70D0A073E971C4393F4047041
:100D9000DD8CFD57638FF41885672313010033F74B
:100DA000F40029C3850763EF97026383F41601A05B
:100DB00093F6040C1306000C01456395C6149306C4
:100DC000700C63E1E61413F7F4030A07BA979C4327
:100DD00093F40470139727008D679387C70DBA9714
:100DE0009C437DB78D67938507ED26853AC0EFF06C
:100DF0008FED02478D672A84938707ED7D569443D4
:100E00006394C600FD5721A06391D4109C47BD8315
:100E1000FD8BA54663EDF60E8D66938686C8B69764
:100E20009C2323A29180B726014093860640631835
:100E3000D40037160240144E93E6062014CE01EB80
:100E40008D65938505ED26853EC0CD3D82473716DD
:100E500002405842C1769386F67F758FB166558FF2
:100E600058C25840B706F1FF9386F6EF758F58C009
:100E70001844B7F6F1FF9386D67F758FB7060E003C
:100E8000558F18C45854B70610FFFD16758F58D4E7
:100E90002320040018441367170018C42547637FF4
:100EA000F706938667FF504413971600BA961D47BE
:100EB0003317D700518F58C45858019BD98F5CD82D
:100EC0001C4437075000D98F1CC41C40898BF5DFA8
:100ED0007C44C207C1837C831C44F99B1CC4B72794
:100EE000014093870740631CF400B7170240D847BE
:100EF00013670720D8C7D8471377F7DFD8C72883E9
:100F00004205418121016FF02FAEB107CDBD01A097
:100F100037240140A1471304044021B71048139718
:100F20001700B306F7001D473317D700518F18C8B5
:100F300061B70145C1BFEFF28FAA03A7818383A7E1
:100F4000C18361111305000C3AC03EC2113D420538
:100F500041812392A18203C48182A946024763E7AB
:100F6000A6021307803E2394E18019E4B7370140BD
:100F70001307803E23A0E7C40145EFF08FD393878A
:100F800001A223A8F18221016FF00FA6BA851305F3
:100F90006009EFF09F9065F8B73701401307A0375D
:100FA00023A0E7C4CDB7EFF28FA39387818390434B
:100FB000D443130181FCB707002036CC9386470346
:100FC00083C6C602138781832AC42EC832CA3ACE8A
:100FD0009384470399EE83C7C4021397270093872E
:100FE0004184BA979C431387C7FF6315072E02C835
:100FF000FDAC0D649305440113055002EFF0AFCC36
:1010000022C675D503A441849387418423860402B4
:101010003ED019C8B2471305500293854701EFF03F
:101020008FCA1C40E389A7FA85472386F402B2479A
:101030001305500293854701EFF0EFC84DD9930790
:1010400050029CCCB2471305500293854701EFF044
:101050008FC7D44C8D629385C2FF2A84368536DAD9
:10106000EFF06FC698500D63930543FE2AC23A8590
:101070003AD8EFF04FC5DC500D662AC09305C6FC88
:101080003E853ED6EFF02FC40D630D661AD232D4E2
:10109000AA8331DCD2567D56B25742576384C600CC
:1010A0009246B1D6FD566304D700024729D37D5737
:1010B0006384E700E38D03F292476306F4006385DF
:1010C0000726024439A082476305F4007DD8824791
:1010D00089EB638B830001C86388030023A00400AD
:1010E00039B70144FDB71E8480C0E30204F0B7475E
:1010F000014093870780631DF400371702401C4F9F
:101100009166D58F1CCF93070002238604029CD4DE
:10111000B247130550021ED6938547010531924709
:10112000B25381CBC84C8D629385C2FF1EC6393144
:10113000B2438247014491CB925788501EC0938599
:1011400047FEED3E82431304001063890300A2575B
:10115000C850136404209385C7FCCD3683C7C402EE
:10116000025792463EC08A07BA971387440098C335
:101170007167130707209C4098C437070C0098C874
:10118000131704014183DCC023A60400DAA889E612
:10119000D62B93E68600D6AB922BF576FD16F18E14
:1011A00096ABD227FD769386369FF18E93E6C600E6
:1011B000D6A7D62B2146C206C18293F6F6CF558F0D
:1011C000DAABB7160240D842318B6312C70ED84251
:1011D0003777DC02130707C037150240544191826C
:1011E00013F6F600B706002093864602B2968C22CC
:1011F000544193F5F50F93F606083355B70091E681
:101200003A853EC2EFE05FF69247371702405843F7
:101210002D837D8B935637000A07718B558F13767C
:1012200037018D4663F3C6005117B7060020938639
:10123000060036971823D627131715002A97C206DB
:101240000E07C1863EC23A9563D80606B7850300ED
:1012500093850540EFE05FF19247930540062AC26F
:101260003EC6EFE07FF01247131445009305400699
:101270003A85EFE03FF2B247DA273EC242074187A4
:10128000635107040E059305400613052503EFE09F
:10129000BFED1D899247498C4204418082A7DA271D
:1012A0008966558FDAA78247E38707D289B3373734
:1012B0006E01130707600DB7B7150700938505800A
:1012C00051BF12059305400613052503EFE0DFE942
:1012D0003D89C9B79C439305703E9A231377070451
:1012E00001CF2247C246BA9622476314D70242452D
:1012F000130181036FE05FEF72470043444352479D
:101300003307E4403336E400E31396CEE3F7E5FC1D
:10131000F9B99A23137707046DDF224705073AC40A
:101320000347F7FFDAA3C9B78247E312F4DA55B3EC
:10133000EFE2FFEA2E85B285BD316FE0FFEAEFE212
:101340001FEA13068016814513858185EFE05FD57E
:101350006FE09FE9EFE2BFE883C7818299E7B73783
:1013600001401307A03723A0E7C403A7818383A705
:10137000C18313050005BA85EFF02FD2C937373680
:10138000000013060606C1454145EFF0CF891386DC
:1013900081A0930500024145EFF0EF88EFF0EFC226
:1013A0006FE09FE4EFE2BFE30145EFF08F9013079A
:1013B000803E2394E18083C7818299E7B73701405B
:1013C0001307803E23A0E7C49D3F37360000130675
:1013D000860681450145EFF00F853736000013067C
:1013E0000607C1450145EFF00F84373600001306AC
:1013F0008607930500020145EFF0EF82EFF0EFBCA6
:101400006FE09FDEEFE2BFDD0545EFF08F8A130747
:10141000A0372394E18083C7818299E7B7370140E1
:101420001307A03723A0E7C4193F3736000013067F
:101430000608E5450145EFE01FFFEFF00FB96FE04B
:10144000BFDAEFE2DFD9E53DEFF02FB86FE0DFD98B
:10145000EFE2FFD803A4418331119305803E22853A
:10146000EFE05FD393054006EFE01FD02AC093055D
:10147000803E2285EFE05FCF024737360000AA8624
:101480001306C602C1454800EF1080765000814522
:1014900013050002EFE03FF983D6418237340000A4
:1014A00013068403C1454800EF1080745000C14505
:1014B00013050002EFE03FF783D681801306840313
:1014C000C1454800EF10C07250009305000213059B
:1014D0000002EFE05FF5EFF04FAF51016FE0DFD0BA
:1014E000EFE2FFCF1305600CEFF09F8737360B005C
:1014F0001306867181468145EF00D03D31661306A3
:1015000016BD8146EF00B04323AAA18285671387E9
:1015100087BB636DA700B73500009385C5031385AE
:1015200081A0EF00303A938701A539A0138747CEF9
:101530006365A708938701A623A8F1821305000C11
:10154000EFF01F822392A18293170501C1831395A7
:1015500057001D8D0A053E959305F03F0E05EFE0FF
:101560003FC01305853E83D78180420541811387A3
:10157000818063FFA7068907C207C1836361F508FD
:101580001EA383C781829DE71E2305671307479C1F
:101590006373F700BA871397070141839306401FCF
:1015A0006374D7009307401FC207C18337370140D8
:1015B0002320F7C4713D6FE03FC31387E70FE37F3C
:1015C000A7F69387077763E7A700B73500009385F1
:1015D0008504B1B7896713874796E37DA7F493879E
:1015E000C71FE3FDA7F4B73500009385450505BF88
:1015F000E379F5F8F117C207C183E3F3A7F80AA36B
:1016000049B7EFE2DFBD1305000CEFF06FF54205BF
:1016100041812392A182938781838043C44393575E
:101620001500139557001D8D0A053E959305F03F53
:101630000E05EFE0FFB21305853E83D7818042059A
:1016400041811387818063FFA7068907C207C18391
:101650006361F5081EA383C781829DE71E2305678A
:101660001307479C6373F700BA87139707014183F9
:101670001306401F6374C7009307401FC207C1834E
:10168000373701402320F7C4A2851305C012EFF0BD
:10169000CFA0938681839842DC429305803E3A85B1
:1016A000EFE05FAF9307301F63E7A7023736000014
:1016B0001306C605814513050004EFE0DFD6493B5C
:1016C0006FE09FB2E379F5F8F117C207C183E3F346
:1016D000A7F80AA349B7373600001306C608D9BFD2
:1016E0009387019C1307803E98C70D6713078709EE
:1016F00098C3374701401307078098CB1307600250
:10170000D8D71307500298D77D5723A2070098DB3C
:10171000D8DB2384E1829387C18223A0070023A220
:1017200007008280EFE2BFABB7F400E023A2040021
:1017300023A0040023A40400370400200325840C04
:1017400051119305803EEFE03FA27D1588C8BD474B
:101750009CC07D57B7E700E02386E740056723A0DC
:10176000E710371702405C4391461304840CB18B99
:101770006385D700A1466384D73CB7376E01938752
:1017800007601CC0B7160240DC420840918313F783
:10179000F700B707002093874701BA978C23DC42F4
:1017A00093F5F50F93F707083357B50081E7EFE09E
:1017B000BF9B2A879387018418C0982379EF054738
:1017C00098A3371702401C4F056493060481D58FF8
:1017D0001CCFC1477C80E1473EC48A858D473715C1
:1017E00001403EC223110100EFE0FFDBB7360140AC
:1017F00003D706C0938706C005434207418313778A
:10180000F7C8420741832390E6C015671307F7E145
:10181000DAB71307F0029AB723980702239A6700F2
:101820008E337D771306F7FF6D8E92B38A3383D2A2
:101830004700D22FE5759385F5CFF18D1966D18DCF
:1018400079767D16698E0565498E71757D153375BE
:101850005500CAA3CEAF9305C05DACC392B3239A23
:10186000670003D64704A1651307F77F4D8E2392C7
:10187000C70403D606C01304048013660608239029
:10188000C6C0D22F718F418F42074183DAAF83D711
:1018900006C093E717002390F6C023840182130744
:1018A000A037B737014023A0E7C4938681838C42D9
:1018B000D042373600001306461223A0B182938728
:1018C00001A390C33716000013066688D0C33716ED
:1018D00000001306268690C737160000130626441C
:1018E000D0C737360000938701A41306061390C3B0
:1018F0003716000013064640D0C337160000130603
:1019000066F390C723A6070037360000938701A22D
:101910001306061490C3371600001306463AD0C3C8
:10192000371600001306064E90C737160000130640
:10193000E683D0C737360000938701A61306C61486
:1019400090C3371600001306266090C723A2070035
:1019500023A6070037360000938701A51306C61596
:1019600090C3371600001306463590C79042D44204
:1019700023A2070023A60700138401A3B287938440
:101980008183130730069040D4401D8EE37DC7FE4F
:1019900037170240231101001C4F8A85371501407B
:1019A00093E707011CCF99477C80D1473EC48D4700
:1019B0003EC2EFE05FBFB7170140114798CB094720
:1019C00098CB1305E00AEFE01FDD1305500DEFE0A3
:1019D0009FDC1305000FEFE01FDC1305800AEFE02A
:1019E0009FDB13057002EFE01FDB1305300DEFE006
:1019F0009FDA0145EFE03FDA13050004EFE0BFD9BD
:101A00001305D008EFE03FD95145EFE0DFD81305CB
:101A10000002EFE05FD80945EFE0FFD71305100A99
:101A2000EFE07FD71305800CEFE0FFD61305A00D84
:101A3000EFE07FD64945EFE01FD61305D00AEFE06F
:101A40009FD513050003EFE01FD513051008EFE045
:101A50009FD41305F00FEFE01FD41305900DEFE0B6
:101A60009FD313052002EFE01FD31305B00DEFE065
:101A70009FD213050002EFE01FD21305400AEFE0EA
:101A80009FD11305600AEFE01FD13145EFE0BFD0D1
:101A90004545EFE05FD0EFF09F8AEFE01FD31305DD
:101AA000F00AEFE05FCF13051008EFE0DFCE13057B
:101AB0002003EFE05FCE3736000013068616E545BB
:101AC0002545EFE05F96EFE05FD081451305000C00
:101AD000EFE0BFFB85451305700CEFE01FFB0545EC
:101AE000EFE03F9D81451305600CEFE01FFA9387FF
:101AF000C18280C323A207005C401384C18291C3CA
:101B000082975C4091CF1C4081C7DC4791C382978C
:101B10005C40232204001CC081C7DC4391C3829730
:101B20001C4081C79C4791C382979840DC40254662
:101B3000BA869840DC40158FE37DE6FED9B75C435A
:101B4000B777DC02938707C02DB98280B7170240B0
:101B50009843B706FFFC1367170098C3D843758FE7
:101B6000D8C39843B706F7FEFD16758F98C3984300
:101B7000B706FCFFFD16758F98C3D44341777D17D8
:101B8000F98ED4C3B7069F0094C7B726024090428F
:101B9000719A90C290421366160090C2D443D4C387
:101BA000D443758FD8C3D843B7060001D8C3984330
:101BB000558F98C3984393166700E3DD06FED8431C
:101BC000B7160240719BD8C3D84313672700D8C308
:101BD0002147DC42B18BE39EE7FE8280828013873F
:101BE000C1801C43938601B03E956369D5009386FE
:101BF00081D763E5A60008C33E858280FD57EDBF0F
:101C0000EFE2EFDD328419C9AE87634C0500094766
:101C10006349A700B2853E85EFF0EFB822856FE0FB
:101C2000AFDC18412286BE8558430297C5BF01A08C
:101C300001A001A001A001A001A001A001A001A09C
:101C400001A001A001A001A001A001A001A001A08C
:101C500001A001A001A001A001A001A001A001A07C
:101C600001A001A097F1FF1F938141C6138181F369
:101C7000171500001305056997E5FF1F9385853843
:101C80001386818163FAC5008322050023A05500D5
:101C900011059105E3EAC5FE13858181938501B0A5
:101CA0006377B500232005001105E36DB5FE9302AF
:101CB0000008739002308D427390428097E2FFFFDC
:101CC0009382423493E23200739052301705000041
:101CD0001305850699285928EFF05FE79702000061
:101CE000938282A47390123473002030511122C267
:101CF00006C42A8411E105442285DD2011E511285E
:101D000011E129280295CDBFA24012443101828001
:101D100029A09387818488438280C1A851111945E5
:101D200006C4D92C0545EF003012AA85814601462C
:101D30000145F5AC5111971700009387A75C22C2AB
:101D4000171400001304045C1D8C26C006C409840B
:101D5000BE8411E41244A24082443101FDB37D14DB
:101D600093172400A6979C438297E5B7511122C28E
:101D7000971700009387875817140000130404581E
:101D80001D8C26C006C40984814463958402B9353C
:101D90009717000093878756171400001304845682
:101DA0001D8C0984814463928402A24012448244BF
:101DB00031018280139724003E97184385040297CF
:101DC0009717000093878753C9B7139724003E974E
:101DD0001843850402979717000093872752E1B7AD
:101DE00093870181AA85884345A893870181AA85A5
:101DF000884309A0CDC183A7C5FF511122C206C4E3
:101E000026C01384C5FF63D307003E94AA844D2CDB
:101E10009387C1849C4399EB2322040023A68184E9
:101E20001244A24026858244310161AC637EF400F5
:101E300014403307D4006396E7009843DC43369799
:101E400018C05CC0E1BFBA87D84319C3E37DE4FE84
:101E500094433386D700631F86001040B29694C324
:101E60003386D700E31EC7FA10435843B29694C393
:101E7000D8C37DB76375C400B1479CC055B7104047
:101E8000B306C4006316D70014435843B29614C077
:101E900058C0C0C371B78280411126C293843500F7
:101EA000F19806C622C4A104B14763F5F404B14415
:101EB00063E4B4042AC029241387C18414438247ED
:101EC000368439E013870185184301EB3E8581454F
:101ED0003EC0692823A8A18482473E85A6853EC0CE
:101EE00071207D5782476314E506314798C33E85CC
:101EF000C92A29A0E3DE04FAB1471CC10145B2405A
:101F000022449244410182801840058F634E0702AB
:101F10002D466376E60018C03A9404C031A05840BC
:101F20006392860223A6E1843E85612A1305B400EC
:101F3000130744006199B307E540F1D33E94098F3C
:101F400018C075BFD8C2CDB7A28640409DBF13044C
:101F500035007198E30385FCB305A4403E853EC07F
:101F600031207D578247E31AE5FA41B7511122C269
:101F70002A842E8523AE01AE06C4EFF05FC6FD575E
:101F80006317F5009387C1AF9C4391C31CC0A24067
:101F9000124431018280FD4763F6B700D9471CC166
:101FA0007D5582807C41411122C406C62E862A843A
:101FB00091C713972500BA97984319EB228532C031
:101FC000B520AA85228522440246B240410115A8C7
:101FD000854601456308D700FD566319D700D947E8
:101FE0001CC00545B2402244410182802E8523A0B9
:101FF000070002970145FDB793870181AA858843B1
:1020000059BF511122C22A842E85B28523AE01AE5A
:1020100006C42D25FD576317F5009387C1AF9C4378
:1020200091C31CC0A24012443101828011A5938744
:1020300041859C43AA8399EF138701A723AAE184D2
:1020400017E5FFFF130505FCBA8709C51C4123AC42
:10205000F1AEBA87D8437D437D556346E304638D73
:10206000030203A3870863000304931227009A92D4
:1020700023A0C2000325031005463316E600518D48
:102080002320A31023A0D20889466397D300832678
:102090004310558E2322C310930617000A07D4C39A
:1020A000BA978CC70145828097E7FFFF938787F532
:1020B00099C717050000130525C86FF01FC7828058
:1020C00082808280AA87982185078505A38FE7FEF5
:1020D0007DFB828021112AC236C006CAAA8622C888
:1020E00026C6328732C481470145014333866600E4
:1020F000937317003304F50093D2F6010583B334CC
:102100006600860763850300338584003283860674
:10211000B3E7570061FFAA8789C52245EFE0CF8268
:10212000AA97024711C71245BA85EFE0EF81AA9737
:10213000D2404244B2441A85BE85610182801301B7
:1021400041FD06D422D226D02A87AE87639106208D
:10215000B68432832A8463FEC50EC166AE82636391
:10216000D626B70600016367D64893558601E14439
:102170009716000093860608AE969422B6949306AE
:102180000002858E99CAB397D700B35497003313D2
:10219000D600B3E2F4003314D70093540301A685AC
:1021A00016851AC216C0EFD0FFFE124382422AC61D
:1021B00093170301C183A68516851AC43EC0EFD0CC
:1021C000BFFAAA852AC20245EFD01FF832479357BB
:1021D000040192464207D98F224363FAA7009A97D7
:1021E0001387F6FF63E4670063ECA742BA86898F22
:1021F000A6853E8536C61AC83EC4EFD0BFF9A247B1
:10220000A6852AC23E85EFD03FF6AA85AA8402455C
:1022100042044180EFD05FF39242B246C20233E4FF
:102220008200637CA40042439387F4FF1A946365A1
:102230006400F9146363A400BE849397060133E538
:1022400097008146B685A250125482541301C102F0
:10225000828011EA2EC22AC081450545EFD0DFF009
:10226000924702472A83C1666365D314B70600010B
:102270006366D33813568301E144971600009386B2
:1022800066F7B29683C2060013060002A6923306D2
:10229000564063120614131703014183B387674046
:1022A000935403013AC08546A6853E8536C81AC6B2
:1022B0003EC2EFD03FEE92472AC4A6853E85EFD0BE
:1022C000BFEA82452AC2EFD03FE822479357040174
:1022D00032434207D98FC24663FBA70012469A9742
:1022E0001307F6FF63E4670063EFA7323AC2898FF2
:1022F000A6853E8536C81ACA3EC6EFD0BFE9B247AA
:10230000A6852AC43E85EFD03FE68245AA844204D2
:10231000EFD09FE3A2424180C246C20233E4820072
:10232000637CA40052439387F4FF1A9463656400AE
:10233000F9146363A400BE849247C20733E5970093
:10234000B685A250125482541301C102828063E107
:10235000D504C16563E7B604B705000163E8B62894
:1023600093D586016143171500001305A5E82E9546
:102370000C219A95130300023303B340631D03102D
:1023800063E2F628B337C70013C51700814619A0CA
:1023900081460145B685A250125482541301C102F0
:1023A00082809305F00F63F2D52693D586002143F2
:1023B0005DBF9306F00F1A86E3F166EC13568300B7
:1023C000A14465BD9306F00FB285E3F3C6DA9355D9
:1023D0008600A14471BB3313C300B3D65700935496
:1023E0000301B397C700B35257003314C700131744
:1023F0000301B3E7F2004183A68536853EC21AC8C1
:102400003AC036C4EFD01FD9A2462AC6A685368563
:10241000EFD09FD5AA852AC40245EFD0FFD232461D
:102420009247A2464206C183D18F424363FBA70075
:102430009A971387F6FF63E3671E63F1A71EF916E9
:102440009A973387A740A6853A8536CA1AC83AC4F0
:10245000EFD05FD422472AC6A6853A85EFD0DFD0D9
:10246000AA852AC40245EFD03FCEB2473082224728
:10247000C207D18F4243D24663FBA7009A97130647
:10248000F7FF63E9671863F7A71879179A97C206E9
:10249000898FD98E11BD3355B600B3966600C98EAB
:1024A000B353B7003ACC3317660013D40601B3D444
:1024B000B7003AC4B397670013970601B3E7F30078
:1024C0004183A28526853EC01ACA36C83AC2EFD0DB
:1024D0007FCC2AC6A2852685EFD01FC9AA85AA84EB
:1024E0001245EFD07FC6B2438247C246C20313D61D
:1024F000070133E6C30052436247637BA60036966A
:102500009385F4FF636AD6106378A610F9143696A3
:10251000098EA28532853ACC1ACA36CE32C8EFD09F
:102520007FC74246A2852AC63285EFD0FFC3AA855F
:102530002A841245EFD05FC1B24230805243C202BA
:1025400033E6C2006247637CA600F2469305F4FFBF
:102550003696636FD60A637DA60A79143696C166ED
:102560009382F6FFA24693970401C18F33F457007C
:10257000098EB3F2560032C293D3070193D40601F9
:1025800022859685EFD05FBC2AC0A6852285EFD034
:10259000BFBB2A8496851E85EFD01FBBAA82A68565
:1025A0001E85EFD07FBA82461694C182369463743A
:1025B0005400C1663695935604013695924663E3FE
:1025C000A6026385A6003E858146E9B34166824541
:1025D0007D16B376C400C2066D8E33176700B296BF
:1025E000E373D7FE1385F7FF81466DB393D50601DC
:1025F000414395BB93550601C1449DBE135603014B
:10260000C144A5B98146054571B3B6850143A1BB57
:102610002E84B1B73287A5BDAE84DDBDBA8615B5AF
:10262000F9169A97E9B61307E6FF3AC29A97C1B12D
:102630009307800523AEF1AE7D5582809307800518
:1026400023AEF1AE7D55828001A0411106C62EC099
:102650000DCD1841AA8705C358417D5511CB85463C
:10266000631BD70098472300070023A207000545F6
:10267000B240410182809847824614A398470507DB
:1026800098C7D8437D17D8C3DDB705468A85EFF0D4
:102690002FD7F1BF011122CC2EC206CE26CA2A8422
:1026A000814793050002634506029245BE958385E6
:1026B00005008DE563D8C70263D4E702198E1305C0
:1026C000000293F526002AC089C501E7930500039F
:1026D0002EC0858A814495EAB2840DA08507F1B7A2
:1026E0001D8EF1BF0146E1BF824522853AC832C640
:1026F0003EC4A13FA24732464247FD14E34690FE46
:10270000B284635306008144058E63C7E702A6873F
:1027100092463387974036978305070095EDB2843C
:1027200063449004635306000146F2406244D2447D
:102730003305F600056182801D8FBA87930500037B
:10274000228532C83EC63AC40937B24722474246BC
:10275000FD17EDF7BA9465BF228532C63EC4F53544
:10276000A247324685076DB78245228532C43EC2F4
:10277000E93DFD142246924765B7397106DE22DC39
:1027800026DA3EC232833A8689ED924693070003E9
:1027900001476C08FC86FD3DF2506254D254216121
:1027A0008280AA843684AE8791CA29470144631780
:1027B000E30063D50500B307B04005448646A3098E
:1027C000010213073103938666FC36C49A853E8561
:1027D00032CA3AC81AC63EC0EFD0DF9BA546824730
:1027E00032434247524663D4A600A24636951305AB
:1027F00005039306F7FFA30FA7FE9A853E8532CC0B
:102800003ACA1AC83EC636C0EFD01F96B2474243F6
:102810005247624663F9670401CC29CA9247898B03
:10282000B1C79305D002268532C4053522467D16F0
:102830009247918B95C306479307100632C49305C0
:1028400000032685631EF702093593058007268558
:10285000ED3B2246090479161647924682452685A5
:10286000153D229515BFAA8702478DB7824693076B
:10287000D0020144A38FF6FE9307E7FF3EC04DBF91
:10288000E93393058005E1B70145828001458280E7
:10289000130181FD22D026CE06D22AC4AE82328414
:1028A00002C681448385020091EDA24789C7814514
:1028B0003E85EFF09FD9925002542685F2441301D1
:1028C00081028280930750026389F500224516C871
:1028D0008504EFF09FD7C24205A0838712001387BB
:1028E0001200639DB7002245930550023AC8EFF0ED
:1028F000DFD542478504BA8285026DB7DDD79306DE
:10290000B0026389D70463C8F60093063002638679
:10291000D704814705A09306D002638AD7009306A7
:102920000003E398D7FE13872200894721A013876D
:1029300022008547830607001306B0026383C6049E
:102940006341D60213063002638BC602BA82014588
:10295000A54681A0138722006DBF138722009147EF
:10296000D1BF1306D0026389C60013060003E39F9C
:10297000C6FC93E7270031A005078547C1BF93E751
:1029800047000507E1B713162500329506053A956D
:10299000850203860200130706FD9375F70FE3F423
:1029A000B6FE1307E0029946631EE60085028146E3
:1029B000A54503860200130606FD1377F60F63F59F
:1029C000E50236C6038702001306A006630DC70A98
:1029D0006343E6021306C0046307C70A13068006B2
:1029E000630CC70881452DA813972600BA96860662
:1029F000B29685027DBF130640076306C70813061B
:102A0000A0076302C7081306C0068145631AC70002
:102A1000038612008D456314E60085029145850208
:102A200003860200930300061307100663C4C30065
:102A3000130710049303700663C4C3069303500680
:102A4000635676189303700463C1C304930550045E
:102A5000635EB61613073004E310E6EA18409303EA
:102A6000440016CA230CE1001EC8A30C0100014754
:102A7000BE862A862C0849A8038612008145E311E8
:102A8000E6FA890271BF8502B1BF93063006E307FB
:102A9000D6FC63CFC606930680056303D602A9BDA4
:102AA000930630076304D60463CBC6029306F00690
:102AB0006305D60E9306000793E74700E31ED6E2B0
:102AC00091466392D50C930384000C40504016CA83
:102AD0003AC23EC01EC8AA870147C14681A89306D4
:102AE0005007630BD6069306800745BF1840B736DC
:102AF0000000930344009385062F11C3BA85324723
:102B000016CA1EC8BE862A862245EFF0BFB815A099
:102B100091466395D502930384000C40504016CA39
:102B20003AC23EC01EC8AA870547A9462245EFF013
:102B3000BFD5C243AA941E84D2427DBBB2460C408C
:102B400016C836C23AC011042A878546294622454E
:102B5000EFF0BFC2AA9441B39146639DD5009303A1
:102B600084000C40504016CA3AC23EC01EC8AA8714
:102B7000014765BFB2460C4016C836C23AC01104C0
:102B80002A878146E1B7B24616C80C40414636C294
:102B90003AC011042A8781465DBF9146639ED500E5
:102BA000930384000C40504016CA3AC23EC01EC86F
:102BB000AA870147A1469DBFB2460C4016C836C23F
:102BC0003AC011042A878146214651B70C401306AA
:102BD000840040403AC22A87224532C83EC022863D
:102BE000B687A94616CAEFF07FCAAA944244A9B78D
:102BF000130181FD32833ED22EC42AC67008854758
:102C000048009A8506CC36CE3AD03EC232C0EFF0AC
:102C10003FC8E24013018102828000005409000095
:102C200080090000840900008E0900009609000058
:102C30009A090000A4090000AC090000B4090000D2
:102C4000B8090000C4090000D0090000DC09000038
:102C5000E0090000EC090000F8090000040A000087
:102C6000080A00000E0A0000120A00001A0A0000FA
:102C70001E0A0000260A00002A0A0000320A00008C
:102C8000360A0000420A000000010203040506079C
:102C9000080900000000000000000000002F0000F4
:102CA00000000700070000147F147F1400242A7F0F
:102CB0002A1200231308646200364955225000008E
:102CC0000007000000001C224100000041221C00FF
:102CD0000014083E08140008083E0808000000A080
:102CE000600000080808080800006060000000207C
:102CF00010080402003E5149453E0000427F40005A
:102D0000004261514946002141454B3100181412DF
:102D10007F10002745454539003C4A4949300001AC
:102D20007109050300364949493600064949291EFB
:102D3000000036360000000056360000000814225D
:102D4000410000141414141400004122140800025D
:102D500001510906003E4955592E007C1211127C82
:102D6000007F49494936003E41414122007F4141AF
:102D7000221C007F49494941007F09090901003EA1
:102D80004149497A007F0808087F0000417F4100DF
:102D9000002040413F01007F08142241007F404055
:102DA0004040007F020C027F007F0408107F003E3D
:102DB0004141413E007F09090906003E4151215E23
:102DC000007F091929460046494949310001017F20
:102DD0000101003F4040403F001F2040201F003FB6
:102DE0004038403F00631408146300070870080768
:102DF00000615149454300007F4141000002040841
:102E00001020000041417F00000402010204004044
:102E10004040404000000102040000205454547817
:102E2000007F484444380038444444200038444437
:102E3000487F00385454541800087E0901020018D5
:102E4000A4A4A47C007F080404780000447D400012
:102E5000004080847D00007F102844000000417FF6
:102E60004000007C04180478007C080404780038D2
:102E70004444443800FC242424180018242418FC5A
:102E8000007C0804040800485454542000043F44C3
:102E90004020003C4040207C001C2040201C003C86
:102EA0004030403C004428102844001CA0A0A07CD6
:102EB000004464544C440000087F41000000007F3F
:102EC00000000000417F080000080408100800000E
:102ED000020000000024014000000000010000008A
:102EE0000024014000800000140000000024014084
:102EF00000000100220000000024014000800100C9
:102F00002300000000240140000002002500000012
:102F1000002401400080020026000000002401403F
:102F20000000030024000000002401400080030092
:102F3000FFFFFFFF00000000000000002400000071
:102F4000000000400B910000230000000000004042
:102F50000B11010010000000000000400B91010067
:102F600027000000000000400B11020022000000BA
:102F7000002C01400B8D000001000000002C0140DE
:102F80000B0D010013000000002C01400B8D01000F
:102F900014000000002C01400B0D02002000000076
:102FA000002C01400B8D000002000000002C0140AD
:102FB0000B0D010021000000002C01400B8D0100D1
:102FC000FFFFFFFF000000000000000023000000E2
:102FD0000038014018000000FFFFFFFF0000000064
:102FE0000000000012000000003801400B0000004B
:102FF000FFFFFFFF000000000000000026000000AF
:103000000038014018000000FFFFFFFF0000000033
:103010000000000025000000003801400B00000007
:10302000FFFFFFFF0000000000000000256C752E70
:10303000256C7556000000002575000042415420A3
:103040004C4F57210000000042415420455252216C
:103050000000000042415420484947482100000038
:103060004552524F520000004261743A0000000085
:103070005468723A0000000050574D3A00000000BA
:1030800044495341524D45440000000020000000D7
:1030900000000000000000001807000030130000CE
:1030A0005C0700005A0700005607000030070000C8
:1030B00056070000EA060000B0060000010000000C
:1030C00000000000060000000C0000000D000000E1
:1030D0000F000000100000000E00000001000000C2
:1030E00002000000100000001100000012000000AB
:1030F000130000001400000015000000160000007E
:103100001700000020000000210000002200000045
:10311000230000002400000025000000260000001D
:10312000270000007374617465426F6F74000000C3
:10313000737461746544697361726D656400000045
:10314000737461746541726D6564000073746174B9
:10315000654C6F7742617474657279007374617441
:10316000654572726F720000496E69742E2E2E00D2
:103170000100000002000000040000000800000040
:10318000100000002000000040000000800000004F
:10319000000000000000000000000000000000002F
:1031A000000000000000000000000000000000001F
:1031B000000000000000000000000000000000000F
:1031C00000000000000000000000000000000000FF
:1031D00000000000000000000000000000000000EF
:1031E00000000000000000000000000000000000DF
:1031F000000102020303030304040404040404049E
:10320000050505050505050505050505050505056E
:10321000060606060606060606060606060606064E
:10322000060606060606060606060606060606063E
:10323000070707070707070707070707070707071E
:10324000070707070707070707070707070707070E
:1032500007070707070707070707070707070707FE
:1032600007070707070707070707070707070707EE
:1032700008080808080808080808080808080808CE
:1032800008080808080808080808080808080808BE
:1032900008080808080808080808080808080808AE
:1032A000080808080808080808080808080808089E
:1032B000080808080808080808080808080808088E
:1032C000080808080808080808080808080808087E
:1032D000080808080808080808080808080808086E
:1032E000080808080808080808080808080808085E
:0832F000286E756C6C290000CA
:0832F800A8200000E016000010
:103300000204060804080C10081018201020304091
:10331000204060800102030405060708010203043F
:103320000506070801020304050607080102030455
:103330000506070800000000000000000000000073
:10334000000000000000000000000000FFFFFFFF81
:10335000FFFFFFFFFFFFFFFFFFFFFFFF0000000079
:103360000100000000000000B0310000D03100007A
:10337000903100000000000000000000000000008C
:10338000000000000000000000000000000000003D
:10339000000000000000000000000000000000002D
:1033A000000000000000000000000000000000001D
:1033B000000000000000000000000000000000000D
:1033C0000000000000000000006CDC02FFFFFFFFB7
:1033D0007A030000C8030020640000200000000001
:00000001FF
